:100000000C942F020C9482020C9482020C948202B3
:100010000C9482020C9482020C9482020C94820250
:100020000C9482020C9482020C9411210C94820292
:100030000C94AF2E0C9482020C9482020C948202D7
:100040000C9482020C9482020C9482020C94820220
:100050000C9482020C94720B0C9482020C94820217
:100060000C9482020C9482020C9482020C94820200
:100070000C9482020C9482020C9482020C948202F0
:100080000C9482020C9482020C9482020C948202E0
:100090000C9482020C9482020C9482020C948202D0
:1000A0000C9482020C9482020C9482025F1F861FC1
:1000B0007E20861F7E20D21FF51F7E204C205B20D5
:1000C0000E250E2546254625C125F525EC27EC27CE
:1000D0000C26EC279D259D25A627EC27BB27D92795
:1000E000808080800405060708090A0B0C0D0E0F9E
:1000F000101112131415161718191A1B1C1D1E1F88
:10010000202122232425262728292A2B2C2D2E2F77
:10011000303132333435363738393A3B3C3D3E3F67
:10012000404142434445464748494A4B4C4D4E4F57
:10013000505152535455565758595A5B5C5D5E5F47
:10014000606162636465736768696A6B6C6D6E6F2A
:100150007071727380808080808080808080800356
:100160000201808080668075007476778080808050
:100170007677808080808080808080808080808092
:10018000808080808080808080808080808080806F
:10019000808080808080808080808080808080805F
:1001A000808080808080808080808080808080804F
:1001B000808080808080808080808080808080803F
:1001C00078797A7B7C7D7E7F808080808080808053
:1001D000808080808080808080808080808080801F
:1001E00073706565643A2025730A007573625F73E6
:1001F000746174653A20253032580A00686F737450
:100200002E5461736B3A2025640A00526F6C6C6F38
:10021000766572206572726F723A2069676E6F72CE
:1002200065640D0A000D0A00202530325800696E01
:100230007075742025643A000A4C6F6F70207374D7
:100240006172742E0A000A55534220636F6E66690C
:1002500067757265642E0A000A544D4B3A65663222
:100260003964632F4C5546413A6436613764662FD2
:10027000554853323A6533376564360A003C0355B6
:100280000053004200200074006F0020005500530E
:1002900000420020006B006500790062006F006181
:1002A0000072006400200063006F006E007600653D
:1002B0000072007400650072000000080354004DD5
:1002C000004B00000004030904090254000301006C
:1002D000A0320904000001030101000921110100FD
:1002E000012240000705810308000A0904010001FA
:1002F00003010200092111010001227F000705828C
:100300000308000109040200010300000009211193
:1003100001000122220007058303200001120110C1
:100320000100000008EDFE5B001508010200010657
:1003300031FF0974A1010975150026FF009520758C
:100340000881020976150026FF00952075089102A4
:10035000C005010902A1010901A1008501050919D2
:10036000012908150025019508750181020501097B
:100370003009311581257F950275088106093815E8
:1003800081257F950175088106050C0A38021581C3
:10039000257F950175088106C0C005010980A1016E
:1003A00085021601002637001A81002AB700751051
:1003B00095018100C0050C0901A10185031601000A
:1003C000269C021A01002A9C02751095018100C02A
:1003D00005010906A101050719E029E71500250116
:1003E00095087501810295017508810105081901BB
:1003F0002905950575019102950175039101050780
:10040000190029FF150026FF00950675088100C018
:10041000290A002575002F002575005D2800256438
:1004200000200025640020002564002000256400D1
:100430007C0025303258006D6F7573656B657920CF
:100440005B62746E7C782079207620685D28726506
:10045000702F61636C293A205B000F0ADD0A1124BA
:100460001FBECFEFDAE0DEBFCDBF04B603FE28C06B
:100470008091D5059091D605A091D705B091D8056A
:100480008730904BA740B04BD9F41092D50510920D
:10049000D6051092D7051092D80514BE0FB6F89461
:1004A000A895809160008861809360001092600040
:1004B0000FBE1092010810920008E0E0F8E30995E1
:1004C00011E0A0E0B1E0E4EEF6E602C005900D9286
:1004D000AC39B107D9F725E0ACE9B1E001C01D9214
:1004E000A53DB207E1F712E0CFE2D2E004C02197C8
:1004F000FE010E945633CD32D107C9F70E94721C0B
:100500000C9470330C940000FF93EF93E0919C01E6
:10051000F0919D01309709F00995EF91FF910895B1
:10052000FC018591803011F0EFDFFBCF0895FF27AC
:10053000E0E230E247FF0CC0419597FF09C0EDE2D1
:100540006095709580959095611D711D811D911D1F
:1005500027FF02C0219530E350E2AA27660F771FDC
:10056000881F991FAA1FA41710F0A41B63955A9502
:10057000A9F7AA3008F0A95FA05DAF93F3956115C4
:1005800071058105910541F7ED3211F4EF93F39573
:10059000F21718F43F93F395FBCF8F91B5DFFA95DF
:1005A000E1F70895E991F9918591803021F0853244
:1005B00019F0AADFF9CF089520E0E894559155325B
:1005C000C1F3503311F4689455915A3348F45053A1
:1005D00090F3220F022E220F220F200D250FF4CFB1
:1005E0000EF4219589919991533619F3533729F1D6
:1005F000533559F1BC0188279927E8945C3621F4DA
:100600008991999168945591543639F446EF7EF06A
:1006100077FF0DC08FEF9FEF0AC055374AE039F0E2
:10062000583540E121F0523642E009F00895FF9339
:10063000EF937DDFEF91FF91B7CFFF93EF93FC0135
:1006400081918030B9F360DFFBCFFF93EF9368DFD8
:10065000F1CFDF93CF93CDB7DEB72596A3DFCF9150
:10066000DF9108950F931F93CF93DF93EC0148819F
:1006700059816A817B818C810E94312D8C0184306B
:10068000910520F18337910520F084579109C19796
:10069000E8F4CA81CC2361F083E70E94572380915C
:1006A0009E018F5F80939E01802F0E94572311C06F
:1006B000802F0E94472480919E01815080939E014B
:1006C000811106C083E70E94472402C0C0E001C038
:1006D000C1E08C2FDF91CF911F910F91089580E0A1
:1006E0000895089580E0089581E00895CF93DF9301
:1006F000CDB7DEB728970FB6F894DEBF0FBECDBFDB
:10070000E22F29833A834B835C836D837E838F83BF
:1007100098878091DB02E82BE093DB02FE013396A1
:10072000AE01475F5F4F2191243088F0ADEDB2E01C
:1007300080E090E03D91311106C0DC01A552BD4F33
:1007400012962C9304C001968630910599F7E41710
:10075000F50749F728960FB6F894DEBF0FBECDBF58
:10076000DF91CF910895860F911D860F911DFC0199
:100770005687458781E00895FC0187890895CF93C6
:10078000DF93EC018C819D81DC01ED91FC91048073
:10079000F581E02D6E8109951F86188A81E08A8B8C
:1007A0001E821B8A1C8A1D8A1E8A1F8A80E0DF9196
:1007B000CF910895FC018681089581E0633009F0AE
:1007C00080E0089581E0613009F080E00895860FAF
:1007D000911D860F911DFC01858596850895EF92E8
:1007E000FF92CF93DF93DC01E70152968C915297F1
:1007F000823049F11F966C931F9750964C935097F7
:100800009B8193709330F9F49A8197FF1CC09E816D
:1008100058962C915897291718F458969C935897E6
:10082000E82FF0E09F01220F331FE20FF31FEA0FC2
:10083000FB1F9A819F7097839C81908794E091879A
:100840008F5F52968C93DF91CF91FF90EF90089538
:10085000EF92FF920F9302970E94EF030F91FF9088
:10086000EF90089508956F927F928F929F92AF922A
:10087000BF92CF92DF92EF92FF920F931F93CF938D
:10088000DF9300D0CDB7DEB76C01ADB6BEB6DC01EC
:1008900057968C91882379F00E94F20AF601038919
:1008A000148925893689DC01CB01801B910BA20BB1
:1008B000B30BB7FF02C0F12C54C08DB69EB6838532
:1008C00090E08134910510F080E490E09A83898370
:1008D00089819A812DB73EB7281B390B0FB6F89442
:1008E0003EBF0FBE2DBF8DB79EB70196E12C8C0188
:1008F0009E012F5F3F4FD6011A964C911A9716967C
:100900006C91169714968D919C9115970E94941353
:10091000F82E811113C029813A812330310570F0FE
:10092000F60185859685009749F0DC01ED91FC91F3
:100930000190F081E02D40E0B60109950FB6F894E2
:100940009EBE0FBE8DBE0E94F20AF601208DDC0114
:10095000CB01820F911DA11DB11D838B948BA58BA3
:10096000B68B8F2D0FB6F894BEBE0FBEADBE0F90E6
:100970000F90DF91CF911F910F91FF90EF90DF903B
:10098000CF90BF90AF909F908F907F906F90089581
:100990002F923F924F925F926F927F928F929F928F
:1009A000AF92BF92CF92DF92EF92FF920F931F937D
:1009B000CF93DF93CDB7DEB7EB970FB6F894DEBFDA
:1009C0000FBECDBFDC0116965C90511025C1422EA2
:1009D000242E362E7C01FC01A480B580108ED5011A
:1009E000ED91FC910190F081E02D60E0C501099549
:1009F0006C01009719F446ED542E1BC1FC01808058
:100A000091808114910409F40AC13701F7E06F0E57
:100A1000711CDC0111967C926E9214964C928E01A0
:100A2000065D1F4F28E030E040E060E0F701848180
:100A300095810E945611182F8111F7C01AA5D60171
:100A40008D929C92D501ED91FC910280F381E02D75
:100A5000222D40E0632DC5010995F7018683882387
:100A600009F4E0C099A99087282F40E060E08481D4
:100A700095810E940112982ED501ED91FC91D6012D
:100A800014961C92882361F00480F581E02DD70133
:100A900016966C91C5010995F7011682592CC9C0AB
:100AA0000190F081E02DD70116966C91C501099552
:100AB000009709F4A0CF133108F012E1FC01448241
:100AC000930141E0D70116966C91169714968D917B
:100AD0009C9115970E94C30C11110FC03BAC412C87
:100AE00038E2832E31E0932E5701B2E0AB0EB11CF9
:100AF0006E01E1E1CE0ED11C39C0212F30E08E0114
:100B0000065D1F4F40E0D70116966C91169714961C
:100B10008D919C9115970E945611182F811172C0CA
:100B2000DDCF9A828982BC82AB821D821A861B86A7
:100B30001E86188A1F8619A21AA21BA219A6DF8276
:100B4000CE82D986C886DD86CC868E010F5F1F4F88
:100B5000242D40E0F7016681848195810E94A411D3
:100B6000D70152968C91823019F043944310D9CF1B
:100B7000F7018289823009F044C0930142E0668126
:100B8000848195810E94C30C68EE73E080E090E060
:100B90000E94F40AD7011F962C911F9740E01696E9
:100BA0006C91169714968D919C9115970E946F13D6
:100BB000182F811127C068EE73E080E090E00E945A
:100BC000F40AF701418D60E0C7010E945B15182F00
:100BD000811118C020E040E060E0C7010E9431159B
:100BE0008EE291E09A838983AE014F5F5F4F60E0B0
:100BF00070E0C7010E94C11481E0D70157968C9321
:100C000018C011EDD701ED91FC910480F581E02D24
:100C1000C7010995512E0DC029ED522E0AC097ED3E
:100C2000592E07C084ED582E04C0F60191828082AF
:100C3000E9CF852DEB960FB6F894DEBF0FBECDBF82
:100C4000DF91CF911F910F91FF90EF90DF90CF90A8
:100C5000BF90AF909F908F907F906F905F904F90DC
:100C60003F902F9008953F924F925F926F927F92A4
:100C70008F929F92AF92BF92CF92DF92EF92FF92AC
:100C80000F931F93CF93DF9300D000D0CDB7DEB783
:100C90006C017C836B835A8349834C0180E1880E0D
:100CA000911C5601A7E0AA0EB11C11E084E0482E69
:100CB0003601B2E16B0E711C93E0392E22E0522E08
:100CC0008B819C81892B09F4FBC0F60180A18230C5
:100CD00059F128F4882341F0813071F0F1CF83304D
:100CE00039F18430C1F1ECCF5482858196819087AF
:100CF00087835286518610A3AE014D5F5F4FBE01C0
:100D00006F5F7F4FC5010E944F19882309F4D8C037
:100D1000D6011596ED91FC911697808191968C9352
:100D20009197818192968C93F6017682658230A2AA
:100D3000D60192968C919297843011F493961C92DE
:100D4000F60181A1825084832581368130872783F3
:100D50008287818740A2D60192968C918430B1F02F
:100D6000853009F442C0823009F06EC0AE014D5F9B
:100D70005F4FBE016F5F7F4FC5010E944F198823EF
:100D800009F49EC0F601858984A392C0AE014D5F2F
:100D90005F4FBE016F5F7F4FC5010E944F198823CF
:100DA00009F48EC0D60155968C915597833009F081
:100DB0007FC056968C915697813009F079C09896ED
:100DC0009C91989757968C91992321F0882309F448
:100DD0006FC003C0813009F06BC0F60113A3928984
:100DE00096A3938997A385A363C0AE014D5F5F4F20
:100DF000BE016F5F7F4FC5010E944F19882309F420
:100E00005FC0D60193968C919397882309F450C0C4
:100E100012968D919C911397009709F449C0DC01BB
:100E2000ED91FC910190F081E02D7401D601959631
:100E30000C91959797962C91979796964C9196979B
:100E400094966C91099534C0F6018585882319F034
:100E5000813039F028C081A190E00297978786877A
:100E600015872B813C8189819A81782F692FF60122
:100E7000468557854115510581F0019621153105AB
:100E800029F41C821B8279836A830DC04150510969
:100E90005787468721503109E8CF3C832B839A83BB
:100EA0008983F6011586F60186859785892B41F49D
:100EB000D60116969C928E92159790961C9200CF12
:100EC0000F900F900F900F90DF91CF911F910F9186
:100ED000FF90EF90DF90CF90BF90AF909F908F905A
:100EE0007F906F905F904F903F900895CF93DF93E6
:100EF0006091F9017091FA01E091A601F091A701CA
:100F00004091ED015091EE012091E1013091E2011B
:100F10008091D5019091D6016E177F07B1F4E091D1
:100F2000A401F091A5014E175F0779F4E091A201A9
:100F3000F091A3012E173F0741F4E091A001F09139
:100F4000A1018E179F0709F463C07093A7016093F6
:100F5000A6015093A5014093A4013093A3012093CF
:100F6000A2019093A1018093A001EBEDF2E088E053
:100F7000DF011D928A95E9F72091F1013091F2018C
:100F80004091F3015091F4016091F5017091F601E7
:100F90008091F7019091F8010E9476032091E5017C
:100FA0003091E6014091E7015091E8016091E9013B
:100FB0007091EA018091EB019091EC010E9476031F
:100FC0002091D9013091DA014091DB015091DC018F
:100FD0006091DD017091DE018091DF019091E0016F
:100FE0000E9476032091CD013091CE014091CF0136
:100FF0005091D0016091D1017091D2018091D301C3
:101000009091D4010E94760381E08093DA0202C0BD
:101010001092DA020E944B0BEC0183E692E00E94F0
:10102000CD13CE010E94630B8536910560F09F932E
:101030008F938CEF91E09F938F930E9429030F90E1
:101040000F900F900F9083E692E00E94A30C909176
:101050009F01891779F183E692E00E94A30C8093A7
:101060009F011F928F938BEE91E09F938F930E942D
:1010700029030F900F900F900F9080919F0180395E
:10108000C9F48091A801823019F080E291E002C099
:101090008BE191E09F938F9380EE91E09F938F93EC
:1010A0000E9429030E94FF210E940B230F900F90A2
:1010B0000F900F9081E0DF91CF910895482F80E14C
:1010C000489F90011124205E31092830310538F401
:1010D0009091DB02992319F0892F90E002C080E003
:1010E00090E0EDEDF2E061E070E02191243070F0ED
:1010F000322F32953F70431309C02F70DB0102C0BD
:10110000AA0FBB1F2A95E2F78A2B9B2BB2E0E33E86
:10111000FB0759F708950895CF92DF92EF92FF925F
:101120000F93CF93DF931F92CDB7DEB78983809162
:101130006002882371F0CE0101966C01EE24E394E5
:10114000F12C00E022E040E060E089E492E00E94BF
:10115000041580914602882371F0CE0101966C013E
:10116000EE24E394F12C00E022E040E060E08FE226
:1011700092E00E94041580912C02882371F0CE0128
:1011800001966C01EE24E394F12C00E022E040E0B3
:1011900060E085E192E00E940415809112028823AC
:1011A00071F0CE0101966C01EE24E394F12C00E085
:1011B00022E040E060E08BEF91E00E9404150F9088
:1011C000DF91CF910F91FF90EF90DF90CF90089536
:1011D0000E946D2E8091CA05882331F00E94962EC0
:1011E000882321F00C948D1D0C9476070895FC0142
:1011F0007583648384E391E09183808382E591E049
:1012000093838283138A148A158A168A178A418FD8
:10121000178288E080878CE381871286138684E0BA
:10122000848781E0828B118A178616861586611560
:101230007105B1F0DB01AA5ABF4F80E090E02D911B
:101240003D91232B49F48B96880F991FDB01A80F42
:10125000B91FED93FC93089501968031910579F7BC
:1012600008952E9A08952E988EBD0DB407FEFDCFD9
:101270001EBC0DB407FEFDCF0E9431098EB5089546
:101280002E9882608EBD0DB407FEFDCF6EBD0DB4ED
:1012900007FEFDCF0C94310988EC0E94330985FFCD
:1012A00003C060E288EC06C08091A801811147C0AC
:1012B00064E088EE0E94400988EF0E943309807C38
:1012C000909100018917D9F180930001803411F1C8
:1012D00018F4882371F10895803819F0803C39F1B1
:1012E000089588ED0E9433099091A80181FD08C0FE
:1012F000923029F161EC88ED0E94400982E007C03C
:101300009330E9F063EC88ED0E94400983E080931C
:10131000A801089588ED0E9433099091A80181FDEC
:1013200003C0933079F70895923021F7089581E052
:10133000EECF61EC88ED0E9440091092A80108955B
:101340000F931F93CF93DF938C01269A0E9431094C
:10135000219A229A2398209A80E58CBD81E08DBD48
:10136000259868E188E80E94400960E288E70E94C9
:10137000400960E088E70E944009C0E0D0E088E6CC
:101380000E943309219680FD06C0CF3F8FEFD8071A
:10139000B1F78FEF1DC061EC88ED0E94400960E25B
:1013A00080ED0E94400964E088EE0E94400988EECA
:1013B0000E94330982FFFBCFC8010E944C0960E202
:1013C00088EC0E94400961E080E80E94400980E0CA
:1013D000DF91CF911F910F9108958091BD0581609C
:1013E0008093BD0583E692E00E94A0098FEE91E014
:1013F000909357028093560283EE91E090933D02C2
:1014000080933C0287ED91E0909323028093220227
:101410008BEC91E09093090280930802089583E693
:1014200092E00E94730C40E063E672E089E492E08F
:101430000E94F70840E063E672E08FE292E00E94CB
:10144000F70840E063E672E085E192E00E94F70869
:1014500040E063E672E08BEF91E00E94F70888E5D8
:1014600091E09093F0018093EF019093E4018093D9
:10147000E3019093D8018093D7019093CC0180939E
:10148000CB0163E672E08AEB91E00E94DF1763E62E
:1014900072E089EA91E00C94DF17AF92BF92CF928D
:1014A000DF92EF92FF920F931F93CF93DF937C0114
:1014B000CB01D22EDB01ED91FC910084F185E02D72
:1014C00009951F928F938EE292E09F938F930E94D3
:1014D0002903E8015801AD0CB11C0F900F900F903B
:1014E0000F9088E2C82E82E0D82ECA15DB0561F085
:1014F00089911F928F93DF92CF920E9429030F90C0
:101500000F900F900F90F1CF85E292E09F938F9311
:101510000E9429030F900F90F8018281813049F4D5
:101520008BE092E09F938F930E9429030F900F907E
:101530000FC0D701129688E0F80101900D928A95AC
:10154000E1F70E94F20AD7011B967C936E931A97DB
:10155000DF91CF911F910F91FF90EF90DF90CF908F
:10156000BF90AF90089580E090E008958FEF9FEFD7
:10157000089581E090E008950895862F0E946A1AE8
:1015800081E090E00895EF92FF920F931F93CF9325
:10159000DF938A01EB017B01E40EF51ECE15DF051A
:1015A00021F089910E946A1AF9CFC801DF91CF9189
:1015B0001F910F91FF90EF900895E3EEF2E01382F8
:1015C000128288EE93E0A0E0B0E084839583A68346
:1015D000B7838EE591E0918380838FEF9FEF9587AE
:1015E000848708950C94570B8F929F92AF92BF926D
:1015F000CF92DF92EF92FF920E941E324B015C016C
:1016000020E030E04AE755E40E94D5326B017C01CE
:1016100020E030E040E85FE30E94E33187FD24C032
:1016200020E03FEF4FE757E4C701B6010E94D032F8
:101630001816ACF420E030E040E251E4C501B401FA
:101640000E94D5320E94EF3120E931E06115710529
:1016500081F0C9010197F1F761507109F7CFC70116
:10166000B6010E94EF3102C061E070E0CB0101974A
:10167000F1F7FF90EF90DF90CF90BF90AF909F90E9
:101680008F90089582E084BD93E095BD9AEF97BD59
:1016900080936E0008952FB7F89480913303909152
:1016A0003403A0913503B09136032FBF08952FB7AF
:1016B000F8946091330370913403809135039091D5
:1016C00036032FBF08959C014FB7F89480913303E0
:1016D00090913403A0913503B09136034FBF821B24
:1016E000930B089578941F920F920FB60F921124C6
:1016F0008F939F93AF93BF93809133039091340363
:10170000A0913503B09136030196A11DB11D8093C0
:10171000330390933403A0933503B0933603BF9102
:10172000AF919F918F910F900FBE0F901F901895C2
:10173000CF93DF93FC01862F8078A9F4283008F03E
:101740004DC0442321F09581973009F447C0EF0143
:10175000A1E0B0E09D85992341F011962596A03136
:10176000B105C1F73BC080E039C061111CC085E004
:101770008A9FE0018B9FD00D1124CE0FDF1F4423E1
:1017800031F081E4888785818F5F858302C081E0A5
:10179000888725E02A9FC0012B9F900D1124E80F18
:1017A000F91F80851BC06770660F660F660F4423A4
:1017B00041F0606485818F5F85838770687F682BC7
:1017C00003C02770687B622B25E02A9FC0012B9FF6
:1017D000900D1124E80FF91F6087862FDF91CF91BC
:1017E0000895611102C006960895FC0121E0358537
:1017F000631739F02F5F35962031C9F780E090E00C
:101800000895069635E0239F800D911D11240895BB
:10181000DF92EF92FF920F931F93CF93DF93EC0130
:10182000E62EF12C85E0689FB0011124FE01E60F41
:10183000F71F8085182F177086FF17C001E085E01D
:10184000D82EFE01D09EE00DF11D112480858695D5
:101850008695869587701817F9F00F5F003189F724
:101860008D81811302C011501D8385E08E9DF00192
:101870008F9DF00D1124EC0FFD1F108681E08187F4
:1018800012862296D783C683DF91CF911F910F9145
:10189000FF90EF90DF900895602FCE010E94080C1A
:1018A000D0CFFC01613499F49C01255B3F4F61E08E
:1018B000AC014E5F5F4F1586668717865487438756
:1018C0003596E217F307B9F7FC011582089521E078
:1018D0003585631729F02F5F35962031C9F70895B4
:1018E000622F0C94080CFC0180E791E091838083C7
:1018F0001582108681E081871286CF010296978338
:101900008683128228E023832CE32483DF019F0156
:10191000255B3F4F41E01D961C921D971E964C93F0
:101920001E971F961C921F971C969C938E931B9735
:101930001596A217B30779F7EA58FF4F108281E195
:1019400080933B03089580913B030895CF93C42F68
:101950000E94F10B009789F0DC01ED91FC91119749
:10196000309759F013969C9180E0891731F02081CF
:101970002C1731F033968F5FF8CF80E090E001C0F4
:10198000CF01CF9108950F931F93CF93DF9321152C
:10199000310571F0E901042F162F0E94F10BFC01B3
:1019A000892B41F01283D183C083038380E003C07D
:1019B00088ED01C086EDDF91CF911F910F910895C1
:1019C000CF92DF92FF920F931F93CF93DF93662303
:1019D00081F1F62E8C016C0186E5C80ED11CC0E0A9
:1019E000D0E0D6018D919D916D010097F1F0DC0161
:1019F000ED91FC910084F185E02D0995F81215C058
:101A0000AB96CC0FDD1FC00FD11F88819981DC01FF
:101A1000ED91FC910480F581E02DDF91CF911F9134
:101A20000F91FF90DF90CF9009942196C031D1059E
:101A3000C1F680E0DF91CF911F910F91FF90DF9071
:101A4000CF9008952E980895CF93C82F0E94220D0D
:101A5000CEBD0DB407FEFDCF1EBC0DB407FEFDCFFD
:101A60000E9431098EB5CF910895CF93DF93C82F8F
:101A7000D62F0E94220DC260CEBD0DB407FEFDCF51
:101A8000DEBD0DB407FEFDCFDF91CF910C9431097F
:101A90008F929F92AF92BF92CF92DF92EF92FF927E
:101AA0000F931F93CF93DF93EC01D62EC42E5901D1
:101AB0000E94F10B7C01009709F445C0FC01808174
:101AC0009181892B09F441C04C2D6D2DCE010E94CE
:101AD000A60CF501918380830097C9F1FC018281F6
:101AE0008695869590E08031910514F08FE090E026
:101AF00041E050E060E070E04A015B0104C0880C06
:101B0000991CAA1CBB1C8A95D2F7D501C401019768
:101B1000F801918380836D2D80EE0E94350D88ED54
:101B20000E94240DF7019481992331F0CA58DF4FA8
:101B300068816260682B02C0682F697F88ED0E940F
:101B4000350D80E005C086ED03C087ED01C08BED4B
:101B5000DF91CF911F910F91FF90EF90DF90CF9089
:101B6000BF90AF909F908F9008958F929F92AF9269
:101B7000BF92CF92DF92EF92FF920F931F93CF937A
:101B8000DF93862E942E59010E94F20A6B017C018C
:101B900028E8C20E23E1D21EE11CF11C00E010E097
:101BA000D0E0C0E098280E94F20ADC01CB018C1939
:101BB0009D09AE09BF09B7FF2DC0692D80EF0E94B6
:101BC000350D0E94F20ADC01CB018C199D09AE098A
:101BD000BF09B7FF09C088EC0E94240D87FFF1CF31
:101BE00060E888EC0E94350D88EF0E94240DC82F14
:101BF000CF70C43019F0CE3051F00CC00F5F1F4FC2
:101C0000A114B10481F20A151B0569F603C0DF5F58
:101C1000D33049F68C2FDF91CF911F910F91FF9018
:101C2000EF90DF90CF90BF90AF909F908F900895EE
:101C30009F92AF92BF92CF92DF92EF92FF920F935B
:101C40001F93CF93DF937C01D42F122F902E00E0AF
:101C50006C01C60ED11CC60ED11C86E5C80ED11C67
:101C6000A42EB12CABE2AA0EB11CAA0CBB1CAE0C6C
:101C7000BF1CF60180819181DC01ED91FC91028015
:101C8000F381E02D292D412F6D2F0995803EC9F458
:101C9000D1110BC061E088EE0E94350D66E670E060
:101CA00080E090E00E94F40A14C0F50180819181E7
:101CB000DC01ED91FC910284F385E02D612F099503
:101CC00008C08D3021F4033008F03FC014C08111EA
:101CD0003FC0F60180819181DC01ED91FC91019082
:101CE000F081E02D292D412F6D2F0995C82F8D30C2
:101CF00051F4033050F464E670E080E090E00E941C
:101D0000F40A0F5FB6CF882311F1D1110BC061E047
:101D100088EE0E94350D66E670E080E090E00E945B
:101D2000F40A11C0ED2FF0E0BB96EE0FFF1FEE0D91
:101D3000FF1D80819181DC01ED91FC910284F3858E
:101D4000E02D612F09958C2F03C08DE001C080E04C
:101D5000DF91CF911F910F91FF90EF90DF90CF9087
:101D6000BF90AF909F9008950F931F93CF93DF93F1
:101D7000182F062FEA010E94220D12601EBDFE01DF
:101D8000802F882339F00DB407FEFDCF91919EBDC1
:101D90008150F7CFC00FD11D0DB407FEFDCF0E94BB
:101DA0003109CE01DF91CF911F910F9108952F92AC
:101DB0003F924F925F926F927F928F929F92AF92DB
:101DC000BF92CF92DF92EF92FF920F931F93CF9328
:101DD000DF9300D000D01F92CDB7DEB77B014A0160
:101DE0006901FB01F181F9838F2F8150803408F064
:101DF00069C00E94F20A2B013C0128E8420E23E14F
:101E0000521E611C711CF701828180FD02C060E4DA
:101E100001C060E888EE0E94350D312C9981892F30
:101E200090E09A838983C114D104C9F1E981FA81D0
:101E3000FD83EC83CE16DF0610F4DD82CC82FC81BC
:101E4000FB83A8016F2F80E10E94B40E6C8188E3B0
:101E50000E94350DF7016081606280EF0E94350DB0
:101E600088EC0E94240D87FFFBCF60E888EC0E947D
:101E7000350D88EF0E94240D8F70382EA12CB12CC7
:101E8000212C332009F45AC00E94F20ADC01CB0154
:101E900084199509A609B709B7FF50C015C03320AA
:101EA00021F060E088E30E94350D88EF0E94240D48
:101EB00085FB882780F9F701928180FB90F9928356
:101EC000832D43C08AED41C0F6E03F1222C060E09E
:101ED00088E30E94350DF801608180E10E94350D94
:101EE0006B8188E30E94350DF7016081606280EFAD
:101EF0000E94350D88EC0E94240D87FFFBCF60E81F
:101F000088EC0E94350D88EF0E94240D8F70382ECA
:101F1000B8CF2EE0321205C0239423E02212D7CF8F
:101F2000C0CF84E03812BDCFFFEFAF1ABF0A8114D3
:101F3000910469F2A814B90451F6B3CFEC81FD8184
:101F4000CE1ADF0A0E0F1F1F6ECF0F900F900F904B
:101F50000F900F90DF91CF911F910F91FF90EF9015
:101F6000DF90CF90BF90AF909F908F907F906F90B9
:101F70005F904F903F902F9008952F923F924F92F5
:101F80005F926F927F928F929F92AF92BF92CF9209
:101F9000DF92EF92FF920F931F93CF93DF93CDB712
:101FA000DEB72A970FB6F894DEBF0FBECDBF9D8374
:101FB0008C836B015F834E835901EA82F901808033
:101FC0009180FB01F181FB83F90111821082FB01F9
:101FD000828181FD02C060E101C060E288EE0E9462
:101FE000350D8886FA814F2E512C612C712C2E8153
:101FF0003F81F601408160E08C819D810E94B50D9A
:1020000089838630A1F3811163C088EC0E94240D7E
:1020100082FF5CC080E30E94240D382E90E0881679
:10202000990608F43884F501808191819401281B78
:10203000390B3A87298737FF02C01A861986E32CA5
:10204000F12C89859A85E816F90614F4FA86E98652
:1020500029840E94220D98E09EBD0DB407FEFDCF9D
:10206000F801222041F01EBC2A940DB407FEFDCFDA
:102070008EB58193F6CFE985FA850E0F1F1F0E945A
:10208000310964E088EC0E94350DF5018081918171
:10209000E80EF91EF182E082FB813F1618F0E81489
:1020A000F90458F088EF0E94240D82958170F601A2
:1020B000928180FB91F992830BC0FA81FF2309F48E
:1020C00096CFC301B2010E94F40A91CF20EF298379
:1020D00089812A960FB6F894DEBF0FBECDBFDF917F
:1020E000CF911F910F91FF90EF90DF90CF90BF9015
:1020F000AF909F908F907F906F905F904F903F90A8
:102100002F9008952F923F924F925F926F927F92FD
:102110008F929F92AF92BF92CF92DF92EF92FF92F7
:102120000F931F93CF93DF93CDB7DEB761970FB6B1
:10213000F894DEBF0FBECDBF3C01F42E322E202E10
:10214000C98A65014EA05FA0A8A4B9A4188A1F86F9
:102150001E861D868E01035F1F4F9E01215F3F4F2C
:102160000E94480D811189C039822A82EB828989B7
:102170008C83DE82CD8298868F82AE014F5F5F4F67
:1021800068E080E20E94B40E2D853E854F2D60E10F
:10219000C3010E94B50D182F81116BC0932D90784B
:1021A000392EA114B10409F455C0EF85F889828154
:1021B000992309F440C0826082836401C114D10470
:1021C00009F44DC09C2D8D2D4C145D0410F4942DFC
:1021D000852D9B878C874D855E856F857889E12C61
:1021E00085019E01255F3F4FC3010E94BD0F182F3F
:1021F000863021F381113DC0AAA5BBA5109799F0A7
:10220000ED91FC9111970190F081E02DC4018C19A2
:102210009D099A8789876B857C859E01275F3F4F43
:10222000A501CD0109958B859C85C81AD90A84150D
:10223000950520F60FC0816082834D855E858501FE
:102240009201BF01C3010E94D70E811116C02D85D6
:102250003E8511C02D853E85311005C00CC0111181
:1022600008C02D853E8560EA4F2DC3010E94B50D43
:1022700004C0812F02C060E8F7CF61960FB6F894D2
:10228000DEBF0FBECDBFDF91CF911F910F91FF90A9
:10229000EF90DF90CF90BF90AF909F908F907F9006
:1022A0006F905F904F903F902F9008958F929F92E4
:1022B000AF92BF92CF92EF920F931F931F921F92F4
:1022C0001F930F933F932F934901A12CB12CCC2442
:1022D000C394E12C06E020E80E9482100F900F903A
:1022E0000F900F900F900F901F910F91EF90CF9044
:1022F000BF90AF909F908F9008958F929F92AF92D2
:10230000BF92CF92EF92FF920F931F921F92FF9274
:10231000EF923F932F934901A12CB12C22E0C22EC2
:10232000E02E06E020E80E9482100F900F900F90A0
:102330000F900F900F900F91FF90EF90CF90BF9064
:10234000AF909F908F9008954F925F926F927F927F
:102350008F929F92AF92BF92CF92DF92EF92FF92B5
:102360000F931F93CF93DF93CDB7DEB7C054D1093E
:102370000FB6F894DEBF0FBECDBF3C01D62E542E53
:10238000422EC02ECE0101965C017C01022F29E075
:1023900030E0C3010E947D1181111BC08B809C80A5
:1023A0001F93CF92BF92AF921F9280E48F93A12C84
:1023B000B12C82E0C82EE42C06E020E8452D6D2DDE
:1023C000C3010E9482100F900F900F900F900F90FA
:1023D0000F90C05CDF4F0FB6F894DEBF0FBECDBFCD
:1023E000DF91CF911F910F91FF90EF90DF90CF90F1
:1023F000BF90AF909F908F907F906F905F904F9025
:1024000008958F929F92AF92BF92CF92EF920F93C7
:10241000CF931F921F921F921F921F921F92812C87
:10242000912CA12CB12CC12CE22E05E020E00E94C1
:102430008210C82F6CE271E080E090E00E94F40A04
:102440000F900F900F900F900F900F908C2FCF91B7
:102450000F91EF90CF90BF90AF909F908F90089585
:102460000F931F93CF93DF938A3F3FEF930711F4AE
:1024700086ED2DC0DC011696ED91FC911797EF2BA0
:1024800009F1122F242FEC011A8740E00E94980BCB
:10249000082F8823C9F0682FCE010E94F10B009706
:1024A00039F3FC011483202F40E060E0CE010E944C
:1024B0000112182F882351F0602FCE010E94510C79
:1024C000812F05C087ED03C084ED01C080E0DF915E
:1024D000CF911F910F9108952F923F924F925F924B
:1024E0006F927F928F929F92AF92BF92CF92DF9224
:1024F000EF92FF920F931F93CF93DF93CDB7DEB789
:1025000066970FB6F894DEBF0FBECDBF1B8A38E0CA
:102510003C8B3CE33D8B8A3F3FEF930709F464C05B
:10252000522E342E462E7C01DC011696CD90DC9086
:102530001797CE01439617969C938E9316971A96EB
:102540002C938E010F5F1F4F22E130E040E060E0EE
:10255000C7010E945611F701D782C6828111A6C019
:1025600089849A846B847C84FD81FE8B2E80670134
:1025700036E5C30ED11C560110E0D5018D919C911A
:102580000097F1F1DC01ED91FC910084F185E02DE3
:102590000995811135C0F50180819181DC01ED91B2
:1025A000FC910088F189E02D622D0995882341F185
:1025B000F50180819181DC01ED91FC910484F58528
:1025C000E02DA301B4010995811110C0F5018081AE
:1025D0009181DC01ED91FC910684F785E02D6E89F7
:1025E0000995811103C00CC086ED60C0052D232D17
:1025F000442D612FC7010E94180E813D09F056C07D
:102600001F5FB2E0AB0EB11C103109F0B6CF10E085
:10261000F601808191810097E1F1DC01ED91FC915F
:102620000084F185E02D0995811133C0F601808188
:102630009181DC01ED91FC910088F189E02D622D02
:1026400009958823D9F0F60180819181DC01ED9113
:10265000FC910484F585E02DA301B4010995811155
:1026600018C0F60180819181DC01ED91FC91068416
:10267000F785E02D6E89099581110BC0052D232D5D
:10268000442D612FC7010E94180E982F977F913D0E
:1026900069F41F5FE2E0CE0ED11C103109F0B8CF13
:1026A000252D432D642DC7010E94301266960FB66A
:1026B000F894DEBF0FBECDBFDF91CF911F910F9178
:1026C000FF90EF90DF90CF90BF90AF909F908F9052
:1026D0007F906F905F904F903F902F9008958F92D2
:1026E0009F92AF92BF92CF92EF920F931F921F9241
:1026F0001F921F921F921F92812C912CA12CB12C02
:10270000C12CE22E09E020E00E9482100F900F9071
:102710000F900F900F900F900F91EF90CF90BF9070
:10272000AF909F908F9008958F929F92AF92BF929B
:10273000CF92DF92EF920F931F93CF93DF9300D04E
:1027400000D0CDB7DEB76C01590148011C821B8255
:102750001A8219828E010F5F1F4F9E012D5F3F4F1E
:102760000E94480D811109C049815A816B817C8189
:1027700084019501C6010E94BD0F0F900F900F902C
:102780000F90DF91CF911F910F91EF90DF90CF903D
:10279000BF90AF909F908F900895AF92BF92CF92CD
:1027A000DF92EF92FF920F931F93CF938C010E94C1
:1027B0004C098091A801813039F040F0823079F0E5
:1027C000833039F5C1E00CC083E106C080913B0342
:1027D000807F8031F1F081E180933B031AC0C0E03B
:1027E00080913B03807F8031A9F40E94F20ADC01D2
:1027F000CB0188539F4FAF4FBF4F809337039093C8
:102800003803A0933903B0933A0380E280933B03EB
:1028100001C0C0E0780186E5E80EF11C6801A6E77A
:10282000CA0ED11C5701F501819191915F0100976A
:1028300039F0DC01ED91FC910680F781E02D0995DE
:10284000AC14BD0481F780913B03803409F43FC090
:1028500050F4803221F18033A1F1813109F087C039
:10286000F60110820AC0813509F45DC0803809F490
:102870006FC0803509F07BC03DC0D7018D919D911F
:102880007D01009739F0DC01ED91FC910480F58128
:10289000E02D0995EC14FD0481F782E166C00E94E9
:1028A000F20A0091370310913803209139033091D7
:1028B0003A03DC01CB01801B910BA20BB30BB7FDDC
:1028C00056C061E088EE0E94350D80E44EC088EE6F
:1028D0000E94240D80FD4BC060E488EC0E94350D01
:1028E00088ED0E94240D682F686088ED0E94350DE8
:1028F00080E53BC088EC0E94240D86FF38C081E54E
:1029000080933B030E94F20ADC01CB018C509E4F66
:10291000AF4FBF4F8093370390933803A093390391
:10292000B0933A0324C00E94F20AC0903703D090BB
:102930003803E0903903F0903A03DC01CB018C19A5
:102940009D09AE09BF09B7FD12C080E880933B0323
:102950002C2F40E060E0C8010E946C12882321F017
:10296000823D29F080EA01C080E980933B03CF914A
:102970001F910F91FF90EF90DF90CF90BF90AF909D
:1029800008958F929F92AF92BF92CF92EF920F9342
:10299000CF93DF93CDB7DEB7C054D1090FB6F8940B
:1029A000DEBF0FBECDBF5F934F939E012F5F3F4FA2
:1029B0003F932F931F9220E42F9320E8822E912C97
:1029C0005B0132E2C32EE12C06E021E840E0FC018D
:1029D0006681848195810E9482100F900F900F90E4
:1029E0000F900F900F90C05CDF4F0FB6F894DEBFD2
:1029F0000FBECDBFDF91CF910F91EF90CF90BF90E1
:102A0000AF909F908F9008958F929F92AF92BF92B8
:102A1000CF92DF92EF92FF920F93A42EB12C1F92D0
:102A20001F92DF92CF92FF92EF924701C22EE02ECB
:102A300009E021E2462FFC016681848195810E9494
:102A400082100F900F900F900F900F900F900F919A
:102A5000FF90EF90DF90CF90BF90AF909F908F90BE
:102A600008958F929F92AF92BF92CF92EF920F9361
:102A7000A62EB12C1F921F921F921F921F921F927F
:102A8000812C912CC22EE42E0AE021E240E0FC01D0
:102A90006681848195810E9482100F900F900F9023
:102AA0000F900F900F900F91EF90CF90BF90AF903D
:102AB0009F908F9008958F929F92AF92BF92CF92E6
:102AC000EF920F93A62EB12C1F921F921F921F926E
:102AD0001F921F92812C912CC12CE42E0BE021E23D
:102AE00040E0FC016681848195810E9482100F90F4
:102AF0000F900F900F900F900F900F91EF90CF903D
:102B0000BF90AF909F908F900895FC0182850895AB
:102B100081E0693009F080E00895CF93DF93EC0104
:102B20008A819B81DC01ED91FC910480F581E02D8F
:102B30006A8509958A85813439F4EA81FB81EA58EE
:102B4000FF4F80818B7F80831A861B861C861D86A3
:102B50001E861F86188A80E0DF91CF9108958F929C
:102B60009F92AF92BF92CF92EF920F93A42EB12C6F
:102B7000B22A1F921F921F921F921F921F92812CA6
:102B8000912CC12CE62E01E023E240E0FC0162859D
:102B9000828193810E9482100F900F900F900F906E
:102BA0000F900F900F91EF90CF90BF90AF909F90AC
:102BB0008F9008958F929F92AF92BF92CF92EF9293
:102BC0000F93A62EB12C1F921F923F932F935F93CA
:102BD0004F934A01C12CE12C00E023EA40E0FC01C4
:102BE0006285828193810E9482100F900F900F90D6
:102BF0000F900F900F900F91EF90CF90BF90AF90EC
:102C00009F908F9008958F929F92AF92BF92CF9294
:102C1000EF920F93A42EB12CB22A1F921F921F92F3
:102C20001F921F921F92812C912CC12CE62E03E043
:102C300023E240E0FC016285828193810E94821040
:102C40000F900F900F900F900F900F900F91EF90AB
:102C5000CF90BF90AF909F908F9008952F923F920A
:102C60004F925F926F927F928F929F92AF92BF929C
:102C7000CF92DF92EF92FF920F931F93CF93DF9348
:102C8000CDB7DEB7E8970FB6F894DEBF0FBECDBF65
:102C9000DC011A963C91311107C1122F242E362ED9
:102CA0003C01FC01C280D380D601ED91FC910190E2
:102CB000F081E02D60E0C60109957C01009709F4E0
:102CC000F5C0FC01A080B180A114B10409F4F0C0EA
:102CD0004301F4E08F0E911CDC0111969C928E92C0
:102CE00014961C93FE0131962F018F0128E030E0ED
:102CF00040E060E0D30112968D919C9113970E9461
:102D00005611F70114828111D9C08D81893009F0E3
:102D1000D1C00981D601ED91FC910280F381E02DB3
:102D2000222D41E0632DC6010995F3018287882396
:102D300009F4C2C098859583282F40E060E0828125
:102D400093810E940112182F882389F0D701AD9238
:102D5000BC92D601ED91FC910480F581E02DD30168
:102D60001A966C91C6010995F3011286ABC0202F0B
:102D7000013208F020E2D701AD92BC9221110BC0C4
:102D8000940142E0F3016285828193810E94C30C29
:102D9000811197C010C030E0820140E0D3011A9643
:102DA0006C911A9712968D919C9113970E945611CF
:102DB000811187C0E5CF1F921F925F924F921F92A1
:102DC00088E08F9388E0882E912CA12CB12C99E279
:102DD000C92EE12C06E020EA40E0F3016285828101
:102DE00093810E948210182F0F900F900F900F90D8
:102DF0000F900F90811166C08B81D3011B968C932D
:102E00001B97720100E028E030E040E01A966C91D8
:102E10001A9712968D919C9113970E947D118111A2
:102E200050C02B813C8140E0F30162858281938117
:102E30000E947D11811145C0298130E0CE0181962B
:102E40007C0140E0D3011A966C911A9712968D91ED
:102E50009C9113970E947D11811133C02E8140E017
:102E6000F3016285828193810E946F13811129C0D1
:102E700001E0D3011B968C91801740F020E0402F99
:102E800068E0C3010E9403160F5FF3CFD3011296CF
:102E9000ED91FC911397EA58FF4F80818460808305
:102EA00081E050968C930EC019ED0CC016ED0AC04F
:102EB00017ED08C011ED06C014ED04C0F701B18292
:102EC000A082182F812FE8960FB6F894DEBF0FBEB0
:102ED000CDBFDF91CF911F910F91FF90EF90DF90C9
:102EE000CF90BF90AF909F908F907F906F905F90AA
:102EF0004F903F902F900895CF92DF92FF920F93C3
:102F00001F93CF93DF9300D000D0CDB7DEB78C01F5
:102F1000F62E19821A821B821C8220E0462F61E164
:102F20000E94AF1520E04F2D60E1C8010E94AF154F
:102F300020E04F2D64E0C8010E94031683E0C82EF4
:102F4000D12C9E012F5F3F4F44E050E06F2DC80110
:102F50000E94DA158823F1F020E04F2D64E1C801CA
:102F60000E94AF1520E04F2D60E1C8010E94AF150F
:102F700064E170E080E090E00E94F40A0F900F900E
:102F80000F900F90DF91CF911F910F91FF90DF90E5
:102F9000CF90089589819A81AB81BC819D7F8330D8
:102FA0009140A041B105C1F264E670E080E090E09C
:102FB0000E94F40A81E0C81AD10819F6CDCFFC01AD
:102FC0008AE791E0918380837383628312861386FC
:102FD0001486158616861786108A148288E08583E3
:102FE0009CE3968391E09783808784E081876115D5
:102FF0007105B1F0DB01AA5ABF4F80E090E02D913E
:103000003D91232B49F48B96880F991FDB01A80F64
:10301000B91FED93FC93089501968031910579F7DE
:103020000895EF92FF920F931F93CF938C01C62FB9
:103030007A01FA0180819181A281B3818130F3E02C
:103040009F07F1E0AF07B105D1F060F48115E1E031
:103050009E07AE07B10571F181309140A140B105E5
:1030600071F064C0833021E0920720E1A207B1052E
:10307000E1F183309340A041B105B9F157C080918F
:103080003C03811153C020E04C2F61E1C8010E9434
:10309000AF1520E04C2F60E1C8010E94AF1520E081
:1030A0004C2F64E0C8010E94031681E080933C032A
:1030B00081EB3DC020E0462F61E1C8010E94AF15C1
:1030C00020E04C2F60E1C8010E94AF1510923C0334
:1030D000F80162856770C770660F660F660F6C2B0C
:1030E000828193810E94E00C21C020E04C2F64E19A
:1030F000C8010E94AF1520E04C2F60E1C8010E947A
:10310000AF1564E170E080E090E00E94F40AF801FD
:103110006285F70121812695217067704C2FF80197
:10312000828193810E946C1210923C0380E0CF91C7
:103130001F910F91FF90EF900895CF92DF92EF9241
:103140000F931F93CF93DF93CDB7DEB72E970FB6B4
:10315000F894DEBF0FBECDBF6C0181E090E09E878A
:103160008D87E12C8E010F5F1F4F9E01235F3F4F24
:1031700041E0F6016285828193810E94941381115E
:1031800051C002E011E089818023D1F019861A86AE
:103190001B861C869E01275F3F4F44E050E0612F55
:1031A000C6010E94DA1581110BC0AE01475F5F4F67
:1031B000612FC6010E941118813B99F1811132C023
:1031C000000F1F5F1830F9F611E0F60183858117B3
:1031D00040F119861A861B861C869E01275F3F4F89
:1031E00044E050E0612FC6010E94DA15811117C03A
:1031F00089859A85877091708130914081F48B85A3
:103200009C8581609C878B87AE01475F5F4F612FF4
:10321000C6010E941118813B21F0811103C01F5F7C
:10322000D4CF80E02E960FB6F894DEBF0FBECDBF90
:10323000DF91CF911F910F91EF90DF90CF90089584
:103240000F931F93CF93DF93FC012089211102C0BC
:1032500080E020C0EC010E94F20A0C851D852E85BD
:103260003F85DC01CB01801B910BA20BB30BB7FD9B
:10327000EFCFCE010E949D18182F0E94F20ADC01A8
:10328000CB018C599F4FAF4FBF4F8C879D87AE8727
:10329000BF87812FDF91CF911F910F910895CF9319
:1032A000DF93FC01EB0180819181892B21F18281E7
:1032B000882319F1DA012D913C91232BE1F0A881AB
:1032C000B9819C91A381B0E0A81BB1092081318113
:1032D000A20FB31F9C93828181508283DA018D916A
:1032E0009C91119701978D939C9388819981019668
:1032F00099838883DCCF80E003C08381828381E06F
:10330000DF91CF910895809149040895CF93DF9381
:1033100000D01F92CDB7DEB72091CC05243021F527
:1033200023E029839B838A8382E08093E9008FEFE7
:103330009091E800815095FD06C095ED9A95F1F7C2
:1033400000008111F5CF8091E80085FF0DC040E0BD
:1033500050E063E070E0CE0101960E942A1E809149
:10336000E8008E778093E8000F900F900F90DF9128
:10337000CF910895CF93DF9300D01F92CDB7DEB7E2
:103380002091CC05243061F519821A821B8222E03B
:1033900029838138910520F0805891099B838A8385
:1033A00082E08093E9008FEF9091E800815095FDD5
:1033B00006C095ED9A95F1F700008111F5CF809147
:1033C000E80085FF0DC040E050E063E070E0CE0112
:1033D00001960E942A1E8091E8008E778093E80073
:1033E0000F900F900F90DF91CF9108952091CC0511
:1033F000243051F522E02093E9002FEF3091E800CE
:10340000215035FD06C035ED3A95F1F70000211148
:10341000F5CF2091E80025FF17C02091110122234C
:1034200041F021E02093F10040E050E065E070E0E1
:1034300004C040E050E063E070E00E942A1E8091EA
:10344000E8008E778093E8000895CF93DF93209172
:10345000CC05243049F521E02093E90021E82150F2
:1034600059F03091E80035FD07C0EFE3F1E0319706
:10347000F1F700C00000F3CF2091E80025FF14C051
:10348000EC0140E050E068E070E00E942A1E80916C
:10349000E8008E778093E80088E0FE01A1E4B4E0C4
:1034A00001900D928A95E1F7DF91CF910895CF9326
:1034B000C0913F03C1110BC00E94570B643C79407F
:1034C0008105910520F081E080933F03C1E08C2FBE
:1034D000CF910895FF920F931F93CF93DF93D82F2F
:1034E0000FB607FE83C08091CC05843081F08091B7
:1034F000040190E001962091060130E0822393239D
:103500002091050130E08217930709F0CDC00E9499
:10351000571A811110C08091040190E0019620910A
:10352000060130E0822393232091050130E08217C9
:10353000930709F0B9C00E944B0B8C01C091E900C0
:10354000CF709091EC00892F817090FD80E8C82B9E
:1035500083E08093E90085E0F82E8091EB0085FD03
:1035600042C08091EB0080FF3EC08091EE0087FF5B
:103570003AC08091050190910401981709F457C051
:103580009091E80095FF8EC0E0910201F091030157
:10359000E80FF11D20818F5F9091060189238093B0
:1035A00005012093F1008091E80085FDE2CF809134
:1035B000E80080FFDECF8091E8008E778093E800FE
:1035C000F0920101D6CF8091040190E00196209104
:1035D000060130E0822393232091050130E0821719
:1035E000930709F44CC0CF70C093E90040910401E7
:1035F000842F90E001962091060130E082239323EE
:103600002091050130E08217930709F450C0E09142
:103610000201F0910301E40FF11DD08380910401B8
:103620008F5F9091060189238093040140C08091AF
:10363000E80085FF37C0D093F10021E03091F3001E
:103640008091F20090E0932B892B91F08091E8001B
:1036500080FF0EC08091E80085FF03C01092F1004A
:10366000F9CF8091E8008E778093E800F092010115
:10367000222309F4A8CFCF70C093E90018C080912D
:103680000101882309F4AFCF0E944B0B9C018017E6
:10369000910711F4890161CF9091010191509093AC
:1036A0000101F8CF20E0CACF40910401B0CF80E003
:1036B000DF91CF911F910F91FF9008958091CB05DD
:1036C000811104C00E9496200C94F320089510925A
:1036D000CB050895089542E061EC81E00E94A31DAE
:1036E00042E061EC82E00E94A31D42E261EC83E0D3
:1036F0000C94A31D8091CE05833009F453C030F49F
:10370000813071F0823009F4BAC008958A3009F42A
:10371000A6C08B3009F478C0893009F0C8C020C039
:103720008091CD05813A09F0C2C08091E800877F81
:103730008093E8008091D1059091D205892B21F4E6
:1037400068E081E494E003C060E080E090E070E035
:103750000E94771E8091E8008B778093E80008959F
:103760008091CD05813209F0A2C08091D105909160
:10377000D205892B09F09BC08091E800877F809358
:10378000E8008091E80082FD05C08091CC058111A0
:10379000F8CF8DC08091F100809349048091E800BA
:1037A0008B7781C08091CD05813A09F080C08091EE
:1037B000D1059091D205892BA1F48091E800877FF3
:1037C0008093E8008091E80080FFFCCF8091120197
:1037D0008093F1008091E8008E778093E8000E944A
:1037E000D81D8091D1059091D205019709F05FC055
:1037F0008091E800877F8093E8008091E80080FF57
:10380000FCCF809111014AC08091CD05813209F031
:103810004EC08091D1059091D205892B69F4809199
:10382000E800877F8093E8000E94D81D8091CF0533
:10383000809312010E94BE248091D1059091D205FF
:103840000197A9F58091E800877F8093E8000E94A6
:10385000D81D8091CF05809311010C94BE248091D6
:10386000CD05813221F58091E800877F8093E800C3
:103870000E94D81D8091D00580934A0408958091BC
:10388000CD05813AA1F48091E800877F8093E8001C
:103890008091E80080FFFCCF80914A048093F10082
:1038A0008091E8008E778093E8000C94D81D0895ED
:1038B0008091490480934003109249040E940D2393
:1038C0000C94BE240C94581C0E94AB2E8091400393
:1038D0008093490408950C94641C08950C946D1C05
:1038E0000C946D1CCF9384B7877F84BF0FB6F89478
:1038F000A8958091600088618093600010926000BC
:103900000FBE90E080E80FB6F8948093610090932A
:1039100061000FBE8AE69AE10E94532E87E091E093
:103920000E94FA2188E592E00E9490020E94701C99
:103930000E9460220E9496200E94F32078940E94A8
:1039400062228091CC05843029F00E94DF210E9400
:103950006D1CF7CF86E492E00E9490020E946E1CDC
:1039600088E392E00E949002C3E08091CC0585300C
:1039700019F40E94E808F9CF0E94582E0E9466228E
:103980002091E4003091E50080913D0390913E0349
:103990002817390709F468C08091E4009091E50088
:1039A00090933E0380933D030E94571A882309F4A5
:1039B0005BC08091CC05843009F056C08091E9004D
:1039C0008F702091EC00922F917020FD90E8892B50
:1039D000C093E9009091EB0090FF43C09091EE00FE
:1039E00097FF3FC09091050120910401291709F12B
:1039F0002091E80025FF1DC0E0910201F091030134
:103A0000E90FF11D30819F5F209106019223909371
:103A100005013093F1009091E80095FDE3CF90917E
:103A2000E80090FFDFCF9091E8009E779093E80048
:103A3000D9CF9091F3002091F20030E0392B232B65
:103A400081F09091E80090FF0CC09091E80095FF04
:103A500003C01092F100F9CF9091E8009E77909307
:103A6000E8008F708093E9000E94DF217ECF292F2C
:103A7000332723303105C9F060F42130310581F05E
:103A80002230310509F041C084E590E029EC32E0B4
:103A900040C021323105E1F02232310531F135C02B
:103AA00082E190E02DE133E034C099278130910527
:103AB00049F028F0029749F5EDE7F2E005C0E5ECA2
:103AC000F2E002C0EBEBF2E0849190E09F0121C0B4
:103AD00063307105D0F4660F771FFB01EB56FE4F84
:103AE0002081318189E090E014C06330710568F471
:103AF000FB01EE0FFF1FE157FE4F20813181FB01DB
:103B0000E457FE4F808190E004C080E090E020E028
:103B100030E0FA0131832083089580E189BD82E19C
:103B200089BD09B400FEFDCF8091D8008F7D8093C0
:103B3000D8008091E00082608093E0008091E000F6
:103B400081FDFCCF0895982F973068F59093E90098
:103B5000981739F07091EC002091ED005091F00031
:103B600003C0242F762F50E021FD02C09F5FECCFD1
:103B70003091EB003E7F3093EB003091ED003D7FC4
:103B80003093ED003091EB0031603093EB00709397
:103B9000EC002093ED005093F0002091EE0027FD03
:103BA000E5CF80E008958F708093E90081E008956B
:103BB0008091CD0587FF11C08091E80082FD05C08E
:103BC0008091CC058111F8CF11C08091E8008B77EE
:103BD0000BC08091CC05882349F08091E80080FFDC
:103BE000F8CF8091E8008E778093E80008952091C7
:103BF000E4003091E50095E64091EC00842F81705F
:103C000040FF23C08091E80080FD1DC08091CC055D
:103C1000882399F0853099F08091EB0085FD11C0E3
:103C20004091E4005091E5002417350729F39150A5
:103C300011F09A01E1CF84E0089582E0089583E0D5
:103C4000089581E0089580E008954091E80042FFE2
:103C5000DDCF0895CF92DF92EF92FF920F931F93E3
:103C6000CF93DF93EC018B017A010E94F71D811144
:103C700035C0E114F10439F0F70180819181081B0E
:103C8000190BC80FD91FC12CD12C0115110529F111
:103C90008091E80085FD18C08091E8008E778093C0
:103CA000E8000E94DF21E114F10449F0F70180816E
:103CB0009181C80ED91ED182C08285E00FC00E94BA
:103CC000F71D882311F30AC089918093F1000150F8
:103CD0001109FFEFCF1ADF0AD8CF80E0DF91CF9133
:103CE0001F910F91FF90EF90DF90CF90089520915A
:103CF000D3053091D4052617370748F061157105B3
:103D000039F42091E8002E772093E80001C0B90132
:103D1000FC0120E06115710579F18091CC058823C3
:103D2000F1F18530F1F18091E80083FD3CC0809194
:103D3000E80082FD2EC08091E80080FFEBCF20914B
:103D4000F3008091F20090E0922B6115710551F023
:103D50008830910538F421912093F1006150710968
:103D60000196F3CF21E0089709F020E08091E80068
:103D70008E778093E800CECF2111CFCF0AC08091FB
:103D8000CC05882361F0853061F08091E80083FDE7
:103D90000AC08091E80082FFF2CF80E0089582E0BF
:103DA000089583E0089581E008952091D30530912E
:103DB000D4052617370748F06115710539F42091AD
:103DC000E8002E772093E80001C0B901FC0120E053
:103DD0006115710591F18091CC05882309F440C0EB
:103DE000853009F43FC08091E80083FD3DC080919B
:103DF000E80082FD2FC08091E80080FFE9CF20918C
:103E0000F3008091F20090E0922B6115710559F05A
:103E10008830910540F424912093F100319661504F
:103E200071090196F2CF21E0089709F020E0809116
:103E3000E8008E778093E800CBCF2111CCCF0AC069
:103E40008091CC05882361F0853061F08091E80095
:103E500083FD0AC08091E80082FFF2CF80E00895E0
:103E600082E0089583E0089581E008951F93CF9341
:103E7000DF93CDB7DEB7AA970FB6F894DEBF0FBEBB
:103E8000CDBFEDECF5E08091F100819325E0E53DBB
:103E9000F207C9F70E947A1B8091E80083FF2EC1C8
:103EA0008091CD059091CE05492F50E04A305105C3
:103EB00008F024C1FA01EA5AFF4F0C9456338038B7
:103EC00021F0823809F01AC108C08091C90590918B
:103ED000CA05992389F082600FC08091D1058F7047
:103EE000873008F00BC18093E9008091EB0085FBDF
:103EF000882780F91092E9009091E800977F9093CD
:103F0000E8008093F1001092F100D1C0282F2D7F9E
:103F100009F0F4C0882319F0823061F0EFC080917D
:103F2000CF05813009F0EAC0933009F080E080933A
:103F3000CA052EC08091CF0581112AC08091D1057C
:103F40008F702FEF280F263008F0D8C08093E9003B
:103F50002091EB0020FF1CC0933021F48091EB00F6
:103F6000806214C09091EB0090619093EB0021E08F
:103F700030E0A90102C0440F551F8A95E2F7409333
:103F8000EA001092EA008091EB0088608093EB00D9
:103F90001092E9008091E800877F8093E8000E94FA
:103FA000D81DACC08111AAC01091CF051F77809198
:103FB000E3008078812B8093E3008091E800877F85
:103FC0008093E8000E94D81D8091E80080FFFCCF1C
:103FD0008091E30080688093E300111102C082E0C9
:103FE00001C083E08093CC0589C08058823008F0FE
:103FF00085C08091CF059091D0058C3D53E0950709
:1040000079F583E08A838AE289834FB7F894DE01E9
:10401000139620E03EE051E2E32FF0E0509357008A
:10402000E49120FF03C0E295EF703F5FEF708E2FA9
:1040300090E0EA3010F0C79601C0C0968D939D9332
:104040002F5F243149F74FBF8091E800877F80932D
:10405000E8006AE270E0CE0101960E94771E16C069
:104060006091D1057091D205AE014F5F5F4F0E9404
:10407000371DBC01892B09F441C09091E800977F5E
:104080009093E80089819A810E94D51E8091E80072
:104090008B778093E80032C0803881F58091E8000A
:1040A000877F8093E8008091C8058093F10080911C
:1040B000E8008E7772CF811121C08091CF05909159
:1040C000D00599270297D4F48091E800877F8093E8
:1040D000E8008091CF058093C8050E94D81D80918B
:1040E000C805811106C08091E30087FD02C081E010
:1040F00001C084E08093CC050E946B1B8091E80096
:1041000083FF0AC08091E800877F8093E800809158
:10411000EB0080628093EB00AA960FB6F894DEBFA6
:104120000FBECDBFDF91CF911F9108950E94042152
:104130000E940C21E0EEF0E0808181608083E8ED58
:10414000F0E080818F77808319BCA7EDB0E08C917F
:104150008E7F8C9380818F7E80831092CB05089513
:104160000F931F93CF93DF930E9404210E940C2191
:10417000C8EDD0E088818F778883888180688883C4
:1041800088818F7D888319BC1092CC051092C80558
:104190001092CA051092C90500EE10E0F801808166
:1041A0008B7F808388818160888342E060E080E04B
:1041B0000E94A31DE1EEF0E080818E7F8083E2EE1D
:1041C000F0E0808181608083808188608083F80155
:1041D00080818E7F8083888180618883DF91CF9109
:1041E0001F910F910895E8EDF0E080818F7E80832C
:1041F000E7EDF0E080818160808384E082BF81E030
:104200008093CB050C94B020E8EDF0E080818E7FA8
:1042100080831092E20008951092DA001092E1007B
:1042200008951F920F920FB60F9211242F933F9370
:104230004F935F936F937F938F939F93AF93BF93AE
:10424000EF93FF938091E10082FF0BC08091E20029
:1042500082FF07C08091E1008B7F8093E1000E9484
:10426000DE218091DA0080FF1FC08091D80080FF9E
:104270001BC08091DA008E7F8093DA008091D90094
:1042800080FF0DC080E189BD82E189BD09B400FED7
:10429000FDCF81E08093CC050E945E1B05C019BC58
:1042A0001092CC050E94671B8091E10080FF19C02D
:1042B0008091E20080FF15C08091E2008E7F8093A4
:1042C000E2008091E20080618093E2008091D8005A
:1042D00080628093D80019BC85E08093CC050E9451
:1042E000621C8091E10084FF30C08091E20084FF75
:1042F0002CC080E189BD82E189BD09B400FEFDCFFB
:104300008091D8008F7D8093D8008091E1008F7ECE
:104310008093E1008091E2008F7E8093E2008091A3
:10432000E20081608093E2008091C805882311F04B
:1043300084E007C08091E30087FD02C081E001C0F6
:1043400083E08093CC050E946B1C8091E10083FF89
:1043500024C08091E20083FF20C08091E100877F2C
:104360008093E10082E08093CC051092C805809193
:10437000E1008E7F8093E1008091E2008E7F809348
:10438000E2008091E20080618093E20042E060E020
:1043900080E00E94A31D0E946A1BFF91EF91BF91D4
:1043A000AF919F918F917F916F915F914F913F91CD
:1043B0002F910F900FBE0F901F9018950895CF93D7
:1043C0008091CC058823A1F0C091E900CF70909135
:1043D000EC00892F817090FD80E8C82B1092E900D5
:1043E0008091E80083FD0E94361FCF70C093E900E2
:1043F000CF9108959093500480934F040895E091D5
:104400004F04F0915004309721F00190F081E02D9D
:10441000099480E00895E0914F04F09150043097A2
:1044200021F00280F381E02D099408951F93CF932A
:10443000DF9320914F0430915004232B89F0EC013D
:1044400018810E94E0319881892B8883E0914F0484
:10445000F09150040480F581E02DCE010995188378
:10446000DF91CF911F91089520914D0430914E041A
:104470002817390771F090934E0480934D04E09112
:104480004F04F0915004309721F00680F781E02D21
:104490000994089520914B0430914C042817390752
:1044A00071F090934C0480934B04E0914F04F09191
:1044B0005004309721F00084F185E02D099408958F
:1044C0000C940E230E94420B0C94ED098F929F9244
:1044D000AF92BF92CF92DF92EF92FF920F931F9312
:1044E000CF93DF9300D000D01F92CDB7DEB70E94EC
:1044F000760702E514E0F12C8F2D0E945E084C0136
:10450000F801A080B180A826B926A114B10439F41D
:10451000F3940E5F1F4FF0E1FF12EECF39C0809190
:10452000BD0581FD0E948B08E12CCC24C394D12CC5
:10453000C5018C219D21892B21F1E982FA8221E09C
:10454000C4018C219D21892B09F420E02B830E943A
:104550004B0B8160782F9D838C8349815A816B81BD
:104560008D810E94112349815A816B817C818D81CB
:104570000E945A2EF801808191818C259D2591837E
:104580008083E394CC0CDD1CF0E1EF12D1CFC0CFDF
:104590008FEF89838A831B820E944B0B8160782F67
:1045A0009D838C8349815A816B818D810E94112367
:1045B0000E94592E0E942F310E94FF219091510498
:1045C0008917B9F00E94FF21809351040F900F903A
:1045D0000F900F900F90DF91CF911F910F91FF904F
:1045E000EF90DF90CF90BF90AF909F908F900C9402
:1045F0006B2E0F900F900F900F900F90DF91CF9137
:104600001F910F91FF90EF90DF90CF90BF90AF90F0
:104610009F908F9008950C948C08089508950895A4
:104620000895CF93DF93CDB7DEB72B970FB6F894ED
:10463000DEBF0FBECDBF942F4F83252F58876987CC
:104640007A878B874A855B85452B31F02F3F31F484
:1046500081E09F3F19F403C081E001C080E080FD4C
:1046600007C04F81588569857A858B850E945A2EAF
:10467000DE01119686E0FD0111928A95E9F785E049
:10468000FE01379601900D928A95E1F749815A8192
:104690006B817C818D819E810E94D72A2B960FB6DB
:1046A000F894DEBF0FBECDBFDF91CF910895CF93B9
:1046B000DF93882309F4E8C09EE7980F933018F53C
:1046C000823829F0833831F0C4E0D7E405C0C2E075
:1046D000D9E302C0C1E0D3E50E94FF218C2309F099
:1046E000D3C08D2F0E94B52D0E942D2E2FEF81EE6D
:1046F00094E0215080409040E1F700C000008D2FF1
:104700000E94D22D06C09CEF980F913A30F40E947F
:10471000B52DDF91CF910C942D2E90E2980F98300B
:1047200050F4877091E001C0990F8A95EAF7892FBC
:104730000E94F32DEECF9BE5980F933080F4853ADD
:1047400029F0863A31F083E890E005C081E890E0F6
:1047500002C082E890E0DF91CF910C94342298E57A
:10476000980F973108F090C0883A09F445C0893A0B
:1047700009F445C08A3A09F445C08B3A09F445C0AA
:104780008C3A09F445C08D3A09F445C08E3A09F4D3
:1047900045C08F3A09F445C0813B09F445C0803BD0
:1047A00009F445C0823B09F445C0833B09F445C088
:1047B000843B09F445C0853B09F445C0863B09F4B8
:1047C00045C0873B09F445C0883B09F445C0893B97
:1047D00009F445C08A3B09F445C08B3B09F445C048
:1047E0008C3B09F445C08D3B09F445C08E3B09F470
:1047F00045C080E090E044C082EE90E041C089EE88
:1048000090E03EC08AEE90E03BC085EB90E038C07F
:1048100086EB90E035C083EB90E032C084EB90E013
:104820002FC087EB90E02CC08CEC90E029C08DEC81
:1048300090E026C083E891E023C08AE891E020C0A0
:1048400082E991E01DC084E991E01AC081E292E022
:1048500017C083E292E014C084E292E011C085E2C6
:1048600092E00EC086E292E00BC087E292E008C0C0
:104870008AE292E005C08FE690E002C080E790E017
:10488000DF91CF910C944A22DF91CF910895CF937D
:10489000DF93882309F44FC09EE7980F933000F50B
:1048A000823829F0833831F0C4E0D7E405C0C2E093
:1048B000D9E302C0C1E0D3E50E94FF218C23D9F1E6
:1048C0008D2F0E94B52D0E942D2E2FEF81EE94E0AA
:1048D000215080409040E1F700C000008D2F04C0BF
:1048E0009CEF980F913A18F40E94D22D0DC090E2DF
:1048F000980F983068F4877091E001C0990F8A95FD
:10490000EAF7892F0E94F92DDF91CF910C942D2E7B
:104910009BE5980F933030F480E090E0DF91CF91E9
:104920000C943422885A873130F480E090E0DF9193
:10493000CF910C944A22DF91CF910895882321F0E2
:104940000E94F32D0C942D2E0895882321F00E94AF
:10495000F92D0C942D2E08950E94132E0E94E22D05
:104960000E942D2E0E94D4310E94A23080E090E05F
:104970000E94342280E090E00C944A220E94032E90
:104980000C94AC24CF92DF92EF92FF920F931F937F
:10499000CF93DF9300D000D01F92CDB7DEB76C016C
:1049A0000E943203811118C385E0F601DE011196E1
:1049B00001900D928A95E1F7F601408151812381A2
:1049C00034812115310531F05F3F31F481E04F3FF3
:1049D00019F403C081E001C080E080FDFDC2F60152
:1049E000F280E580E2948FE0E82249835A83FB82DB
:1049F000722F3D832C836F2D8D810E94312D8C0170
:104A00000E94302D0E942A2CE12FE295EF708E2F0C
:104A100090E0FC01E05AFF4F0C945633812F807FC9
:104A20001F70882311F01295107FFF20B9F0112319
:104A300029F0812F0E94062E0E942D2E802F0F908C
:104A40000F900F900F900F90DF91CF911F910F91CA
:104A5000FF90EF90DF90CF900C945723802F0E940F
:104A60004724112309F4B8C2812F0E940C2E0F9005
:104A70000F900F900F900F90DF91CF911F910F919A
:104A8000FF90EF90DF90CF900C942D2E812F807FA0
:104A90001F70803211F01295107F002319F0013041
:104AA00009F12BC0FF20A9F0EE2059F1F1E0812F90
:104AB000EF1228C00F900F900F900F900F90DF9182
:104AC000CF911F910F91FF90EF90DF90CF900C94BA
:104AD000162EEE2021F021E0E21609F47DC20E949C
:104AE000192E4DC0FF20E9F085E08E1508F474C240
:104AF0000E94F02D812329F042C0FF20F1F1E11046
:104B000015C0812F0F900F900F900F900F90DF9195
:104B1000CF911F910F91FF90EF90DF90CF900C9469
:104B20009E2494E09E1508F457C229C0F6018581A1
:104B300080FF13C08F708583E4CF003F09F489C1E3
:104B400008F055C180E4800F803208F459C1FF207D
:104B500009F4EAC1EE2009F49AC1802F0E9457237C
:104B6000093309F0DAC1FFEF21EE84E0F150204073
:104B70008040E1F700C000002FC2E110D7C1812FB3
:104B800059C1812F86958695837019F08130B9F0CF
:104B900023C2FF2019F0C801937002C080E090E0AA
:104BA0000F900F900F900F900F90DF91CF911F916A
:104BB0000F91FF90EF90DF90CF900C943422FF2064
:104BC00019F0C801937002C080E090E00F900F9040
:104BD0000F900F900F90DF91CF911F910F91FF9049
:104BE000EF90DF90CF900C944A22802FFF2019F095
:104BF0000E94B52F02C00E941D300F900F900F90A1
:104C00000F900F90DF91CF911F910F91FF90EF9038
:104C1000DF90CF900C94A230812F837009F070C088
:104C2000F110DAC1202F229526952770220F220F2E
:104C3000602F6F70862F90E0A0E0B0E06C017D01E6
:104C4000022E04C0CC0CDD1CEE1CFF1C0A94D2F713
:104C500004FF12C08FE090E0A0E0B0E004C0880F35
:104C6000991FAA1FBB1F2A95D2F7BC01CD016095E1
:104C700070958095909503C060E070E0CB0116952B
:104C8000169513701230B1F040F56C297D298E29EC
:104C90009F29113031F10F900F900F900F900F90CE
:104CA000DF91CF911F910F91FF90EF90DF90CF9008
:104CB0000C94452C6C297D298E299F290F900F90EB
:104CC0000F900F900F90DF91CF911F910F91FF9058
:104CD000EF90DF90CF900C945F2C0E94452CC70181
:104CE000B6010F900F900F900F900F90DF91CF9122
:104CF0001F910F91FF90EF90DF90CF900C942B2C91
:104D0000FF2019F0812F817001C08695882309F456
:104D100063C1202F229526952770220F220F602F26
:104D20006F70862F90E0A0E0B0E06C017D01022E54
:104D300004C0CC0CDD1CEE1CFF1C0A94D2F704FF4F
:104D400012C08FE090E0A0E0B0E004C0880F991F8F
:104D5000AA1FBB1F2A95D2F7BC01CD0160957095A3
:104D60008095909503C060E070E0CB011695169594
:104D700013701230B1F040F56C297D298E299F29DE
:104D8000113031F10F900F900F900F900F90DF9135
:104D9000CF911F910F91FF90EF90DF90CF900C94E7
:104DA0000C2D6C297D298E299F290F900F900F9033
:104DB0000F900F90DF91CF911F910F91FF90EF9087
:104DC000DF90CF900C941E2D0E940C2DC701B601D0
:104DD0000F900F900F900F900F90DF91CF911F9138
:104DE0000F91FF90EF90DF90CF900C94FA2C023F40
:104DF00009F45EC008F449C0033F09F46CC0A7CEB3
:104E0000902F9071E92E812F8F71FF2051F00E9419
:104E1000932C802FEE2019F08295807F73CE8F70B7
:104E200071CE0E94B42C802FEE2019F08295807FE5
:104E300001C08F700F900F900F900F900F90DF9127
:104E4000CF911F910F91FF90EF90DF90CF900C9436
:104E5000A524FF20A9F0E4E0EE1508F4BDC0812FE1
:104E60008F710F900F900F900F900F90DF91CF9157
:104E70001F910F91FF90EF90DF90CF900C94D92C61
:104E8000F5E0FE1508F4A8C0EACFFF2099F0812FC5
:104E90008F710F900F900F900F900F90DF91CF9127
:104EA0001F910F91FF90EF90DF90CF900C94932C77
:104EB000FF2069F3812F8F710F900F900F900F904B
:104EC0000F90DF91CF911F910F91FF90EF90DF90A6
:104ED000CF900C94B42CFF2089F0812F8F710F900C
:104EE0000F900F900F900F90DF91CF911F910F9126
:104EF000FF90EF90DF90CF900C947E2C0F900F904E
:104F00000F900F900F90DF91CF911F910F91FF9015
:104F1000EF90DF90CF900C94792C033509F423CED9
:104F2000073409F059C01FCEEE2021F2802F0F90D8
:104F30000F900F900F900F90DF91CF911F910F91D5
:104F4000FF90EF90DF90CF900C944724412F4F704B
:104F5000602FC6010E942F2F0F900F900F900F907F
:104F60000F90DF91CF911F910F91FF90EF90DF9005
:104F7000CF900C94852B01112FC0FF2069F10E9466
:104F8000BE242FEF80E792E0215080409040E1F76F
:104F900000C000000F900F900F900F900F90DF91C6
:104FA000CF911F910F91FF90EF90DF90CF900C94D5
:104FB000D82E412F4F70602FC6010F900F900F9089
:104FC0000F900F90DF91CF911F910F91FF90EF9075
:104FD000DF90CF900C94322F0F900F900F900F9086
:104FE0000F90DF91CF911F910F91FF90EF90DF9085
:104FF000CF9008951F93CF93DF9300D000D01F92DE
:10500000CDB7DEB7942F4983252F5A836B837C83DA
:105010008D834C815D81452B31F02F3F31F481E050
:105020009F3F19F403C081E001C080E0182F117088
:1050300080FD24C049815A816B817C818D810E94D1
:10504000312D292F22952F702C3030F42A3048F43E
:105050002250223068F013C02C3061F02F3051F014
:105060000EC0803C28F0803E50F0815F833038F0E5
:1050700011E005C093FB112710F901C010E0812F4A
:105080000F900F900F900F900F90DF91CF911F9185
:105090000895CF93DF9300D000D01F92CDB7DEB735
:1050A0000F900F900F900F900F90DF91CF91089578
:1050B000CF93DF9300D000D000D0CDB7DEB72696D7
:1050C0000FB6F894DEBF0FBECDBFDF91CF9108952C
:1050D0001F93CF93DF93C091720416E08091730405
:1050E000C81799F0D0E01C9FF0011D9FF00D11240E
:1050F000EC58FB4F4081518162817381848195819D
:105100000E9458282196C770E9CFDF91CF911F9157
:1051100008954091A4045091A5046091A604709153
:10512000A7048091A8049091A9040C9458280F9387
:105130001F93CF93DF938091A90482958F7009F01C
:105140005DC08091A604882309F458C08091720440
:10515000109173046091A4047091A504C091A704F8
:10516000D091A80491E06F3F09F090E0292F06E06C
:10517000811709F443C0209721F07F3F21F030E0F0
:1051800003C031E001C0322F90E030FD34C0089FF1
:10519000F001099FF00D1124DF01AC58BB4F1196AF
:1051A0003C911197371327C03C91361324C01296B7
:1051B0003C91129731111FC013964D915C91149739
:1051C0004C1B5D0B483C5105B0F48091A9048F70D5
:1051D00080618093A904E758FB4F80818F708061C4
:1051E000808384EA94E00E94C224DF91CF911F91D2
:1051F0000F910C94682801968770BACFDF91CF91F8
:105200001F910F9108959F92AF92BF92CF92DF921C
:10521000EF92FF920F931F93CF93DF93CDB7DEB73B
:1052200061970FB6F894DEBF0FBECDBF8C0185E04D
:10523000F801DE011D9601900D928A95E1F7F801C3
:1052400040815181F280C380D4809091A404609108
:10525000A5042091A7043091A8042115310531F04F
:105260006F3F31F481E09F3F19F403C081E001C03A
:1052700080E0F82FF1709F2E80FD52C184EAA82EA5
:1052800084E0B82EE090A604F601E21BF30BEE20BA
:1052900009F4E8C08091A904E83CF10508F0A4C035
:1052A000282F207F09F053C0561313C0491311C093
:1052B000EF2CF1100EC08F7080618093A9040E94C2
:1052C0008928C5010E94C2248091A904F801858320
:1052D0005BC1C114D10431F05F3F31F481E04F3F35
:1052E00019F403C081E001C080E080FD03C081E0CB
:1052F0008F2502C080E090E0F82FF170EF2E80FF44
:105300001CC0809172042091730436E0821709F466
:1053100018C190E0389FF001399FF00D1124EC582E
:10532000FB4F6181561306C06081461303C0628142
:10533000F61203C001968770E9CFEF2CFF2009F425
:1053400023C18091A90481608093A90462C056138F
:1053500006C0491304C0F11002C0F801A7C04D8770
:105360005E87FF867C2DD98AC88A6F2D89890E9425
:10537000FA27882399F1FF2089F12091A904822F2F
:1053800082958F7090E0029774F08091A4049091C0
:10539000A50498878F831986DB86CA862C87CE0161
:1053A00007960E94C22486E0F801A4EAB4E00190C6
:1053B0000D928A95E1F70E9497280E94892811C0D2
:1053C000561749F14D875E87FF867C2DD98AC88A9A
:1053D0006F2D89890E94FA2781112CC0C8010E9473
:1053E000C224EE24E394D0C0282F207F49F77C2DDF
:1053F000D98AC88A6F2D89890E94492884EA94E055
:105400000E94C22486E0F50111928A95E9F70E9474
:105410008928E12CB9C04913D5CFF110D3CFF801B9
:105420008583C8010E94C22486E0F50111928A9505
:10543000E9F7AAC0FF2091F22091A904822F82955A
:105440008F7090E002970CF4AECF8091A4049091FD
:10545000A5049A8389831B82DD82CC822E83CE01B0
:1054600001969FCFE83CF10508F04BC0EF2CFF20E0
:1054700009F4B4CF561330C049132EC02091A904AB
:1054800020FD21C0822F82958F70482F50E041155A
:105490005105C9F0F80125834F30510541F08F5F68
:1054A000982F9295907F822F8F70892B8583C801CA
:1054B0000E94C22486E0F801A4EAB4E001900D92B3
:1054C0008A95E1F72AC086E0F801A4EAB4E00190E9
:1054D0000D928A95E1F758C04D875E87FF867C2D37
:1054E000D98AC88A6F2D89890E94FA2781115BCFDA
:1054F0008091A90481608093A904C8010E94C224FC
:1055000043C07C2DD98AC88A6F2D89890E94492879
:1055100086E0F50111928A95E9F70E94892834C046
:10552000FF2009F45BCF4D875E87FF867C2DD98AEB
:10553000C88A6F2D89890E94FA27882309F44ECFE3
:1055400032CF7C2DD98AC88A6F2D89890E94312D4E
:10555000292F22952F70223028F49F7039F0811165
:1055600005C00BC0243028F49F7049F4805E883059
:1055700020F0C8010E94C2249E2CE92C05C0F8012D
:105580009581907F99F7F9CF8E2D61960FB6F8949B
:10559000DEBF0FBECDBFDF91CF911F910F91FF9066
:1055A000EF90DF90CF90BF90AF909F9008951F93A2
:1055B000CF93DF93CDB7DEB72C970FB6F894DEBF4D
:1055C0000FBECDBF4F83588769877A878B879C87AB
:1055D000CE0107960E9403298823D1F09F818885F8
:1055E0002A853B85232B31F08F3F31F481E09F3FAB
:1055F00019F403C081E001C080E080FD47C04F8105
:10560000588569857A858B859C850E9458283EC07F
:1056100086E0FE013796DE01119601900D928A9583
:10562000E1F7FF81E8856A857B856115710531F0B9
:10563000EF3F31F481E0FF3F19F403C081E001C086
:1056400080E080FD23C02091730430E0C901019601
:10565000877099274091720450E084179507F1F103
:10566000F983EA837D836C8396E0929FD001939FB8
:10567000B00D1124AC58BB4FFE01319601900D9234
:105680009A95E1F7809373040E94682816E0809150
:10569000720490917304891771F1189FC00111244D
:1056A0008C589B4F0E940329882329F1E0917204B2
:1056B0001E9FF0011124EC58FB4F40815181628103
:1056C0007381848195810E9458288091720490E0B2
:1056D00001968770992780937204D9CF0E94BE24C7
:1056E0001092730410927204E4EAF4E086E0DF01A1
:1056F0001D928A95E9F72C960FB6F894DEBF0FBE7F
:10570000CDBFDF91CF911F910895DF92EF92FF926D
:105710000F931F93CF93DF93FC01892B09F488C06B
:10572000E12CF12CDD24D394EF012196849185376F
:1057300009F460C058F4843708F04EC0843008F093
:1057400068C08130D1F0823071F172C0883709F4BD
:105750005BC050F4863709F453C0873709F068C03E
:105760008E2D0E94002E52C09CE7980F903708F0B3
:105770005FC08F770E9447244EC08F010E5F1F4F7E
:10578000FE01849190E2980F983050F48770FD2DBF
:1057900001C0FF0F8A95EAF78F2F0E94062E15C0D1
:1057A0000E94572314C08F010E5F1F4FFE0184918A
:1057B00090E2980F983068F48770FD2D01C0FF0FBC
:1057C0008A95EAF78F2F0E940C2E0E942D2EE80159
:1057D00022C00E944724FBCFCF010296FE01C49154
:1057E000CC2361F0EFE9FFE03197F1F700C0000052
:1057F000C150F6CFCF010296FE01F490EC010BC030
:105800000E94F02DE82E07C00E94032E0E942D2E2C
:1058100002C00E9457238F2D882341F0EFE9FFE05B
:105820003197F1F700C000008150F6CFFE017CCF28
:10583000DF91CF911F910F91FF90EF90DF9008952E
:105840006093AA057093AB058093AC059093AD056A
:105850000C946A2E08950F931F930091AE0510913A
:10586000AF052091B0053091B105602B712B822BD3
:10587000932B6093AE057093AF058093B005909322
:10588000B1051F910F910C94692E0F931F930091F6
:10589000AE051091AF052091B0053091B1056023A0
:1058A0007123822393236093AE057093AF05809399
:1058B000B0059093B1051F910F910C94692E0F9331
:1058C0001F930091AE051091AF052091B005309166
:1058D000B10560277127822793276093AE057093E7
:1058E000AF058093B0059093B1051F910F910C9473
:1058F000692E60E070E0CB010C94202C0F931F9375
:1059000041E050E060E070E08A019B0104C0000FBC
:10591000111F221F331F8A95D2F7C901B8011F91A9
:105920000F910C94202C0F931F9341E050E060E006
:1059300070E004C0440F551F661F771F8A95D2F789
:105940008091AA059091AB05A091AC05B091AD05F1
:105950008A019B01082B192B2A2B3B2BC901B8016B
:105960001F910F910C94202C0F931F9341E050E056
:1059700060E070E004C0440F551F661F771F8A95D2
:10598000D2F740955095609570958091AA059091B9
:10599000AB05A091AC05B091AD058A019B01082330
:1059A00019232A233B23C901B8011F910F910C949D
:1059B000202C0F931F9341E050E060E070E004C0A2
:1059C000440F551F661F771F8A95D2F78091AA054D
:1059D0009091AB05A091AC05B091AD058A019B01FA
:1059E000082719272A273B27C901B8011F910F91C2
:1059F0000C94202C0F931F930091AA051091AB05D6
:105A00002091AC053091AD05602B712B822B932B2F
:105A10001F910F910C94202C0F931F930091AA05B6
:105A20001091AB052091AC053091AD056023712339
:105A3000822393231F910F910C94202C0F931F937B
:105A40000091AA051091AB052091AC053091AD05F0
:105A500060277127822793271F910F910C94202C88
:105A600008958F929F92AF92BF92DF92EF92FF9232
:105A70000F931F93CF93DF9300D000D01F92CDB729
:105A8000DEB76B837C838D838A018C819D81892B1A
:105A900031F01F3F31F481E04F3F19F403C081E042
:105AA00001C080E080FF03C080E090E04DC08B81AA
:105AB0008823D1F18090AA059090AB05A090AC0509
:105AC000B090AD058091AE059091AF05A091B00565
:105AD000B091B105882A992AAA2ABB2A8FE1E82E1B
