:100000000C942A030C947C030C947C030C947C03C6
:100010000C947C030C947C030C947C030C947C0364
:100020000C947C030C947C030C94942D0C94662EFD
:100030000C9481280C947C030C947C030C947C031A
:100040000C947C030C947C030C947C030C947C0334
:100050000C947C030C94F5280C947C030C947C0386
:100060000C947C030C947C030C947C030C947C0314
:100070000C947C030C947C030C947C030C947C0304
:100080000C947C030C947C030C947C030C947C03F4
:100090000C947C030C947C030C947C030C947C03E4
:1000A0000C947C030C947C030C947C03720A740AF9
:1000B0007F0A760A780A7A0A7C0A7E0A810A830A0B
:1000C000850A900A870A890A8B0A8D0A8F0A920A82
:1000D000E41EE41E161F161F541F9620962096201D
:1000E000721F9620152015208620962096208F209E
:1000F00022202220222022202220222022202220F0
:1001000022202220222022202220222022202220DF
:100110003320412048204F205920232123213521FD
:1001200035212C2135213521352123212321312150
:10013000352135213121D32EFA2EF22FFA2EF22F2E
:10014000462F692FF22FC02FCF2F00000000000094
:1001500000000400050006000700080009000A006E
:100160000B000C000D000E000F001000110012001B
:1001700013001400150016001700180019001A00CB
:100180001B001C001D001E001F002000210022007B
:1001900023002400250026002700280029002A002B
:1001A0002B002C002D002E002F00300031003200DB
:1001B0003300340035003600370038006F003A0055
:1001C0003B003C003D003E003F004000410042003B
:1001D00043004400450046004700850049004A00AE
:1001E0004B004C004D004E004F005000510052009B
:1001F0008C005400550056005700580059005A0012
:100200005B005C005D005E005F00600061006200FA
:10021000630064008A00A5006700680069006A0046
:100220006B006C006D006E006F00700071000000CC
:1002300073007400750076007700780079007A000A
:100240007B007C007D007E00A800A900AA000000C1
:1002500000000000850000008700880089008A00F7
:100260008B000000000000000000900091000000E2
:10027000000000000000000000000000000000007E
:10028000000000000000000000000000000000006E
:10029000000000000000000000000000000000005E
:1002A000000000000000000000000000000000004E
:1002B000000000000000000000000000000000003E
:1002C000000000000000000000000000000000002E
:1002D000000000000000000000000000000000001E
:1002E000000000000000000000000000000000000E
:1002F00000000000000000000000000000000000FE
:10030000000000000000000000009100880087004D
:1003100090008B0089009300920000000000000014
:1003200000000000000000000000000000000000CD
:1003300000000000000000000000000000000000BD
:1003400000000000000000000000000000000000AD
:100350000000010001000100010001000100010096
:100360000100010001000100010001000100010085
:100370000100010001000100010001000100010075
:100380000100010001000100010001000100010065
:100390000100010001000100010001000100010055
:1003A0000100010001000100010001000100010045
:1003B0000100010001000100010001000100010035
:1003C0000100010001000100010001000100010025
:1003D0000100010001000100010001000100010015
:1003E0000100010001000100010001000100010005
:1003F00001000100010001000100010001000100F5
:1004000001000100010001000100010001000100E4
:1004100001000100010001000100010001000100D4
:1004200001000100010001000100010001000100C4
:1004300001000100010001000100010001000100B4
:1004400001000100010001000100010001000000A5
:100450000000000001000000010001000100010097
:100460000100000000000000000001000100000089
:10047000000000000000000000000000000000007C
:10048000000000000000000000000000000000006C
:10049000000000000000000000000000000000005C
:1004A000000000000000000000000000000000004C
:1004B000000000000000000000000000000000003C
:1004C000000000000000000000000000000000002C
:1004D000000000000000000000000000000000001C
:1004E000000000000000000000000000000000000C
:1004F00000000000000000000000000000000000FC
:1005000000000000000000000000010001000100E8
:1005100001000100010001000100000000000000D6
:1005200000000000000000000000000000000000CB
:1005300000000000000000000000000000000000BB
:100540000000000000000000000004033000000074
:100550002C0351004D004B00200055005300420079
:100560002D00550053004200200043006F006E0034
:1005700076006500720074006500720000000803D8
:1005800051004D004B0000000403090409023B0028
:10059000020100A0FA090400000103010100092181
:1005A000110100012240000705810308000A090427
:1005B00001000103000000092111010001223600A1
:1005C0000705820320000A1201100100000008ED57
:1005D000FE5B0001000102030105010980A1018504
:1005E000031601002603001A81002A830075109566
:1005F000018100C0050C0901A10185041601002636
:100600009C021A01002A9C02751095018100C00508
:10061000010906A101050719E029E7150025019543
:1006200008750181029501750881010508190129E4
:10063000059505750191029501750391010507194D
:100640000029FF150026FF00950675088100C000EF
:100650003909D70D11241FBECFEFDAE0DEBFCDBFC1
:1006600004B603FE27C08091070490910804A0916E
:100670000904B0910A048730904BA740B04BD1F4E5
:1006800010920704109208041092090410920A04B0
:1006900014BE84B7877F84BF0FB6F894A895809165
:1006A0006000886180936000109260000FBEE0E0FF
:1006B000F8E3099511E0A0E0B1E0E0E9F3E602C05B
:1006C00005900D92A637B107D9F724E0A6E7B1E06F
:1006D00001C01D92A730B207E1F713E0CAE2D3E0F0
:1006E00004C02197FE010E947E31C832D107C9F7AC
:1006F0000E94BE2A0C94C6310C94000080E008953C
:10070000089580E0089581E00895CF93DF93CDB7F9
:10071000DEB728970FB6F894DEBF0FBECDBFE22F2D
:1007200029833A834B835C836D837E838F83988791
:100730008091AE02E82BE093AE02FE013396AE014B
:10074000475F5F4F2191243088F0A0EBB2E080E05A
:1007500090E03D91311106C0DC01A255BD4F1296CB
:100760002C9304C001968630910599F7E417F5079C
:1007700049F728960FB6F894DEBF0FBECDBFDF91C4
:10078000CF910895860F911D860F911DFC0156870C
:10079000458781E00895CF93DF93EC018C819D81A3
:1007A000DC01ED91FC910480F581E02D6E810995CD
:1007B0001F86188A81E08A8B1E821B8A1C8A1D8AEA
:1007C0001E8A1F8A80E0DF91CF910895FC01868107
:1007D000089581E0633009F080E0089581E06130A0
:1007E00009F080E00895860F911D860F911DFC0190
:1007F000858596850895FC0187890895EF92FF927B
:10080000CF93DF93DC01E70152968C9152978230AF
:1008100049F11F966C931F9750964C9350979B816C
:1008200093709330F9F49A8197FF1CC09E8158967B
:100830002C915897291718F458969C935897E82F9D
:10084000F0E09F01220F331FE20FF31FEA0FFB1F9F
:100850009A819F7097839C81908794E091878F5FA6
:1008600052968C93DF91CF91FF90EF900895EF9285
:10087000FF920F9302970E94FE030F91FF90EF905B
:1008800008950895DF92EF92FF920F931F93CF93F5
:10089000DF93CDB7DEB762970FB6F894DEBF0FBE19
:1008A000CDBFDC0157962C91222381F07C010E9460
:1008B000E80DF7010389148925893689DC01CB010C
:1008C000801B910BA20BB30BB7FF02C0D12C39C018
:1008D000838590E09A8B898B8E010F5F1F4F9E015D
:1008E0002F5E3F4F42856681848195810E944A1622
:1008F000D82E811118C029893A892330310598F002
:10090000D7011D968D919C911E97009761F0DC0197
:10091000ED91FC910190F081E02D8E010F5F1F4F52
:1009200040E0B70109950E94E80DF701208DDC0138
:10093000CB01820F911DA11DB11D838B948BA58BC3
:10094000B68B8D2D62960FB6F894DEBF0FBECDBF6D
:10095000DF91CF911F910F91FF90EF90DF9008955D
:100960003F924F925F926F927F928F929F92AF923F
:10097000BF92CF92DF92EF92FF920F931F93CF938C
:10098000DF93CDB7DEB7EC970FB6F894DEBF0FBE9E
:10099000CDBFDC0116963C9131113BC1522E342E55
:1009A000462E5C01FC0184809580108ED401ED916F
:1009B000FC910190F081E02D60E0C40109957C017B
:1009C000009711F486ED2AC1FC01608071806114EA
:1009D000710409F420C16501F7E0CF0ED11CDC01E0
:1009E0001196DC92CE9214965C928E01065D1F4F9A
:1009F00028E030E040E060E0F501848195810E94CC
:100A00000C148CAF8111F8C01AA5D7016D927C929D
:100A1000D401ED91FC910280F381E02D232D40E083
:100A2000642DC4010995F5018683882309F4F5C076
:100A300099A99087282F40E060E0848195810E94E9
:100A4000B7148CAFD401ED91FC91D70114961C9290
:100A5000882359F00480F581E02DD50116966C911C
:100A6000C4010995F5011682D2C00190F081E02DF4
:100A7000D50116966C91C4010995FC01892B09F4E6
:100A8000A1CF912F133108F092E15482992369F09C
:100A9000292F30E08E01065D1F4F40E0F501668191
:100AA000848195810E940C148CAF8CAD8111A7C0FC
:100AB0004BAC512C41E1842E41E0942E3501F2E003
:100AC0006F0E711C7E0181E1E80EF11C541449F196
:100AD0009A8289827C826B821E86188A1F8619A25E
:100AE0001AA21BA219A6FF82EE82F986E8868D81E2
:100AF0008B878A87FD86EC868E010F5F1F4F252D21
:100B000040E0D50116966C91169714968D919C91A4
:100B100015970E945A14F5018289823011F053947E
:100B2000D5CFD50152968C91823019F081ED8CAFE2
:100B300066C0960142E0F5016681848195810E943C
:100B4000630F8CAF68EE73E080E090E00E94EA0DE6
:100B5000D5011F962C911F9740E016966C91169721
:100B600014968D919C9115970E9425168CAF81113A
:100B700046C068EE73E080E090E00E94EA0D40E03D
:100B800060E0C5010E9418188CAF811138C020E0C8
:100B900040E060E0C5010E94EE178CAF87E191E074
:100BA0009A838983AE014F5F5F4F60E070E0C501BB
:100BB0000E947E1780E28CAF8CAD8823C1F090E05C
:100BC000959587958CAFFE01FC966F01EE24E3941A
:100BD000F12C00E022E040E060E0C5010E94C11776
:100BE00069E170E080E090E00E94EA0DE5CF91E0DD
:100BF000D50157969C9312C0F70171826082D5018E
:100C0000ED91FC910480F581E02DC50109958CAD35
:100C100005C089ED03C087ED01C084EDEC960FB6E9
:100C2000F894DEBF0FBECDBFDF91CF911F910F9122
:100C3000FF90EF90DF90CF90BF90AF909F908F90FC
:100C40007F906F905F904F903F900895CF93DF9388
:100C50006091AE017091AF01E0917D01F0917E0154
:100C60004091A2015091A3012091960130919701EA
:100C700080918A0190918B016E177F07B1F4E0910A
:100C80007B01F0917C014E175F0779F4E0917901C7
:100C9000F0917A012E173F0741F4E0917701F0912E
:100CA00078018E179F0709F463C070937E016093EB
:100CB0007D0150937C0140937B0130937A01209316
:100CC00079019093780180937701EEEAF2E088E071
:100CD000DF011D928A95E9F72091A6013091A701C5
:100CE0004091A8015091A9016091AA017091AB01B6
:100CF0008091AC019091AD010E94850320919A01F1
:100D000030919B0140919C0150919D0160919E0109
:100D100070919F018091A0019091A1010E94850393
:100D200020918E0130918F0140919001509191015D
:100D3000609192017091930180919401909195013D
:100D40000E948503209182013091830140918401AA
:100D50005091850160918601709187018091880191
:100D6000909189010E94850381E08093AD0202C0C9
:100D70001092AD020E94B328EC0186E392E00E943B
:100D80008116CE010E94CB2886E392E00E94430F99
:100D900090917601891761F086E392E00E94430FFB
:100DA00080937601803921F40E946A1C0E947C1D88
:100DB00081E0DF91CF910895482F80E1489F900115
:100DC0001124205E31092830310538F49091AE02AB
:100DD000992319F0892F90E002C080E090E0E0EBC9
:100DE000F2E061E070E02191243070F0322F329512
:100DF0003F70431309C02F70DB0102C0AA0FBB1F55
:100E00002A95E2F78A2B9B2BB2E0E63BFB0759F7CA
:100E100008950895CF92DF92EF92FF920F93CF93B0
:100E2000DF931F92CDB7DEB78983CE0101966C01A7
:100E3000EE24E394F12C00E022E040E060E08BEF50
:100E400091E00E94C11722E040E060E082EE91E074
:100E50000E94C11722E040E060E089EC91E00E942E
:100E6000C11722E040E060E080EB91E00E94C117F2
:100E700089810E94AD090F90DF91CF910F91FF9072
:100E8000EF90DF90CF900895FC01758364838DE12E
:100E900091E0918380838BE391E093838283138A33
:100EA000148A158A168A178A178288E080878CE34D
:100EB00081871286138684E0848781E0828B118A81
:100EC00017861686158661157105B1F0DB01AA5AE1
:100ED000BF4F80E090E02D913D91232B49F48B96FC
:100EE000880F991FDB01A80FB91FED93FC9308959C
:100EF00001968031910579F708952E9A08952E98DC
:100F00008EBD0DB407FEFDCF1EBC0DB407FEFDCF98
:100F10000E947D078EB508952E9882608EBD0DB417
:100F200007FEFDCF6EBD0DB407FEFDCF0C947D070F
:100F300088EF0E947F07807C8034A1F018F488231A
:100F400001F10895803819F0803CB9F0089588EDDA
:100F50000E947F0781FD0BC069EC88ED0E948C0721
:100F600082E00CC088ED0E947F0781FDF5CF6BEC1D
:100F700088ED0E948C0783E001C081E080937F01AF
:100F8000089561ED88ED0E948C0710927F0108950D
:100F90000F931F93CF93DF938C01269A0E947D07B6
:100FA000219A229A2398209A80E58CBD81E08DBDFC
:100FB000259868E188E80E948C0760E288E70E9433
:100FC0008C0760E088E70E948C07C0E0D0E088E6EC
:100FD0000E947F07219680FD06C0CF3F8FEFD80784
:100FE000B1F78FEF1DC061EC88ED0E948C0760E6C1
:100FF00080ED0E948C0764E088EE0E948C0788EEEA
:101000000E947F0782FFFBCFC8010E94980760E221
:1010100088EC0E948C0761E080E80E948C0780E0E9
:10102000DF91CF911F910F91089586E392E00E9486
:10103000C80784EA91E0909309028093080288E946
:1010400091E09093F0018093EF018CE891E0909310
:10105000D7018093D60180E891E09093BE01809300
:10106000BD010895EF92FF920F931F93CF93DF93EB
:10107000EC017B018A0188A1823029F128F48823C0
:1010800041F0813081F0C8C0833019F18430D9F14A
:10109000C3C082E08C832D813E8138872F838A876D
:1010A000898781E088A3A801B701CE0107960E9435
:1010B000091C811102C080E0B0C0ED81FE818081F9
:1010C00089A381818AA3CE0142969E838D8383E08A
:1010D00088A38AA1843059F018F4823049F00AC0FC
:1010E000853039F0813231F489A1825002C01BA2CF
:1010F00087E08C838D819E8198878F838C818A87FE
:10110000898784E088A38AA1843081F0853091F1B9
:10111000823009F050C0A801B701CE0107960E94A5
:10112000091C882341F28D898CA371C0A801B701E5
:10113000CE0107960E94091C882309F4BCCF8D8933
:10114000833009F064C08E89813009F060C098A5B1
:101150008F89992321F0882309F459C003C0813075
:1011600009F055C091E09BA39A899EA39B899FA3F8
:101170008DA34DC0A801B701CE0107960E94091C9E
:10118000882309F498CF8BA1882309F440C08A8171
:101190009B810097E1F1DC01ED91FC910190F081E0
:1011A000E02D7E01B0E1EB0EF11C0DA12FA14EA1AF
:1011B0006CA109952CC08D85882319F0813041F0F0
:1011C00021C089A190E002979F878E8781E08D875B
:1011D0008E859F850097A9F0F80120813181232B0E
:1011E00089F001979F878E87D7018D919C911197E8
:1011F00001968D939C938081918101979183808347
:10120000E7CF1D868E859F85892B09F054CFCE01AF
:1012100040969E838D8318A281E0DF91CF911F912C
:101220000F91FF90EF9008950F931F93CF93DF934B
:1012300000D000D0CDB7DEB78C017C836B835A839E
:1012400049838B819C81892B59F0AE014D5F5F4FA3
:10125000BE016F5F7F4FC8010E9432088111F1CF3C
:101260000F900F900F900F90DF91CF911F910F91E2
:10127000089586E392E00E94130F66E372E085E230
:1012800092E00E949C1A66E372E084E192E00E9480
:101290009C1A66E372E08BEF91E00E94440766E3DC
:1012A00072E082EE91E00E94440766E372E089EC0E
:1012B00091E00E94440766E372E080EB91E00E94B7
:1012C000440781E491E09093A5018093A401909359
:1012D00099018093980190938D0180938C01909354
:1012E000810180938001089508951F93CF93DF9328
:1012F0008430910540F18237910530F09C012357ED
:10130000310922333105F8F4FB01EC01128111237C
:1013100069F082E70E94B21D8091B6028F5F8093D0
:10132000B6028C2F0E94B21D10E00EC00E94751EE6
:101330008091B60281508093B602811105C082E788
:101340000E94751E01C011E0812FDF91CF911F9186
:10135000089581E008950C9475090C94740908951A
:101360000E940F210E94AF092FEF84E39CE02150DF
:1013700080409040E1F700C0000087E797E7909336
:101380000108809300080C941B29FF920F931F9370
:10139000CF93DF938C01FC01C081D1818091F90250
:1013A000811113C08281882349F0CE010E946E26EC
:1013B000F82E682FCE010E94172604C0CE010E948D
:1013C0004226F82EBE018F2D04C0CE010E946E264B
:1013D000BE010E94460BEC01B8010E94AB098823B4
:1013E00009F449C1C63DFCE5DF0709F4ABC0B0F420
:1013F000C531ECE5DE0768F4C230FCE5DF0708F034
:101400004FC0C1158CE5D80701F1C130DC4529F189
:1014100025C1C631DC4509F4FAC020C1CB3D8CE5BD
:10142000D80771F150F4C73DFCE5DF0709F4ADC002
:10143000C83DDC4509F4D0C011C1CC3DECE5DE0768
:1014400031F1CD3DDC45A1F009C1F801828188234D
:1014500009F411C10E94B0090EC1F80182818823EC
:1014600009F409C18091E70381608093E70303C118
:10147000F8018281882309F4FEC00E94E927FBC09D
:10148000F8018281882309F4F6C080E006C0F801E3
:101490008281882309F4EFC082E00E945B2BEBC0BD
:1014A000F8018281882309F4DEC00E947B27811124
:1014B00002C00E94E9270E948E2790E09093F903D2
:1014C0008093F803FE01E350FC45E231F10530F46E
:1014D000EA5AFF4F8091F8030C947E318091F80313
:1014E000816027C0826025C0846023C0806121C0E4
:1014F00080621FC080641DC080681BC084608860DB
:1015000018C08E7F16C08D7F14C08B7F12C08F7E57
:1015100010C08F7D0EC08F7B0CC08F770AC08B7F71
:10152000877F07C087FB222720F991E0922790FB55
:1015300087F98093F8038091F8030E9492270E9414
:101540000F2199C0F8018281882351F01092BC02CA
:101550000E94B3289093B9028093B80282E022C01F
:101560008091BC0281110FC08091B8029091B902A4
:101570000E94CB28883C910530F486E20E94B21D7F
:1015800086E20E94751E82E024C0F80182818823D1
:1015900061F01092BD020E94B3289093BB02809329
:1015A000BA0280E20E94A11E66C08091BD02811134
:1015B0000FC08091BA029091BB020E94CB28883C58
:1015C000910530F487E20E94B21D87E20E94751EE9
:1015D00080E20E94A81E4FC0F80182818111D9CFFC
:1015E0008091BD028111F4CF8091BA029091BB022B
:1015F0000E94CB28883C910558F780E20E94A81EE3
:1016000088E20E94B21D88E20E94751E34C00E94CA
:101610003F27982FF801828120910001309101012C
:10162000882379F09A7A81E009F480E08093B70208
:10163000911102C069E201C065E3C9010E941E2840
:101640000AC08091B702811102C069E201C065E35E
:10165000C9010E9420280E940C270DC081E08093C0
:10166000BC028093BD02C801DF91CF911F910F9101
:10167000FF900C94A90980E0DF91CF911F910F9109
:10168000FF90089580E090E008950895E72FF0E03E
:1016900090E1899FE00DF11D112484E0EE0FFF1F02
:1016A0008A95E1F7E60FF11DEE0FFF1FE65BFE4F97
:1016B000859194910895880F991FFC01E65BFA4F7C
:1016C000859194910895CF93DF930E94460B0E94D9
:1016D000150DEC018115904508F041C0C11580E45D
:1016E000D80708F024C1C83ED10510F5C03ED10589
:1016F00008F097C1C83AD10578F4C53AD10508F089
:101700009EC0C130D10509F48CC108F43DC1C4307C
:10171000D10508F086C138C1CF3BD10508F49AC085
:10172000C03CD10508F430C1CE01805C9109F1C004
:10173000C11590E2D90758F4C11521E0D20708F08D
:1017400070C1C03FD10508F41FC1D0656AC1C11581
:1017500080E3D80708F0E1C0CE019F70DAC0C11560
:1017600095E5D90708F044C0C11524E5D20708F073
:10177000F5C0C11582E5D80710F5C11591E5D90767
:1017800008F0D8C0CE0174E0969587957A95E1F778
:10179000282F23703C2F337081E090E002C0880F27
:1017A000991F3A95E2F79C68922BCF70C695C69523
:1017B00020E2C29FE0011124C82BD92B32C19E0127
:1017C000237033278C2F86958695C115D34508F055
:1017D000B6C0C1E0D0E002C0CC0FDD1F2A95E2F711
:1017E00020E2829FC0011124C82BD92BDC6819C1CB
:1017F000C11529E5D20780F4C11588E5D80708F09E
:10180000B2C0C11596E5D90708F0BEC0CF71DD277B
:10181000DC2FCC27D06205C1CE01C1152AE5D20745
:1018200008F4A6C090568115904208F0ADC08D2FE7
:101830008F710E94910DDD27D0628F71A3C0C53AD0
:10184000D10509F4A4C0C63AD10509F0A3C0C2E885
:10185000D0E4E7C0C83AD10509F49FC0C93AD10520
:1018600009F49EC0CA3AD10509F49DC0CB3AD1050E
:1018700009F49CC0CC3AD10509F49BC0CB3BD105FF
:1018800009F49AC0CC3BD10509F499C0CD3AD105F1
:1018900009F498C0C03BD10509F497C0CE3AD105F0
:1018A00009F496C0CF3AD10509F495C0C13BD105E2
:1018B00009F494C0C23BD10509F493C0C33BD105E0
:1018C00009F492C0C43BD10509F491C0C53BD105D0
:1018D00009F490C0C63BD10509F48FC0C73BD105C0
:1018E00009F48EC0C83BD10509F48DC0C93BD105B0
:1018F00009F48CC0CD3BD10509F48BC0CE3BD1059A
:1019000009F48AC0CA3BD10509F489C0C0E0D4E417
:1019100088C00E945B0BEC0184C0CE019927D3FFE5
:1019200003C0EC01D86C7DC0EC01D06C7AC0DF70D4
:10193000D06A77C0DC2FCC27C16FD06A72C0C1E0FB
:10194000D0E002C0CC0FDD1F2A95E2F720E2829F93
:10195000C0011124C82BD92BDA6863C0DC2FCC2737
:10196000C46FD06A5EC0DC2FCC27C06FD06A59C06C
:1019700024E0969587952A95E1F78F70CF70C06E19
:10198000D0E0D06AD82B4DC0C0E0D0E04AC0C1E85A
:10199000D0E447C0C3E8D0E444C0C2EED4E441C0C0
:1019A000C9EED4E43EC0CAEED4E43BC0C5EBD4E4F7
:1019B00038C0C6EBD4E435C0C3EBD4E432C0C4EBCA
:1019C000D4E42FC0C7EBD4E42CC0CCECD4E429C0C1
:1019D000CDECD4E426C0C3E8D5E423C0CAE8D5E4FE
:1019E00020C0C2E9D5E41DC0C4E9D5E41AC0C1E2F3
:1019F000D6E417C0C3E2D6E414C0C4E2D6E411C0F2
:101A0000C5E2D6E40EC0C6E2D6E40BC0C7E2D6E417
:101A100008C0CFE6D4E405C0C0E7D4E402C0CAE2FF
:101A2000D6E4CE01DF91CF9108958238910549F136
:101A3000B0F48133910509F459C048F48932910515
:101A400009F44FC08A32910509F455C008958533D1
:101A5000910509F441C08933910599F00895833EB9
:101A6000910531F138F4803E910591F0823E910567
:101A7000A9F00895863E910501F1873E910539F15F
:101A800008952091F80320FD3BC021FD39C0089541
:101A90008091F80380FF34C089E341C08091F8034E
:101AA00082FF30C08091F80384FD2EC083EE37C0E2
:101AB0008091F80382FD26C0F5CF8091F80383FF63
:101AC00025C08091F80384FD1FC087EE28C0809157
:101AD000F80383FD1BC0F5CF8091F80385FD18C086
:101AE00019C08091F80385FD15C012C08091F803DC
:101AF00086FD12C013C08091F80386FD0FC00CC094
:101B000080EE0DC082EE0BC080E009C086EE07C0FB
:101B100089E205C085E303C08AE201C081E390E069
:101B200008959091F80392FF0DC0282F2871283056
:101B300019F4877F846006C0282F2471243011F4A3
:101B40008B7F886093FF0DC0282F2871283119F4EE
:101B5000877E846106C0282F2471243111F48B7E86
:101B6000886194FD877E08950F931F93CF93DF9331
:101B7000EC01DC01129688E0F80101900D928A9543
:101B8000E1F70E94E80D7B876A87DF91CF911F9173
:101B90000F91089580E090E008958FEF9FEF0895F2
:101BA0000895862F0E94BC2A81E090E00895EEEB14
:101BB000F2E01382128288EE93E0A0E0B0E084832A
:101BC0009583A683B78387E491E09183808308950A
:101BD0000C94BF288F929F92AF92BF92CF92DF92C8
:101BE000EF92FF920E945A304B015C0120E030E0FE
:101BF0004AE755E40E9411316B017C0120E030E09E
:101C000040E85FE30E94263087FD24C020E03FEFDC
:101C10004FE757E4C701B6010E940C311816ACF427
:101C200020E030E040E251E4C501B4010E941131EE
:101C30000E942B3020E931E06115710581F0C90166
:101C40000197F1F761507109F7CFC701B6010E9402
:101C50002B3002C061E070E0CB010197F1F7FF90FB
:101C6000EF90DF90CF90BF90AF909F908F900895AE
:101C7000CF93DF93FC01862F8078A9F4283008F0F9
:101C80004DC0442321F09581973009F447C0EF01FE
:101C9000A1E0B0E09D85992341F011962596A031F1
:101CA000B105C1F73BC080E039C061111CC085E0BF
:101CB0008A9FE0018B9FD00D1124CE0FDF1F44239C
:101CC00031F081E4888785818F5F858302C081E060
:101CD000888725E02A9FC0012B9F900D1124E80FD3
:101CE000F91F80851BC06770660F660F660F44235F
:101CF00041F0606485818F5F85838770687F682B82
:101D000003C02770687B622B25E02A9FC0012B9FB0
:101D1000900D1124E80FF91F6087862FDF91CF9176
:101D20000895611102C006960895FC0121E03585F1
:101D3000631739F02F5F35962031C9F780E090E0C6
:101D40000895069635E0239F800D911D1124089576
:101D5000DF92EF92FF920F931F93CF93DF93EC01EB
:101D6000E62EF12C85E0689FB0011124FE01E60FFC
:101D7000F71F8085182F177086FF17C001E085E0D8
:101D8000D82EFE01D09EE00DF11D11248085869590
:101D90008695869587701817F9F00F5F003189F7DF
:101DA0008D81811302C011501D8385E08E9DF0014D
:101DB0008F9DF00D1124EC0FFD1F108681E08187AF
:101DC00012862296D783C683DF91CF911F910F9100
:101DD000FF90EF90DF900895602FCE010E94A80E33
:101DE000D0CFFC01613499F49C01255B3F4F61E049
:101DF000AC014E5F5F4F1586668717865487438711
:101E00003596E217F307B9F7FC011582089521E032
:101E10003585631729F02F5F35962031C9F708956E
:101E2000622F0C94A80EFC0189E591E091838083D8
:101E30001582108681E081871286CF0102969783F2
:101E40008683128228E023832CE32483DF019F0111
:101E5000255B3F4F41E01D961C921D971E964C93AB
:101E60001E971F961C921F971C969C938E931B97F0
:101E70001596A217B30779F7EA58FF4F108281E150
:101E80008093D00208958091D0020895CF93C42FFB
:101E90000E94910E009789F0DC01ED91FC91119761
:101EA000309759F013969C9180E0891731F020818A
:101EB0002C1731F033968F5FF8CF80E090E001C0AF
:101EC000CF01CF9108950F931F93CF93DF932115E7
:101ED000310571F0E901042F162F0E94910EFC01CB
:101EE000892B41F01283D183C083038380E003C038
:101EF00088ED01C086EDDF91CF911F910F9108957C
:101F0000CF92DF92FF920F931F93CF93DF936623BD
:101F100081F1F62E8C016C0186E5C80ED11CC0E063
:101F2000D0E0D6018D919D916D010097F1F0DC011B
:101F3000ED91FC910084F185E02D0995F81215C012
:101F4000AB96CC0FDD1FC00FD11F88819981DC01BA
:101F5000ED91FC910480F581E02DDF91CF911F91EF
:101F60000F91FF90DF90CF9009942196C031D10559
:101F7000C1F680E0DF91CF911F910F91FF90DF902C
:101F8000CF9008952E980895CF93C82F0E94C20F26
:101F9000CEBD0DB407FEFDCF1EBC0DB407FEFDCFB8
:101FA0000E947D078EB5CF910895CF93DF93C82F00
:101FB000D62F0E94C20FC260CEBD0DB407FEFDCF6A
:101FC000DEBD0DB407FEFDCFDF91CF910C947D07F0
:101FD0008F929F92AF92BF92CF92DF92EF92FF9239
:101FE0000F931F93CF93DF93EC01D62EC42E59018C
:101FF0000E94910E7C01009709F445C0FC0180818C
:102000009181892B09F441C04C2D6D2DCE010E9488
:10201000460FF501918380830097C9F1FC0182810D
:102020008695869590E08031910514F08FE090E0E0
:1020300041E050E060E070E04A015B0104C0880CC0
:10204000991CAA1CBB1C8A95D2F7D501C401019723
:10205000F801918380836D2D80EE0E94D50F88ED6D
:102060000E94C40FF7019481992331F0CA58DF4FC1
:1020700068816260682B02C0682F697F88ED0E94CA
:10208000D50F80E005C086ED03C087ED01C08BED64
:10209000DF91CF911F910F91FF90EF90DF90CF9044
:1020A000BF90AF909F908F9008958F929F92AF9224
:1020B000BF92CF92DF92EF92FF920F931F93CF9335
:1020C000DF93862E942E59010E94E80D6B017C014E
:1020D00028E8C20E23E1D21EE11CF11C00E010E052
:1020E000D0E0C0E098280E94E80DDC01CB018C19FB
:1020F0009D09AE09BF09B7FF2DC0692D80EF0E9471
:10210000D50F0E94E80DDC01CB018C199D09AE09A9
:10211000BF09B7FF09C088EC0E94C40F87FFF1CF49
:1021200060E888EC0E94D50F88EF0E94C40FC82F8A
:10213000CF70C43019F0CE3051F00CC00F5F1F4F7C
:10214000A114B10481F20A151B0569F603C0DF5F13
:10215000D33049F68C2FDF91CF911F910F91FF90D3
:10216000EF90DF90CF90BF90AF909F908F900895A9
:102170009F92AF92BF92CF92DF92EF92FF920F9316
:102180001F93CF93DF937C01D42F122F902E00E06A
:102190006C01C60ED11CC60ED11C86E5C80ED11C22
:1021A000A42EB12CABE2AA0EB11CAA0CBB1CAE0C27
:1021B000BF1CF60180819181DC01ED91FC910280D0
:1021C000F381E02D292D412F6D2F0995803EC9F413
:1021D000D1110BC061E088EE0E94D50F66E670E079
:1021E00080E090E00E94EA0D14C0F50180819181A9
:1021F000DC01ED91FC910284F385E02D612F0995BE
:1022000008C08D3021F4033008F03FC014C08111A4
:102210003FC0F60180819181DC01ED91FC9101903C
:10222000F081E02D292D412F6D2F0995C82F8D307C
:1022300051F4033050F464E670E080E090E00E94D6
:10224000EA0D0F5FB6CF882311F1D1110BC061E009
:1022500088EE0E94D50F66E670E080E090E00E9474
:10226000EA0D11C0ED2FF0E0BB96EE0FFF1FEE0D53
:10227000FF1D80819181DC01ED91FC910284F38549
:10228000E02D612F09958C2F03C08DE001C080E007
:10229000DF91CF911F910F91FF90EF90DF90CF9042
:1022A000BF90AF909F9008950F931F93CF93DF93AC
:1022B000182F062FEA010E94C20F12601EBDFE01F8
:1022C000802F882339F00DB407FEFDCF91919EBD7C
:1022D0008150F7CFC00FD11D0DB407FEFDCF0E9476
:1022E0007D07CE01DF91CF911F910F9108952F921D
:1022F0003F924F925F926F927F928F929F92AF9296
:10230000BF92CF92DF92EF92FF920F931F93CF93E2
:10231000DF9300D000D01F92CDB7DEB77D836C83F2
:102320004A016901FB01F1808FEF8F0D803408F0C5
:1023300074C00E94E80D2B013C01F8E84F0EF3E158
:102340005F1E611C711CEC81FD81828180FD02C0D9
:1023500060E401C060E888EE0E94D50F312C8F2D1B
:1023600090E09A838983C114D10409F448C0E980BC
:10237000FA80CE14DF0408F47601EB82A8016E2DFA
:1023800080E10E9454116E2D88E30E94D50FEC81EC
:10239000FD816081606280EF0E94D50F88EC0E9411
:1023A000C40F87FFFBCF60E888EC0E94D50F88EF51
:1023B0000E94C40F8F70382EA12CB12C212C3320F9
:1023C00009F46BC00E94E80DDC01CB01841995096A
:1023D000A609B709B7FF61C0F6E03F1601F12EE08C
:1023E000321609F455C084E0381209C0FFEFAF1A65
:1023F000BF0A8114910449F1A814B90431F588EF9A
:102400000E94C40F85FB882780F9EC81FD819281B1
:1024100080FB90F99283832D45C08AED43C088EFFD
:102420000E94C40F85FB882780F991E08927EC8101
:10243000FD81928180FB90F9928390FD02C060E45F
:1024400001C060E888EE0E94D50F60E088E30E943A
:10245000D50FF801608180E10E94D50F6B8188E380
:102460000E94D50FEC81FD816081606280EF0E9447
:10247000D50F88EC0E94C40F87FFFBCF60E888EC83
:102480000E94D50F88EF0E94C40F8F70382E97CF0F
:10249000239423E02212D9CFB2CFCE18DF080E0D3D
:1024A0001F1D61CF0F900F900F900F900F90DF9135
:1024B000CF911F910F91FF90EF90DF90CF90BF9041
:1024C000AF909F908F907F906F905F904F903F90D4
:1024D0002F9008952F923F924F925F926F927F922A
:1024E0008F929F92AF92BF92CF92DF92EF92FF9224
:1024F0000F931F93CF93DF9300D000D01F92CDB7DF
:10250000DEB73C017B015A8349836901F901A08050
:10251000B180FB012180F90111821082FB018281CF
:1025200081FD02C060E101C060E288EE0E94D50F2B
:10253000AB8229813A81F701408160E0C3010E94AA
:102540005510582EF6E08F1315C088EF0E94C40F67
:102550008295817021E08227F701928180FB91F9B9
:10256000928391FD02C060E101C060E288EE0E94AA
:10257000D50FDFCF81115AC088EC0E94C40F82FFB3
:1025800053C080E30E94C40F482E90E0A816B906FD
:1025900008F44B80F601808191819501281B390B4D
:1025A0003D832C8337FF02C01D821C82842C912C1A
:1025B0008C819D818816990614F49D828C823C80C2
:1025C0000E94C20F98E09EBD0DB407FEFDCFF8013A
:1025D000332041F01EBC3A940DB407FEFDCF8EB5FA
:1025E0008193F6CFEC81FD810E0F1F1F0E947D07A6
:1025F00064E088EC0E94D50FF60180819181880EFD
:10260000991E91828082421420F08A149B0408F45F
:1026100090CF88EF0E94C40F82958170F70192815C
:1026200080FB91F9928302C080EF582E852D0F9088
:102630000F900F900F900F90DF91CF911F910F91FE
:10264000FF90EF90DF90CF90BF90AF909F908F90D2
:102650007F906F905F904F903F902F9008952F92B2
:102660003F924F925F926F927F928F929F92AF9222
:10267000BF92CF92DF92EF92FF920F931F93CF936F
:10268000DF93CDB7DEB761970FB6F894DEBF0FBE0C
:10269000CDBF3C01D42E322E202EE98A4EA05FA061
:1026A000E8A4F9A4188A1F861E861D868E01035F82
:1026B0001F4F9E01215F3F4F0E94E80F811193C081
:1026C00039822A8289898B83CC82BE82AD829886A8
:1026D0008F82AE014F5F5F4F68E080E20E9454112D
:1026E0002D853E854D2D60E1C3010E945510182FA8
:1026F000811175C0932D9078C92EE114F10409F46D
:102700005FC0EF85F8898281992309F44AC082600D
:1027100082835401A114B10409F457C05C864B862E
:102720004D855E856F85788987019E01255F3F4FC6
:10273000C3010E946A12182F863081F42F843888D2
:1027400088EF0E94C40F85FB882780F9A1E08A27C3
:10275000F101928180FB91F99283DCCF81113FC01E
:102760008AA59BA50097A1F0DC01ED91FC91119742
:102770000190F081E02DC4018A199B099A8789870D
:102780006B857C859E01275F3F4FA701CD01099591
:102790008B859C85A81AB90A8415950508F0BACFCF
:1027A0000FC0816082834D855E8587019201BF01E4
:1027B000C3010E947711811116C02D853E8511C07D
:1027C0002D853E85C11005C00CC0111108C02D8596
:1027D0003E8560EA4D2DC3010E94551004C0812F33
:1027E00002C060E8F7CF61960FB6F894DEBF0FBE67
:1027F000CDBFDF91CF911F910F91FF90EF90DF90B0
:10280000CF90BF90AF909F908F907F906F905F9090
:102810004F903F902F9008958F929F92AF92BF92CA
:10282000CF92EF920F931F931F921F921F930F93BC
:102830003F932F934901A12CB12CCC24C394E12CBC
:1028400006E020E80E942F130F900F900F900F903A
:102850000F900F901F910F91EF90CF90BF90AF907E
:102860009F908F9008958F929F92AF92BF92CF9238
:10287000EF92FF920F931F921F92FF92EF923F935E
:102880002F934901A12CB12C22E0C22EE02E06E0AC
:1028900020E80E942F130F900F900F900F900F9031
:1028A0000F900F91FF90EF90CF90BF90AF909F90BF
:1028B0008F9008954F925F926F927F928F929F9226
:1028C000AF92BF92CF92DF92EF92FF920F931F933E
:1028D000CF93DF93CDB7DEB7C054D1090FB6F894CC
:1028E000DEBF0FBECDBF3C01D62E542E422EC02ED1
:1028F000CE0101965C017C01022F29E030E0C3018A
:102900000E94331481111BC08B809C801F93CF9237
:10291000BF92AF921F9280E48F93A12CB12C82E0E2
:10292000C82EE42C06E020E8452D6D2DC3010E9441
:102930002F130F900F900F900F900F900F90C05C7F
:10294000DF4F0FB6F894DEBF0FBECDBFDF91CF9142
:102950001F910F91FF90EF90DF90CF90BF90AF90BD
:102960009F908F907F906F905F904F9008958F927F
:102970009F92AF92BF92CF92EF920F93CF931F92FD
:102980001F921F921F921F921F92812C912CA12C9B
:10299000B12CC12CE22E05E020E00E942F13C82F9D
:1029A0006CE271E080E090E00E94EA0D0F900F90E1
:1029B0000F900F900F900F908C2FCF910F91EF9061
:1029C000CF90BF90AF909F908F9008950F931F93DB
:1029D000CF93DF938A3F3FEF930711F486ED2DC02D
:1029E000DC011696ED91FC911797EF2B09F1122F50
:1029F000242FEC011A8740E00E94380E082F88230C
:102A0000C9F0682FCE010E94910E009739F3FC01A6
:102A10001483202F40E060E0CE010E94B714182FED
:102A2000882351F0602FCE010E94F10E812F05C046
:102A300087ED03C084ED01C080E0DF91CF911F914D
:102A40000F9108952F923F924F925F926F927F92D3
:102A50008F929F92AF92BF92CF92DF92EF92FF92AE
:102A60000F931F93CF93DF93CDB7DEB766970FB663
:102A7000F894DEBF0FBECDBF1B8A38E03C8B3CE331
:102A80003D8B8A3F3FEF930709F464C0522E342EEA
:102A9000462E7C01DC011696CD90DC901797CE0176
:102AA000439617969C938E9316971A962C938E01A5
:102AB0000F5F1F4F22E130E040E060E0C7010E945D
:102AC0000C14F701D782C6828111A6C089849A842A
:102AD0006B847C84FD81FE8B2E80670136E5C30EFE
:102AE000D11C560110E0D5018D919C910097F1F118
:102AF000DC01ED91FC910084F185E02D09958111B7
:102B000035C0F50180819181DC01ED91FC91008857
:102B1000F189E02D622D0995882341F1F50180812D
:102B20009181DC01ED91FC910484F585E02DA301F8
:102B3000B4010995811110C0F50180819181DC01FA
:102B4000ED91FC910684F785E02D6E890995811140
:102B500003C00CC086ED60C0052D232D442D612FD0
:102B6000C7010E94B810813D09F056C01F5FB2E056
:102B7000AB0EB11C103109F0B6CF10E0F601808128
:102B800091810097E1F1DC01ED91FC910084F185E8
:102B9000E02D0995811133C0F60180819181DC011E
:102BA000ED91FC910088F189E02D622D0995882333
:102BB000D9F0F60180819181DC01ED91FC910484D2
:102BC000F585E02DA301B4010995811118C0F60126
:102BD00080819181DC01ED91FC910684F785E02DE7
:102BE0006E89099581110BC0052D232D442D612F70
:102BF000C7010E94B810982F977F913D69F41F5F1D
:102C0000E2E0CE0ED11C103109F0B8CF252D432DB6
:102C1000642DC7010E94E61466960FB6F894DEBFD5
:102C20000FBECDBFDF91CF911F910F91FF90EF901D
:102C3000DF90CF90BF90AF909F908F907F906F90DC
:102C40005F904F903F902F9008958F929F92AF92F8
:102C5000BF92CF92EF920F931F921F921F921F92DB
:102C60001F921F92812C912CA12CB12CC12CE22EF1
:102C700009E020E00E942F130F900F900F900F900B
:102C80000F900F900F91EF90CF90BF90AF909F90CB
:102C90008F900895AF92BF92CF92DF92EF92FF9202
:102CA0000F931F93CF93DF9300D000D0CDB7DEB743
:102CB0007C01690158011C821B821A8219828E01D3
:102CC0000F5F1F4F9E012D5F3F4F0E94E80F811144
:102CD00009C049815A816B817C8185019601C701B8
:102CE0000E946A120F900F900F900F90DF91CF917A
:102CF0001F910F91FF90EF90DF90CF90BF90AF901A
:102D00000895AF92BF92CF92DF92EF92FF920F930E
:102D10001F93CF938C011D990EC088EC0E94C40FA5
:102D200085FF05C0C8010E94980760E201C060E00D
:102D300088EC0E94D50F80917F01813039F040F0FE
:102D4000823079F0833039F5C1E00CC083E106C0F0
:102D50008091D002807F8031F1F081E18093D002B8
:102D60001AC0C0E08091D002807F8031A9F40E9417
:102D7000E80DDC01CB0188539F4FAF4FBF4F8093CD
:102D8000CC029093CD02A093CE02B093CF0280E20A
:102D90008093D00201C0C0E0780186E5E80EF11C06
:102DA0006801A6E7CA0ED11C5701F50181919191E6
:102DB0005F01009739F0DC01ED91FC910680F7810D
:102DC000E02D0995AC14BD0481F78091D0028034C8
:102DD00009F43FC050F4803221F18033A1F18131F8
:102DE00009F082C0F60110820AC0813509F458C08A
:102DF000803809F46AC0803509F076C039C0D7013F
:102E00008D919D917D01009739F0DC01ED91FC9150
:102E10000480F581E02D0995EC14FD0481F782E131
:102E200061C00E94E80D0091CC021091CD0220916A
:102E3000CE023091CF02DC01CB01801B910BA20BA3
:102E4000B30BB7FD51C061E088EE0E94D50F80E45E
:102E500049C088EE0E94C40F80FD46C088ED0E94E4
:102E6000C40F682F686088ED0E94D50F80E53AC0D6
:102E700088EC0E94C40F86FF37C081E58093D002A2
:102E80000E94E80DDC01CB014496A11DB11D809389
:102E9000CC029093CD02A093CE02B093CF0224C077
:102EA0000E94E80DC090CC02D090CD02E090CE02FE
:102EB000F090CF02DC01CB018C199D09AE09BF094E
:102EC000B7FD12C080E88093D0022C2F40E060E074
:102ED000C8010E942215882321F0823D29F080EA52
:102EE00001C080E98093D002CF911F910F91FF9094
:102EF000EF90DF90CF90BF90AF9008958F929F9208
:102F0000AF92BF92CF92EF920F93CF93DF93CDB753
:102F1000DEB7C054D1090FB6F894DEBF0FBECDBFE7
:102F20005F934F939E012F5F3F4F3F932F931F92CD
:102F300020E42F9320E8822E912C5B0132E2C32EF5
:102F4000E12C06E021E840E0FC0166818481958166
:102F50000E942F130F900F900F900F900F900F90D3
:102F6000C05CDF4F0FB6F894DEBF0FBECDBFDF9160
:102F7000CF910F91EF90CF90BF90AF909F908F9097
:102F800008958F929F92AF92BF92CF92DF92EF926D
:102F9000FF920F93A42EB12C1F921F92DF92CF921B
:102FA000FF92EF924701C22EE02E09E021E2462F68
:102FB000FC016681848195810E942F130F900F90F0
:102FC0000F900F900F900F900F91FF90EF90DF9068
:102FD000CF90BF90AF909F908F9008958F929F92C7
:102FE000AF92BF92CF92EF920F93A62EB12C1F9269
:102FF0001F921F921F921F921F92812C912CC22E02
:10300000E42E0AE021E240E0FC01668184819581A2
:103010000E942F130F900F900F900F900F900F9012
:103020000F91EF90CF90BF90AF909F908F900895A9
:103030008F929F92AF92BF92CF92EF920F93A62E54
:10304000B12C1F921F921F921F921F921F92812CD0
:10305000912CC12CE42E0BE021E240E0FC016681C2
:10306000848195810E942F130F900F900F900F90E5
:103070000F900F900F91EF90CF90BF90AF909F90D7
:103080008F900895FC018285089581E0693009F0F0
:1030900080E00895CF93DF93EC018A819B81DC016E
:1030A000ED91FC910480F581E02D6A8509958A8572
:1030B000813439F4EA81FB81EA58FF4F80818460D2
:1030C00080831A861B861C861D861E861F86188A8C
:1030D00080E0DF91CF9108958F929F92AF92BF923F
:1030E000CF92EF920F93A42EB12CB22A1F921F926F
:1030F0001F921F921F921F92812C912CC12CE62EA1
:1031000001E023E240E0FC016285828193810E941C
:103110002F130F900F900F900F900F900F900F9113
:10312000EF90CF90BF90AF909F908F9008958F9227
:103130009F92AF92BF92CF92EF920F93A62EB12C97
:103140001F921F923F932F935F934F934A01C12C7D
:10315000E12C00E023EA40E0FC016285828193815A
:103160000E942F130F900F900F900F900F900F90C1
:103170000F91EF90CF90BF90AF909F908F90089558
:103180008F929F92AF92BF92CF92EF920F93A42E05
:10319000B12CB22A1F921F921F921F921F921F9250
:1031A000812C912CC12CE62E03E023E240E0FC01AF
:1031B0006285828193810E942F130F900F900F9050
:1031C0000F900F900F900F91EF90CF90BF90AF9016
:1031D0009F908F9008952F923F924F925F926F929F
:1031E0007F928F929F92AF92BF92CF92DF92EF9297
:1031F000FF920F931F93CF93DF93CDB7DEB7E8977E
:103200000FB6F894DEBF0FBECDBFDC011A963C911D
:10321000311107C1122F242E362E3C01FC01C28031
:10322000D380D601ED91FC910190F081E02D60E01A
:10323000C60109957C01009709F4F5C0FC01A08046
:10324000B180A114B10409F4F0C04301F4E08F0E81
:10325000911CDC0111969C928E9214961C93FE0197
:1032600031962F018F0128E030E040E060E0D3018B
:1032700012968D919C9113970E940C14F701148261
:103280008111D9C08D81893009F0D1C00981D60161
:10329000ED91FC910280F381E02D222D41E0632D20
:1032A000C6010995F3018287882309F4C2C0988575
:1032B0009583282F40E060E0828193810E94B714BB
:1032C000182F882389F0D701AD92BC92D601ED91D9
:1032D000FC910480F581E02DD3011A966C91C60112
:1032E0000995F3011286ABC0202F013208F020E2CD
:1032F000D701AD92BC9221110BC0940142E0F301C1
:103300006285828193810E94630F811197C010C0F2
:1033100030E0820140E0D3011A966C911A97129620
:103320008D919C9113970E940C14811187C0E5CF59
:103330001F921F925F924F921F9288E08F9388E0B6
:10334000882E912CA12CB12C99E2C92EE12C06E0FB
:1033500020EA40E0F3016285828193810E942F136D
:10336000182F0F900F900F900F900F900F908111CA
:1033700066C08B81D3011B968C931B97720100E072
:1033800028E030E040E01A966C911A9712968D91E1
:103390009C9113970E943314811150C02B813C8162
:1033A00040E0F3016285828193810E943314811190
:1033B00045C0298130E0CE0181967C0140E0D301F7
:1033C0001A966C911A9712968D919C9113970E9460
:1033D0003314811133C02E8140E0F3016285828174
:1033E00093810E942516811129C001E0D3011B960B
:1033F0008C91801740F020E0402F68E0C3010E94CC
:10340000C0180F5FF3CFD3011296ED91FC91139783
:10341000EA58FF4F80818460808381E050968C93CE
:103420000EC019ED0CC016ED0AC017ED08C011ED65
:1034300006C014ED04C0F701B182A082182F812FBD
:10344000E8960FB6F894DEBF0FBECDBFDF91CF91E7
:103450001F910F91FF90EF90DF90CF90BF90AF90B2
:103460009F908F907F906F905F904F903F902F90A4
:103470000895CF92DF92FF920F931F93CF93DF9324
:1034800000D000D0CDB7DEB78C01F62E19821A829B
:103490001B821C8220E0462F61E10E946C1820E014
:1034A0004F2D60E1C8010E946C1820E04F2D64E0B0
:1034B000C8010E94C01883E0C82ED12C9E012F5F46
:1034C0003F4F44E050E06F2DC8010E9497188823B9
:1034D000F1F020E04F2D64E1C8010E946C1820E05B
:1034E0004F2D60E1C8010E946C1864E170E080E03B
:1034F00090E00E94EA0D0F900F900F900F90DF91D7
:10350000CF911F910F91FF90DF90CF900895898107
:103510009A81AB81BC819D7F83309140A041B105F0
:10352000C1F264E670E080E090E00E94EA0D81E084
:10353000C81AD10819F6CDCFFC0183E691E091833A
:10354000808373836283128613861486158616869B
:103550001786108A148288E085839CE3968391E025
:103560009783808784E0818761157105B1F0DB0165
:10357000AA5ABF4F80E090E02D913D91232B49F452
:103580008B96880F991FDB01A80FB91FED93FC9351
:10359000089501968031910579F70895EF92FF9291
:1035A0000F931F93CF938C01C62F7A01FA0180816C
:1035B0009181A281B3818130F3E09F07F1E0AF07F1
:1035C000B105D1F060F48115E1E09E07AE07B105C9
:1035D00071F181309140A140B10571F064C0833038
:1035E00021E0920720E1A207B105E1F18330934089
:1035F000A041B105B9F157C08091D102811153C0EA
:1036000020E04C2F61E1C8010E946C1820E04C2F93
:1036100060E1C8010E946C1820E04C2F64E0C801F2
:103620000E94C01881E08093D10281EB3DC020E070
:10363000462F61E1C8010E946C1820E04C2F60E128
:10364000C8010E946C181092D102F801628567705F
:10365000C770660F660F660F6C2B828193810E9484
:10366000800F21C020E04C2F64E1C8010E946C183B
:1036700020E04C2F60E1C8010E946C1864E170E00A
:1036800080E090E00E94EA0DF8016285F701218157
:103690002695217067704C2FF801828193810E94DA
:1036A00022151092D10280E0CF911F910F91FF90CF
:1036B000EF900895EF92FF920F931F93CF93DF93B4
:1036C000CDB7DEB72E970FB6F894DEBF0FBECDBFD5
:1036D0007C0181E090E09E878D878E010F5F1F4FF8
:1036E0009E01235F3F4F41E0F70162858281938114
:1036F0000E944A16811151C002E011E089818023A5
:10370000D1F019861A861B861C869E01275F3F4FC3
:1037100044E050E0612FC7010E94971881110BC04F
:10372000AE01475F5F4F612FC7010E94CE1A813BF8
:1037300099F1811132C0000F1F5F1830F9F611E0C6
:10374000F7018385811740F119861A861B861C862E
:103750009E01275F3F4F44E050E0612FC7010E9468
:103760009718811117C089859A858770917081306B
:10377000914081F48B859C8581609C878B87AE010D
:10378000475F5F4F612FC7010E94CE1A813B21F036
:10379000811103C01F5FD4CF80E02E960FB6F8943E
:1037A000DEBF0FBECDBFDF91CF911F910F91FF9074
:1037B000EF9008950F931F93CF93DF93FC0120891F
:1037C000211102C080E020C0EC010E94E80D0C85B0
:1037D0001D852E853F85DC01CB01801B910BA20B43
:1037E000B30BB7FDEFCFCE010E945A1B182F0E94DA
:1037F000E80DDC01CB018C599F4FAF4FBF4F8C8739
:103800009D87AE87BF87812FDF91CF911F910F9149
:103810000895CF93DF93FC01EB0180819181892B87
:1038200021F18281882319F1DA012D913C91232B1A
:10383000E1F0A881B9819C91A381B0E0A81BB109F6
:1038400020813181A20FB31F9C938281815082839A
:10385000DA018D919C91119701978D939C938881AA
:103860009981019699838883DCCF80E003C08381AE
:10387000828381E0DF91CF910895CF92DF92EF9222
:10388000FF920F931F93CF93DF936C01EB017B01AA
:10389000E40EF51E00E010E0CE15DF0561F0699141
:1038A000D601ED91FC910190F081E02DC6010995C2
:1038B000080F191FF1CFC801DF91CF911F910F9110
:1038C000FF90EF90DF90CF9008959093D702809370
:1038D000D6020895E091D602F091D702309721F0F8
:1038E0000190F081E02D099480E00895E091D602E6
:1038F000F091D702309721F00280F381E02D0994F6
:1039000008952091D4023091D5022817390771F01B
:103910009093D5028093D402E091D602F091D70221
:10392000309721F00680F781E02D099408952091C9
:10393000D2023091D3022817390771F09093D30245
:103940008093D202E091D602F091D702309721F015
:103950000084F185E02D0994089585B7806885BFBE
:1039600085B7806885BF089508950E94AD1C0C94AA
:10397000B41C81E008950E94AA280E9415080C94A6
:103980002C295F926F927F928F929F92AF92BF92FB
:10399000CF92DF92EF92FF920F931F93CF93DF931B
:1039A000CDB7DEB72A970FB6F894DEBF0FBECDBFF6
:1039B0000E9426060E94B91C811111C08FEF8983D5
:1039C0008A831B820E94B3288160782F9D838C8319
:1039D00049815A816B818D810E947E1D56C099ED6F
:1039E000692E92E0792E00E010E088248394912CD7
:1039F000502E802F0E94DC066C01F301A190B19043
:103A00003F01A826B926A114B10431F40F5F1F4F5E
:103A10000031110569F7D2CF8091E70381FD0E9443
:103A2000090780E090E07401082E02C0EE0CFF1C34
:103A30000A94E2F795012E213F21232B09F18E8371
:103A40005F82CE20DF2081E0CD2809F480E08887E6
:103A50000E94B3288160782F9A8789874E815F8181
:103A600068858A850E947E1D000F111FF801E752AC
:103A7000FD4F80819181E826F926F182E08205C020
:103A800001968031910579F6C1CF0E946A1C909110
:103A9000D8028917D9F00E946A1C8093D8022A960E
:103AA0000FB6F894DEBF0FBECDBFDF91CF911F914F
:103AB0000F91FF90EF90DF90CF90BF90AF909F90CD
:103AC0008F907F906F905F900C940A072A960FB6A4
:103AD000F894DEBF0FBECDBFDF91CF911F910F9144
:103AE000FF90EF90DF90CF90BF90AF909F908F901E
:103AF0007F906F905F9008950C940A07CF93DF93A7
:103B0000CDB7DEB72B970FB6F894DEBF0FBECDBF93
:103B10004F83588769877A878B87DE01119686E005
:103B2000FD0111928A95E9F785E0FE013796019033
:103B30000D928A95E1F749815A816B817C818D8153
:103B40009E810E94DC232B960FB6F894DEBF0FBE39
:103B5000CDBFDF91CF910895FC01808191810E94BA
:103B6000AD260895882309F4BFC0682F8CEF860F17
:103B7000813A38F480910001909101010E941E2841
:103B80000CC080E2860F883050F4677081E001C07D
:103B9000880F6A95EAF70E9442270C940C278BE560
:103BA000860F833070F4653A29F0663A31F083E885
:103BB00090E005C081E890E002C082E890E00C94BB
:103BC000811C88E5860F873108F08EC0683A09F4B9
:103BD00045C0693A09F445C06A3A09F445C06B3AF0
:103BE00009F445C06C3A09F445C06B3B09F445C083
:103BF0006C3B09F445C06D3A09F445C0603B09F4DB
:103C000045C06E3A09F445C06F3A09F445C0613BBE
:103C100009F445C0623B09F445C0633B09F445C063
:103C2000643B09F445C0653B09F445C0663B09F4B3
:103C300045C0673B09F445C0683B09F445C0693B92
:103C400009F445C06D3B09F445C06E3B09F445C01D
:103C50006A3B09F445C080E090E044C082EE90E009
:103C600041C089EE90E03EC08AEE90E03BC085EB1B
:103C700090E038C086EB90E035C083EB90E032C036
:103C800084EB90E02FC087EB90E02CC08CEC90E0B0
:103C900029C08DEC90E026C083E891E023C08AE83B
:103CA00091E020C082E991E01DC084E991E01AC052
:103CB00081E292E017C083E292E014C084E292E0D5
:103CC00011C085E292E00EC086E292E00BC087E26E
:103CD00092E008C08FE690E005C080E790E002C067
:103CE0008AE292E00C94971C0895882349F1682F8A
:103CF0008CEF860F813A38F4809100019091010198
:103D00000E9420280CC080E2860F883050F4677033
:103D100081E001C0880F6A95EAF70E9448270C9459
:103D20000C278BE5860F833020F480E090E00C9424
:103D3000811C685A673120F480E090E00C94971C55
:103D40000895882321F00E9442270C940C2708959F
:103D5000882321F00E9448270C940C2708958F9205
:103D60009F92AF92BF92DF92EF92FF920F931F93B9
:103D7000CF93DF937C01D62FC72FFC0105810295DD
:103D80000F70128111110E945F270E94052788235E
:103D900079F0112369F080E28D0F883048F082E0DD
:103DA0000E94EE260E94052791E0D82ED92601C058
:103DB000D12CBC2EB2948FE0B8228B2D90E0FC0168
:103DC000E859FF4F0C947E318C2F807FCF70882371
:103DD00011F0C295C07F112399F0CC2309F481C161
:103DE00080E28D0F883010F0D11104C08C2F0E941A
:103DF000422703C08C2F0E9452270E940C2771C1BA
:103E00008D2F0E94751ECC2309F490C180E28D0F86
:103E1000883010F0D11104C08C2F0E94482703C0B5
:103E20008C2F0E9458270E940C2780C18C2F807FE6
:103E3000CF70803211F0C295C07FDD2319F0D130F0
:103E4000C9F022C0112371F0002341F0013031F498
:103E50000E9478278C2B0E94722768C10E947827C5
:103E60008C2BF8C0002319F0013009F45FC10E94C7
:103E7000752718C0112321F0063008F057C10EC075
:103E8000053008F053C10EC0112351F0002331F06A
:103E9000F701858180FF25C18F7085838C2FDAC063
:103EA000011130C18C2FDCC08C2F869586958370D4
:103EB00019F0813061F03AC1112321F08D2F9C2F30
:103EC000937002C080E090E00E94811C3CC11123ED
:103ED00021F08D2F9C2F937002C080E090E00E9413
:103EE000971C31C18C2F837009F04CC0111127C170
:103EF0002D2F229526952770220F220F6D2F6F7080
:103F0000862F90E0A0E0B0E04C015D01022E04C0DD
:103F1000880C991CAA1CBB1C0A94D2F7D4FF12C0AF
:103F20008FE090E0A0E0B0E004C0880F991FAA1FC6
:103F3000BB1F2A95D2F7BC01CD0160957095809585
:103F4000909503C060E070E0CB01C695C695C37044
:103F5000C23051F080F4682979298A299B29C1301F
:103F600071F00E942D25EBC0682979298A299B29A7
:103F70000E943F25E4C00E942D25C501B4010E9486
:103F80001B25DDC0112319F08C2F817001C086958F
:103F9000882309F4D4C02D2F229526952770220F4F
:103FA000220F6D2F6F70862F90E0A0E0B0E04C01E3
:103FB0005D01022E04C0880C991CAA1CBB1C0A942B
:103FC000D2F7D4FF12C08FE090E0A0E0B0E004C0D0
:103FD000880F991FAA1FBB1F2A95D2F7BC01CD01DC
:103FE000609570958095909503C060E070E0CB017E
:103FF000C695C695C370C23051F080F468297929FE
:104000008A299B29C13071F00E94F22598C0682945
:1040100079298A299B290E94042691C00E94F225B1
:10402000C501B4010E94E0258AC08D2F90E0FC01FB
:10403000E05EF109E531F10508F04FC0E858FF4FA7
:104040000C947E31DF708C2F8F71112331F00E9420
:1040500079258D2F0E94A11E69C00E949A258D2F5F
:104060000E94A81E63C0112341F0053008F05EC015
:104070008C2F8F710E94BF2559C0063008F056C0A2
:10408000F7CF112339F08C2F8F710E9479254EC004
:104090001123C9F38C2F8F710E949A2547C01123D9
:1040A00029F08C2F8F710E94642540C00E945F25EB
:1040B0003DC0112349F0CF718C2F0E94792563E018
:1040C0008C2F0E94E52632C081E00E94EE2602304D
:1040D00068F182E00E94EE2629C0112331F000230E
:1040E00091F28D2F0E94B21D21C0002399F2D93385
:1040F00049F4FFEF27EE83E0F15020408040E1F7E4
:1041000000C000008D2F0E94751E10C04C2F4F70F4
:104110006D2FC7010E94420B0E948A2414C04C2FAD
:104120004F706D2FC7010E94450B0DC098E0B91666
:1041300031F0B91640F086EF8B0D823020F40E94EA
:104140006A1C0E940A07DD20E1F00E94E12680FD42
:1041500018C0F70112820E94DB260E947925C70150
:104160000E94CD200E94DB26DF91CF911F910F91FD
:10417000FF90EF90DF90BF90AF909F908F900C9446
:104180009A25DF91CF911F910F91FF90EF90DF90D3
:10419000BF90AF909F908F9008950F931F93CF93F0
:1041A000DF93EC01988189812B813C81232B31F0B5
:1041B0008F3F31F481E09F3F19F403C081E001C0DB
:1041C00080E080FD13C0CE010E94C509882371F0F4
:1041D000688179818A810E94B8268C010E94162606
:1041E0000E940725B801CE010E94AF1EDF91CF913A
:1041F0001F910F9108950E945F270E946F27809161
:104200000001909101010E9422280E940C2780E069
:1042100090E00E94811C80E090E00C94971C0E942A
:104220004F270C94FB200E94AD26E92FE295EF70FA
:104230004E2F50E0FA013297EE30F105B0F4E3571B
:10424000FF4F0C947E31803F91F018F4803E68F46B
:104250000EC0843F51F40BC0803E48F0813F29F4EA
:1042600006C093FB882780F9089580E0089581E0D7
:104270000895CF93DF9300D000D01F92CDB7DEB763
:104280000F900F900F900F900F90DF91CF910895A6
:10429000CF93DF9300D000D000D0CDB7DEB7269605
:1042A0000FB6F894DEBF0FBECDBFDF91CF9108955A
:1042B0001F93CF93DF93C091FA0216E08091FB0227
:1042C000C81799F0D0E01C9FF0011D9FF00D11243C
:1042D000E450FD4F408151816281738184819581D9
:1042E0000E9448212196C770E9CFDF91CF911F919D
:1042F000089540912C0350912D0360912E037091ED
:104300002F0380913003909131030C944821CF9377
:104310008091310382958F7009F05FC080912E03E8
:10432000882309F45AC08091FA02B091FB0270917F
:104330002C03A0912D0340912F035091300391E065
:104340007F3F09F090E0692FC6E08B1709F445C064
:104350004115510521F0AF3F21F020E003C021E0DD
:1043600001C0262F90E020FD35C0C89FF001C99FF5
:10437000F00D1124E450FD4F21812A132BC0208120
:10438000271328C02281211125C0238134812417BD
:10439000350710F421503109241B350B283C310519
:1043A000C8F4209131032F7020612093310326E05F
:1043B000289FF001299FF00D1124EF5FFC4F8081B1
:1043C0008F70806180838CE293E00E94CD20CF913A
:1043D0000C94582101968770B8CFCF910895AF9271
:1043E000BF92CF92DF92EF92FF920F931F93CF93E2
:1043F000DF93CDB7DEB761970FB6F894DEBF0FBE7F
:10440000CDBF8C0185E0F801DE011D9601900D9273
:104410008A95E1F7D8014C9111965C91119712960B
:10442000EC9030912C0360912D0380912F0390919B
:104430003003009731F06F3F31F421E03F3F19F432
:1044400003C021E001C020E0B22FB170BB2E20FDDF
:1044500060C1F801C380D480A0902E03AA2009F483
:10446000EEC020913103C816D90628F0D601A81B4A
:10447000B90BCD0104C0809590958C0D9D1DFF2436
:10448000F394883C910580F0F12C207F09F09CC0CA
:104490007C2DD98AC88A6E2D89890E9439218CE2A7
:1044A00093E00E94CD202DC1822F807F09F054C05F
:1044B000561314C0431312C0FE2CE1100FC02F700E
:1044C0002061209331030E9479218CE293E00E94C5
:1044D000CD2080913103F80185835CC1CD2831F076
:1044E0005F3F31F481E04F3F19F403C081E001C028
:1044F00080E080FD03C081E08E2502C080E090E076
:10450000F82FF170FF2E80FF1CC08091FA022091DD
:10451000FB0236E0821709F41AC190E0389FF001DF
:10452000399FF00D1124E450FD4F6181561306C0F0
:104530006081461303C06281E61203C00196877052
:10454000E9CFFE2CEE2009F425C180913103816072
:1045500080933103F12C1EC1561309C0431307C0C9
:10456000E11005C080913103F8018583A4C04D8717
:104570005E878D859E850E941321882379F1EE2028
:1045800069F120913103822F82958F7090E002971C
:1045900074F080912C0390912D0398878F83198656
:1045A000DB86CA862C87CE0107960E94CD2086E046
:1045B000F801ACE2B3E001900D928A95E1F70E9418
:1045C00087210E9479210DC0561771F04D875E87B3
:1045D0008D859E850E94132181111AC0C8010E94F9
:1045E000CD20FF24F394D6C04313F0CFE110EECFDB
:1045F00080913103F8018583C8010E94CD2086E0B7
:10460000ECE2F3E0DF011D928A95E9F7FA2CC2C0D3
:10461000EE2021F320913103822F82958F7090E05C
:1046200002972CF280912C0390912D039A83898319
:104630001B82DD82CC822E83CE010196B6CFC816B6
:10464000D90628F0F601E81BF90BCF0104C08095CC
:1046500090958C0D9D1D883C910548F0F12C7C2D8A
:10466000D98AC88A6E2D89890E9439214AC0FE2CB8
:10467000EE2009F4B3CF561333C0431331C0209159
:10468000310320FD24C0822F82958F70482F50E087
:1046900041155105E1F0D80115962C9315974F302F
:1046A000510549F08F5F982F9295907F822F8F70E0
:1046B000892B15968C93C8010E94CD2086E0F801C5
:1046C000ACE2B3E001900D928A95E1F73DC086E03F
:1046D000F801ACE2B3E001900D928A95E1F75AC07F
:1046E0004D875E878D859E850E94132181115FCF46
:1046F00080913103816080933103C8010E94CD20F5
:1047000049C0ECE2F3E086E0DF011D928A95E9F70B
:104710001BC0EE2009F462CF4D875E878D859E8594
:104720000E941321F82E882309F458CF86E0F8015F
:10473000ACE2B3E001900D928A95E1F78CE293E050
:104740000E94AC1D0E9487210E94792123C04D87C1
:104750005E878D859E850E94AD26292F22952F701C
:10476000223028F49F7039F0811105C00BC024302D
:1047700028F49F7049F4805E883020F0C8010E94C0
:10478000CD20BF2CFB2C06C0D80115969C91907FA4
:1047900091F7F8CF8F2D61960FB6F894DEBF0FBE5C
:1047A000CDBFDF91CF911F910F91FF90EF90DF90E0
:1047B000CF90BF90AF9008951F93CF93DF93CDB765
:1047C000DEB72C970FB6F894DEBF0FBECDBF4F8378
:1047D000588769877A878B879C87CE0107960E94C6
:1047E000EF218823D1F09F8188852A853B85232B63
:1047F00031F08F3F31F481E09F3F19F403C081E035
:1048000001C080E080FD47C04F81588569857A8569
:104810008B859C850E9448213EC086E0FE0137962C
:10482000DE01119601900D928A95E1F7FF81E885EE
:104830006A857B856115710531F0EF3F31F481E0C8
:10484000FF3F19F403C081E001C080E080FD23C078
:104850002091FB0230E0C9010196877099274091B1
:10486000FA0250E084179507F1F1F983EA837D831A
:104870006C8396E0929FD001939FB00D1124A450B9
:10488000BD4FFE01319601900D929A95E1F780930C
:10489000FB020E94582116E08091FA029091FB02DF
:1048A000891771F1189FC001112484509D4F0E94F7
:1048B000EF21882329F1E091FA021E9FF0011124D3
:1048C000E450FD4F408151816281738184819581E3
:1048D0000E9448218091FA0290E001968770992702
:1048E0008093FA02D9CF0E940F211092FB021092FE
:1048F000FA02ECE2F3E086E0DF011D928A95E9F727
:104900002C960FB6F894DEBF0FBECDBFDF91CF91CE
:104910001F910895EF92FF920F931F93CF93DF9310
:104920008C01892B09F46CC0F12CEE24E394E8018E
:104930002196F8018491843740F4843008F051C006
:10494000813081F0823019F15BC0853709F444C0B1
:10495000A8F19CE7980F903708F052C08F770E941B
:10496000751E41C00E5F1F4FFE01849190E2980FAB
:10497000983050F48770FE2D01C0FF0F8A95EAF73A
:104980008F2F0E94622714C00E94B21D2DC00E5F9F
:104990001F4FFE01849190E2980F983060F4877069
:1049A000FE2D01C0FF0F8A95EAF78F2F0E9468271E
:1049B0000E940C2719C00E94751E16C00E5F1F4F63
:1049C000FE01C491CC2381F08FE99FE00197F1F7BC
:1049D00000C00000C150F6CF0E5F1F4FFE01F490E3
:1049E00003C00E94B21D8E018F2D882309F49FCF32
:1049F000EFE9FFE03197F1F700C000008150F5CFFB
:104A0000DF91CF911F910F91FF90EF90089508953E
:104A100008950C9408250C9409250E940B25609399
:104A2000D6037093D7038093D8039093D9030C9443
:104A3000FB200C940D250F931F930091D60310912A
:104A4000D7032091D8033091D903602B712B822B8F
:104A5000932B1F910F910C940D250F931F93009191
:104A6000D6031091D7032091D8033091D903602346
:104A70007123822393231F910F910C940D250F9383
:104A80001F930091D6031091D7032091D803309142
:104A9000D90360277127822793271F910F910C94C8
:104AA0000D250C9408250E9451256093D203709324
:104AB000D3038093D4039093D5030C94FB2060E040
:104AC00070E0CB010C9453250F931F9341E050E00D
:104AD00060E070E08A019B0104C0000F111F221FDB
:104AE000331F8A95D2F7C901B8011F910F910C9419
:104AF00053250F931F9341E050E060E070E004C045
:104B0000440F551F661F771F8A95D2F78091D203F5
:104B10009091D303A091D403B091D5038A019B0156
:104B2000082B192B2A2B3B2BC901B8011F910F9180
:104B30000C9453250F931F9341E050E060E070E028
:104B400004C0440F551F661F771F8A95D2F7409502
:104B50005095609570958091D2039091D303A09168
:104B6000D403B091D5038A019B01082319232A237A
:104B70003B23C901B8011F910F910C9453250F934A
:104B80001F9341E050E060E070E004C0440F551F07
:104B9000661F771F8A95D2F78091D2039091D30335
:104BA000A091D403B091D5038A019B01082719274E
:104BB0002A273B27C901B8011F910F910C94532557
:104BC0000F931F930091D2031091D3032091D4032C
:104BD0003091D503602B712B822B932B1F910F915A
:104BE0000C9453250F931F930091D2031091D3037C
:104BF0002091D4033091D503602371238223932322
:104C00001F910F910C9453250F931F930091D20382
:104C10001091D3032091D4033091D50360277127DD
:104C2000822793271F910F910C945325089520E11B
:104C3000929F800D1124E82FE695E695E695877002
:104C400051E001C0550F8A95EAF785E0E89FF00131
:104C50001124EE5CFC4F20E030E070E04081CB019D
:104C6000022E02C0969587950A94E2F7817081958D
:104C700084278523842781932F5F3F4F253031057B
:104C800069F7089520E1929F800D1124682F6695A1
:104C900066956695982F977085E0689FB0011124FE
:104CA00040E050E080E0FB01E40FF51FEE5CFC4FBC
:104CB000208130E0092E02C0369527950A94E2F74C
:104CC00021703327042E01C0220F0A94EAF7822BA9
:104CD0004F5F5F4F4530510531F70895CF92DF9216
:104CE000EF92FF920F931F93CF93DF938C01C090AD
:104CF000D203D090D303E090D403F090D5038091F9
:104D0000D6039091D703A091D803B091D903C82AB4
:104D1000D92AEA2AFB2ACFE1D0E0D701C6010C2E1E
:104D200004C0B695A795979587950A94D2F780FD0C
:104D300004C0219790F780E007C0B8018C2F0E9433
:104D4000630B0197B1F38C2FDF91CF911F910F91DE
:104D5000FF90EF90DF90CF900895CF93DF93EC0119
:104D60000E946E26BE010E94630BDF91CF910895D1
:104D70001F93CF93DF93EB019091F902992321F0D8
:104D8000CB010E94AD2613C0882349F0CB010E94BD
:104D90006E26182F682FCE010E94172604C0CB0163
:104DA0000E944226182FBE01812F0E94630BDF91C3
:104DB000CF911F9108958091DA038595859585950A
:104DC00008958091DA038770089598E0899F900193
:104DD0001124262B2093DA030C9479252091DA03F1
:104DE000809582238093DA03982F977069F430E0DE
:104DF000482F082E000C550B2417350729F08595F0
:104E0000859585950C949A2508959091DA0397706D
:104E100081E009F480E00895E0910001F091010142
:104E20008091E6038083E0910001F091010190817F
:104E30008091E503892B8083E0910001F0910101CD
:104E400090818091E403892B80838091DB03882308
:104E500081F0E0910001F09101019081892B808324
:104E600080910001909101010E94EB278111109225
:104E7000DB0380910001909101010C94761C8091DC
:104E8000E60308959091E603892B8093E603089545
:104E900080959091E60389238093E603089510920C
:104EA000E60308959091E503892B8093E503089527
:104EB00080959091E50389238093E50308951092EE
:104EC000E50308959091E403892B8093E40308950A
:104ED00080959091E40389238093E40308951092D0
:104EE000E40308958093DB0308951092DB03089593
:104EF0008091DB03089580E090E00E948C3121E0F6
:104F00008D3E9E4F09F020E0822F089582E090E0D0
:104F10000C94843183E090E00C94843184E090E040
:104F20000C948431682F84E090E00C949231AB01B2
:104F3000BC018FE090E00C94A431AB01BC0183E193
:104F400090E00C94A43160E070E0CB010C949D27BC
:104F500060E070E0CB010E9497270C94A3276DEED0
:104F60007EEF80E090E00E94B03160E082E090E06F
:104F70000E94923160E083E090E00E9492311092B2
:104F8000D6031092D7031092D8031092D90360E091
:104F900084E090E00E94923160E085E090E00E9421
:104FA000923160E086E090E00E9492316FEF87E0FE
:104FB00090E00E94923140E050E0BA0188E090E039
:104FC0000E94A43160E08DE090E00E9492310C9448
:104FD000A8270C94AF27FC01329697E080E091500F
:104FE00029F021912223D9F38F5FF9CF08959C01F5
:104FF000FC0132969FEF80E04191461789F09F3F78
:1050000019F4411101C0982F8F5F8630A9F79F3F97
:1050100039F0F901E90FF11D97FDFA9562830895C2
:1050200008959C012A5F3F4FFC014281461301C055
:105030001282019682179307B9F708950C94F72707
:105040000C941128029626E0FC0111922A95E9F7AA
:10505000089508950C9429280C942928CF930E9430
:105060002C280E9426060E942A28C0E08C2F0E942D
:10507000DC06892B29F4CF5FC031C1F780E001C085
:1050800081E0CF9108950C9429280C9443280E9424
:1050900045288091FE03843049F11092E80320E412
:1050A00088E190E00FB6F894A895809360000FBE59
:1050B0002093600080E00E940A070E94452883B781
:1050C000817F846083BF83B7816083BF7894889534
:1050D00083B78E7F83BF0FB6F894A8958091600048
:1050E000886180936000109260000FBE08950C9458
:1050F00029280E940F210E946A1C0E940A070C9412
:1051000077281F920F920FB60F9211248F939F93BF
:10511000AF93BF938091E803811113C08091F40392
:105120009091F503A091F603B091F7034196A11D6C
:10513000B11D8093F4039093F503A093F603B0930D
:10514000F703BF91AF919F918F910F900FBE0F907A
:105150001F90189582E084BD93E095BD9AEF97BDAE
:1051600080936E0008952FB7F8948091F403909186
:10517000F503A091F603B091F7032FBF08952FB761
:10518000F8946091F4037091F5038091F603909187
:10519000F7032FBF0895CF92DF92EF92FF920F9304
:1051A0001F932FB7F8944091F4035091F503609149
:1051B000F6037091F7032FBF6A017B01EE24FF24F1
:1051C0008C0120E030E0C016D106E206F30610F4B0
:1051D000415051099A01281B390BC9011F910F91A8
:1051E000FF90EF90DF90CF90089578941F920F92E8
:1051F0000FB60F9211248F939F93AF93BF9380911B
:10520000F4039091F503A091F603B091F703019692
:10521000A11DB11D8093F4039093F503A093F603B1
:10522000B093F703BF91AF919F918F910F900FBEF5
:105230000F901F90189587E797E790930108809348
:1052400000089AE088E10FB6F894A8958093600072
:105250000FBE90936000FFCF0E947B27811102C098
:105260000E94E9270E9486278093E7030E948E27E9
:1052700090E09093F9038093F8030E948A27682FA7
:1052800070E080E090E00C9419258091F10308957E
:1052900008950F931F93CF93DF9300D01F92CDB744
:1052A000DEB78C010E946B2B823011F0843021F527
:1052B00084E089831B830A8382E08093E9008FEF77
:1052C0009091E800815095FD06C095ED9A95F1F713
:1052D00000008111F5CF8091E80085FF0DC040E00E
:1052E00050E063E070E0CE0101960E94882B80912F
:1052F000E8008E778093E8000F900F900F90DF9179
:10530000CF911F910F910895CF93DF9300D01F92FB
:10531000CDB7DEB72091FE03243031F523E0298399
:10532000805891099B838A8382E08093E9008FEF04
:105330009091E800815095FD06C095ED9A95F1F7A2
:1053400000008111F5CF8091E80085FF0DC040E09D
:1053500050E063E070E0CE0101960E94882B8091BE
:10536000E8008E778093E8000F900F900F90DF9108
:10537000CF910895CF93DF93EC010E946B2B823085
:1053800011F0843039F581E08093E9008FEF90913E
:10539000E800815095FD06C095ED9A95F1F7000063
:1053A0008111F5CF8091E80085FF14C040E050E006
:1053B00068E070E0CE010E94882B8091E8008E7733
:1053C0008093E80088E0FE01A9EEB3E001900D9221
:1053D0008A95E1F7DF91CF9108958091FD038111C6
:1053E00009C00E94192D0E94762D8091E2008460F0
:1053F0008093E20008951092FD03089508950895A2
:105400000C94792842E061EC81E00E94922C42E207
:1054100061EC82E00C94922C80910004833009F4BA
:1054200053C030F4813071F0823009F48CC008959B
:105430008A3009F478C08B3009F45EC0893009F0F5
:105440009AC020C08091FF03813A09F094C08091F6
:10545000E800877F8093E800809103049091040422
:10546000892B21F468E089EE93E003C060E080E0DE
:1054700090E070E00E94D32B8091E8008B778093BE
:10548000E80008958091FF03813209F074C0809193
:10549000030490910404029708F06DC08091E80025
:1054A000877F8093E8008091E80082FD05C08091AD
:1054B000FE038111F8CF5FC08091F1008093F1036A
:1054C0008091E8008B7753C08091FF03813A09F007
:1054D00052C08091030490910404892B09F04BC0C1
:1054E0008091E800877F8093E8008091E80080FF4A
:1054F000FCCF80910C0136C08091FF038132D9F539
:105500008091030490910404892BA9F58091E8000F
:10551000877F8093E8000E94C72C809101048093CC
:105520000C010C940F218091FF03813221F58091B1
:10553000E800877F8093E8000E94C72C80910204D6
:105540008093F20308958091FF03813AA1F4809142
:10555000E800877F8093E8008091E80080FFFCCF1F
:105560008091F2038093F1008091E8008E77809320
:10557000E8000C94C72C089580E0089584B7877FD5
:1055800084BF0FB6F894A8958091600088618093DD
:105590006000109260000FBE80E88093610010925E
:1055A00061000E94B51C0E94192D0E94762D8091E9
:1055B000E20084608093E20078940E940B300E94A5
:1055C000BB1C82E091E00E94651C8091FE03853047
:1055D00069F40E9447288091FC038823B1F30E945C
:1055E0002E28882391F30E94722BEFCF0E94C11CBA
:1055F000ECCF0C94FB2A292F332723303105C9F037
:1056000060F42130310581F02230310509F04AC0C3
:105610008BE390E02CE835E049C02132310511F1EF
:105620002232310579F13EC082E190E027EC35E08D
:105630003DC099278130910561F040F0823091059D
:1056400059F0039779F5EAE4F5E008C0E8E8F5E0F9
:1056500005C0EEE7F5E002C0E0E5F5E0849190E0FA
:105660009F0124C06115710541F061307105D1F4CD
:1056700089E090E027EB35E019C089E090E02EE961
:1056800035E014C06115710541F06130710551F4C8
:1056900086E390E029ED35E009C080E490E02FE05A
:1056A00036E004C080E090E020E030E0FA01318391
:1056B000208308950895CF93C82F0E945A2BC0933A
:1056C000F303CF9108958091FE03843011F081E0BF
:1056D000089582E008958091F303811102C00C9433
:1056E000632B089580E189BD82E189BD09B400FE84
:1056F000FDCF8091D8008F7D8093D8008091E0000D
:1057000082608093E0008091E00081FDFCCF0895ED
:10571000CF92DF92EF92FF920F931F93CF93DF937D
:10572000EC018B017A010E94E62C811133C0E11457
:10573000F10439F0F70180819181081B190BC80F22
:10574000D91FC12CD12C0115110519F18091E80048
:1057500085FD16C08091E8008E778093E800E11403
:10576000F10449F0F70180819181C80ED91ED182E0
:10577000C08285E00FC00E94E62C882321F30AC076
:1057800089918093F10001501109FFEFCF1ADF0AD0
:10579000DACF80E0DF91CF911F910F91FF90EF90D2
:1057A000DF90CF90089520910504309106042617CC
:1057B000370748F06115710539F42091E8002E771C
:1057C0002093E80001C0B901FC0120E061157105DA
:1057D00079F18091FE038823F1F18530F1F1809118
:1057E000E80083FD3CC08091E80082FD2EC08091DE
:1057F000E80080FFEBCF2091F3008091F20090E071
:10580000922B6115710551F08830910538F4219182
:105810002093F100615071090196F3CF21E00897C0
:1058200009F020E08091E8008E778093E800CECFE9
:105830002111CFCF0AC08091FE03882361F085300B
:1058400061F08091E80083FD0AC08091E80082FF4A
:10585000F2CF80E0089582E0089583E0089581E02A
:10586000089520910504309106042617370748F063
:105870006115710539F42091E8002E772093E80036
:1058800001C0B901FC0120E06115710591F1809121
:10589000FE03882309F440C0853009F43FC080919D
:1058A000E80083FD3DC08091E80082FD2FC080911B
:1058B000E80080FFE9CF2091F3008091F20090E0B2
:1058C000922B6115710559F08830910540F42491AF
:1058D0002093F1003196615071090196F2CF21E0D9
:1058E000089709F020E08091E8008E778093E80027
:1058F000CBCF2111CCCF0AC08091FE03882361F069
:10590000853061F08091E80083FD0AC08091E80055
:1059100082FFF2CF80E0089582E0089583E0089549
:1059200081E00895982F973068F59093E9009817D3
:1059300039F07091EC002091ED005091F00003C01F
:10594000242F762F50E021FD02C09F5FECCF3091D5
:10595000EB003E7F3093EB003091ED003D7F3093C4
:10596000ED003091EB0031603093EB007093EC0070
:105970002093ED005093F0002091EE0027FDE5CF3D
:1059800080E008958F708093E90081E00895809110
:10599000FF0387FF11C08091E80082FD05C0809160
:1059A000FE038111F8CF11C08091E8008B770BC006
:1059B0008091FE03882349F08091E80080FFF8CFB2
:1059C0008091E8008E778093E80008952091E400AC
:1059D0003091E50095E64091EC00842F817040FF06
:1059E00023C08091E80080FD1DC08091FE038823C4
:1059F00099F0853099F08091EB0085FD11C04091C0
:105A0000E4005091E5002417350729F3915011F077
:105A10009A01E1CF84E0089582E0089583E008953B
:105A200081E0089580E008954091E80042FFDDCFD5
:105A300008950E94872D0E948F2DE0EEF0E0808176
:105A400081608083E8EDF0E080818F77808319BCEE
:105A5000A7EDB0E08C918E7F8C9380818F7E8083C8
:105A60001092FD0308950F931F93CF93DF930E942D
:105A7000872D0E948F2DC8EDD0E088818F77888395
:105A800088818068888388818F7D888319BC109283
:105A9000FE031092FA031092FC031092FB0300EE37
:105AA00010E0F80180818B7F80838881816088830A
:105AB00042E060E080E00E94922CE1EEF0E0808124
:105AC0008E7F8083E2EEF0E0808181608083808140
:105AD00088608083F80180818E7F808388818061E7
