:100000000C947E020C94D0020C94D0020C94D0027A
:100010000C94D0020C94D0020C94D0020C94D00218
:100020000C94D0020C94D0020C9416200C94E8206E
:100030000C94FF2E0C94D0020C94D0020C94D0029D
:100040000C94D0020C94D0020C94D0020C94D002E8
:100050000C94D0020C940D0C0C94D0020C94D00291
:100060000C94D0020C94D0020C94D0020C94D002C8
:100070000C94D0020C94D0020C94D0020C94D002B8
:100080000C94D0020C94D0020C94D0020C94D002A8
:100090000C94D0020C94D0020C94D0020C94D00298
:1000A0000C94D0020C94D0020C94D00255217721EC
:1000B0006A2277216A22BC21DF216A223422472268
:1000C0002F252F2559255925B425E825D827D827A8
:1000D000FF25D827EA26EA26B027D827D827C5271C
:1000E000808080800405060708090A0B0C0D0E0F9E
:1000F000101112131415161718191A1B1C1D1E1F88
:10010000202122232425262728292A2B2C2D2E2F77
:10011000303132333435363738393A3B3C3D3E3F67
:10012000404142434445464748494A4B4C4D4E4F57
:10013000505152535455565758595A5B5C5D5E5F47
:10014000606162636465666768696A6B6C6D6E6F37
:100150007071727380808080808080808080800356
:100160000201808080668075007476778080808050
:100170007677808080808080808080808080808092
:10018000808080808080808080808080808080806F
:10019000808080808080808080808080808080805F
:1001A000808080808080808080808080808080804F
:1001B000808080808080808080808080808080803F
:1001C00078797A7B7C7D7E7F808080808080808053
:1001D000808080808080808080808080808080801F
:1001E0000A00253031366200253032643A20000A98
:1001F000722F63203031323334353637383941424B
:10020000434445460A0073706565643A2025730AC5
:10021000007573625F73746174653A2025303258DB
:100220000A00686F73742E5461736B3A2025640A58
:10023000000D0A0020253032580073746174653A4D
:10024000202025303258202530325800526F6C6CF7
:100250006F766572206572726F723A2069676E6F91
:100260007265640D0A000D0A0020253032580069BD
:100270006E7075742025643A000A4B6579626F616F
:1002800072642073746172742E0A000A55534220FE
:10029000636F6E666967757265642E0A000A0A5498
:1002A0004D4B3A38336530613564612B2F4C5546E0
:1002B000410A0A003C03550053004200200074002C
:1002C0006F00200055005300420020006B006500C5
:1002D000790062006F00610072006400200063001A
:1002E0006F006E0076006500720074006500720099
:1002F00000000E0374002E006D002E006B002E0017
:1003000000000403090409027400040100A032097A
:100310000400000103010100092111010001224034
:10032000000705810308000A090401000103010216
:1003300000092111010001224D0007058203080078
:100340000A09040200010300000009211101000153
:100350002236000705830308000A0904030002038C
:100360000000000921110100012222000705840379
:100370002000010705040320000112011001000004
:100380000008EDFE5B001408010200010631FF09C0
:1003900074A1010975150026FF00952075088102DA
:1003A0000976150026FF00952075089102C0050109
:1003B0000980A10185021601002637001A81002A52
:1003C000B700751095018100C0050C0901A10185D8
:1003D00003160100269C021A01002A9C0275109542
:1003E000018100C005010902A1010901A10005095F
:1003F0001901290515002501950575018102950151
:10040000750381010501093009311581257F9502A8
:100410007508810609381581257F950175088106C3
:10042000050C0A38021581257F950175088106C0E3
:10043000C005010906A101050719E029E7150025F6
:10044000019508750181029501750881010508195A
:100450000129059505750191029501750391010525
:1004600007190029FF150026FF0095067508810071
:10047000C0636F6E73756D65723A20253034580A0B
:100480000073797374656D3A20253034580A000A78
:10049000002530325820006B6579626F6172643AD2
:1004A00020004C45443A20253032580A00290A00E1
:1004B0002575002F002575005D28002564002000AB
:1004C000256400200025640020002564007C0025B0
:1004D000303258006D6F7573656B6579205B62749F
:1004E0006E7C782079207620685D287265702F6197
:1004F000636C293A205B0000A00A610B11241FBE27
:10050000CFEFDAE0DEBFCDBF04B603FE27C0809197
:10051000950590919605A0919705B0919805873023
:10052000904BA740B04BD1F41092950510929605D0
:10053000109297051092980514BE84B7877F84BFE8
:100540000FB6F894A8958091600088618093600050
:10055000109260000FBEE0E0F8E3099511E0A0E022
:10056000B1E0E0E4F7E602C005900D92AE39B107C4
:10057000D9F725E0AEE9B1E001C01D92A539B20777
:10058000E1F712E0CEE7D2E004C02197FE010E941D
:100590008433CC37D107C9F70E94DD1C0C949E33FD
:1005A0000C940000FF93EF93E0919E01F0919F0166
:1005B000309709F00995EF91FF910895FC0185911D
:1005C000803011F0EFDFFBCF0895FF27E0E230E24B
:1005D00047FF0CC0419597FF09C0EDE2609570950B
:1005E00080959095611D711D811D911D27FF02C091
:1005F000219530E350E2AA27660F771F881F991FC5
:10060000AA1FA41710F0A41B63955A95A9F7AA3046
:1006100008F0A95FA05DAF93F395611571058105A1
:10062000910541F7ED3211F4EF93F395F21718F4B9
:100630003F93F395FBCF8F91B5DFFA95E1F70895DE
:10064000E991F9918591803021F0853219F0AADF86
:10065000F9CF089520E0E89455915532C1F3503315
:1006600011F4689455915A3348F4505390F3220F83
:10067000022E220F220F200D250FF4CF0EF421950C
:1006800089919991533619F3533729F1533559F11B
:10069000BC0188279927E8945C3621F489919991C7
:1006A00068945591543639F446EF7EF077FF0DC0CB
:1006B0008FEF9FEF0AC055374AE039F0583540E1D7
:1006C00021F0523642E009F00895FF93EF937DDF69
:1006D000EF91FF91B7CFFF93EF93FC0181918030B1
:1006E000B9F360DFFBCFFF93EF9368DFF1CFDF93C8
:1006F000CF93CDB7DEB72596A3DFCF91DF910895D5
:100700000F931F93CF93DF93EC01488159816A8146
:100710007B818C810E945D2D8C018430910520F1BC
:100720008237910520F083579109C297E8F4CA8176
:10073000CC2361F082E70E944C248091A0018F5F5E
:100740008093A001802F0E944C2411C0802F0E9412
:10075000AC248091A00181508093A001811106C03A
:1007600082E70E94AC2402C0C0E001C0C1E08C2F2F
:10077000DF91CF911F910F91089580E00895089522
:1007800080E0089581E00895CF93DF93CDB7DEB781
:1007900028970FB6F894DEBF0FBECDBFE22F298396
:1007A0003A834B835C836D837E838F8398878091AC
:1007B000DD02E82BE093DD02FE013396AE01475FD8
:1007C0005F4F2191243088F0AFEDB2E080E090E0FF
:1007D0003D91311106C0DC01A352BD4F12962C93FE
:1007E00004C001968630910599F7E417F50749F79B
:1007F00028960FB6F894DEBF0FBECDBFDF91CF9124
:100800000895860F911D860F911DFC01568745871F
:1008100081E00895FC0187890895CF93DF93EC016F
:100820008C819D81DC01ED91FC910480F581E02DAE
:100830006E8109951F86188A81E08A8B1E821B8A29
:100840001C8A1D8A1E8A1F8A80E0DF91CF9108953D
:10085000FC018681089581E0633009F080E008950D
:1008600081E0613009F080E00895860F911D860FC8
:10087000911DFC01858596850895EF92FF92CF9397
:10088000DF93DC01E70152968C915297823049F157
:100890001F966C931F9750964C9350979B81937023
:1008A0009330F9F49A8197FF1CC09E8158962C9141
:1008B0005897291718F458969C935897E82FF0E00A
:1008C0009F01220F331FE20FF31FEA0FFB1F9A81D4
:1008D0009F7097839C81908794E091878F5F529659
:1008E0008C93DF91CF91FF90EF900895EF92FF925C
:1008F0000F9302970E943D040F91FF90EF9008958F
:100900000895CF92DF92EF92FF920F931F93CF93B0
:10091000DF93CDB7DEB762970FB6F894DEBF0FBE98
:10092000CDBFDC0157962C91222381F06C010E94EF
:10093000720BF6010389148925893689DC01CB0104
:10094000801B910BA20BB30BB7FF02C0F12C3AC076
:10095000838590E09A8B898BE12C8E010F5F1F4F6E
:100960009E012F5E3F4F42856681848195810E9462
:100970006514F82E811118C029893A892330310570
:1009800098F0D6011D968D919C911E97009761F06D
:10099000DC01ED91FC910190F081E02D8E010F5F63
:1009A0001F4F40E0B60109950E94720BF601208DA1
:1009B000DC01CB01820F911DA11DB11D838B948B96
:1009C000A58BB68B8F2D62960FB6F894DEBF0FBE47
:1009D000CDBFDF91CF911F910F91FF90EF90DF90EE
:1009E000CF9008952F923F924F925F926F927F9295
:1009F0008F929F92AF92BF92CF92DF92EF92FF922F
:100A00000F931F93CF93DF93CDB7DEB7EB970FB65E
:100A1000F894DEBF0FBECDBFDC0116965C9051107E
:100A200019C1422E242E362E7C01FC01A480B580F3
:100A3000108ED501ED91FC910190F081E02D60E0E8
:100A4000C50109956C01009719F446ED542E0FC1AC
:100A5000FC01808091808114910409F4FEC037016B
:100A6000F7E06F0E711CDC0111967C926E92149669
:100A70004C928E01065D1F4F28E030E040E060E0C0
:100A8000F701848195810E942712182F8111EBC0F4
:100A90001AA5D6018D929C92D501ED91FC91028010
:100AA000F381E02D222D40E0632DC5010995F7016A
:100AB0008683882309F4D4C099A99087282F40E021
:100AC00060E0848195810E94D212982ED501ED912B
:100AD000FC91D60114961C92882361F00480F58164
:100AE000E02DD70116966C91C5010995F701168284
:100AF000592CBDC00190F081E02DD70116966C9164
:100B0000C5010995009709F4A0CF212F133108F0F2
:100B100022E1FC01448221110FC03BAC412C35E2A3
:100B2000832E31E0932E5701F2E0AF0EB11C6E011F
:100B300081E1C80ED11C38C030E08E01065D1F4F28
:100B400040E0D70116966C91169714968D919C9162
:100B500015970E942712182F811172C0DECF9A823A
:100B60008982BC82AB821E86188A1F8619A21AA2AD
:100B70001BA219A6DF82CE82D986C8868D818B877B
:100B80008A87DD86CC868E010F5F1F4F242D40E0C3
:100B9000F7016681848195810E947512D701529672
:100BA0008C91823019F043944310D9CFF701828998
:100BB000823009F044C0930142E0668184819581CE
:100BC0000E945D0D68EE73E080E090E00E94740B7F
:100BD000D7011F962C911F9740E016966C9116979F
:100BE00014968D919C9115970E944014182F811195
:100BF00027C068EE73E080E090E00E94740BF7017C
:100C0000418D60E0C7010E944916182F811118C05C
:100C100020E040E060E0C7010E941F168BE291E0F7
:100C20009A838983AE014F5F5F4F60E070E0C70138
:100C30000E94AF1581E0D70157968C9318C011ED33
:100C4000D701ED91FC910480F581E02DC701099554
:100C5000512E0DC029ED522E0AC097ED592E07C016
:100C600084ED582E04C0F60191828082E9CF852D53
:100C7000EB960FB6F894DEBF0FBECDBFDF91CF91DC
:100C80001F910F91FF90EF90DF90CF90BF90AF90AA
:100C90009F908F907F906F905F904F903F902F909C
:100CA00008953F924F925F926F927F928F929F92A0
:100CB000AF92BF92CF92DF92EF92FF920F931F936A
:100CC000CF93DF9300D000D0CDB7DEB76C017C832B
:100CD0006B835A8349834C0180E1880E911C560135
:100CE000A7E0AA0EB11C11E084E0482E3601B2E163
:100CF0006B0E711C93E0392E22E0522E8B819C8169
:100D0000892B09F4FBC0F60180A1823059F128F447
:100D1000882341F0813071F0F1CF833039F1843094
:100D2000C1F1ECCF5482858196819087878352866A
:100D3000518610A3AE014D5F5F4FBE016F5F7F4FC5
:100D4000C5010E943D1A882309F4D8C0D601159622
:100D5000ED91FC911697808191968C93919781816A
:100D600092968C93F6017682658230A2D601929695
:100D70008C919297843011F493961C92F60181A184
:100D800082508483258136813087278382878187BB
:100D900040A2D60192968C918430B1F0853009F44E
:100DA00042C0823009F06EC0AE014D5F5F4FBE01A0
:100DB0006F5F7F4FC5010E943D1A882309F49EC0D2
:100DC000F601858984A392C0AE014D5F5F4FBE01DD
:100DD0006F5F7F4FC5010E943D1A882309F48EC0C2
:100DE000D60155968C915597833009F07FC0569661
:100DF0008C915697813009F079C098969C9198977C
:100E000057968C91992321F0882309F46FC003C071
:100E1000813009F06BC0F60113A3928996A39389E0
:100E200097A385A363C0AE014D5F5F4FBE016F5FA7
:100E30007F4FC5010E943D1A882309F45FC0D60187
:100E400093968C919397882309F450C012968D91B4
:100E50009C911397009709F449C0DC01ED91FC9136
:100E60000190F081E02D7401D60195960C91959733
:100E700097962C91979796964C91969794966C91FD
:100E8000099534C0F6018585882319F0813039F041
:100E900028C081A190E002979787868715872B81CC
:100EA0003C8189819A81782F692FF6014685578583
:100EB0004115510581F001962115310529F41C8257
:100EC0001B8279836A830DC0415051095787468739
:100ED00021503109E8CF3C832B839A838983F60123
:100EE0001586F60186859785892B41F4D6011696DD
:100EF0009C928E92159790961C9200CF0F900F9017
:100F00000F900F90DF91CF911F910F91FF90EF9075
:100F1000DF90CF90BF90AF909F908F907F906F9019
:100F20005F904F903F900895EF92FF920F931F9321
:100F3000CF936091FB017091FC01E091A801F091C9
:100F4000A9014091EF015091F0012091E30130910E
:100F5000E4018091D7019091D8016E177F07B1F419
:100F6000E091A601F091A7014E175F0779F4E09197
:100F7000A401F091A5012E173F0741F4E091A201D1
:100F8000F091A3018E179F0709F49FC07093A901E8
:100F90006093A8015093A7014093A6013093A50147
:100FA0002093A4019093A3018093A201EDEDF2E0C0
:100FB00088E0DF011D928A95E9F72091F3013091D5
:100FC000F4014091F5015091F6016091F7017091A3
:100FD000F8018091F9019091FA010E94C4032091D7
:100FE000E7013091E8014091E9015091EA016091F7
:100FF000EB017091EC018091ED019091EE010E9466
:10100000C4032091DB013091DC014091DD0150915E
:10101000DE016091DF017091E0018091E10190912A
:10102000E2010E94C4032091CF013091D001409190
:10103000D1015091D2016091D3017091D40180917E
:10104000D5019091D6010E94C40381E08093DC0217
:1010500080917D0580FF14C08091DE021F928F93E6
:101060008091DD021F928F938AE392E09F938F938A
:101070000E9477030F900F900F900F900F900F909A
:101080000DED12E0C6E084E3E82E82E0F82E8091B8
:101090007D0580FF0CC0F80182811F928F93FF9223
:1010A000EF920E9477030F900F900F900F90C15016
:1010B0000F5F1F4FC111EBCF80917D0580FF07C0EF
:1010C00081E392E00E94DE0202C01092DC020E94E4
:1010D000CB0B8C0185E692E00E949E14C8010E9411
:1010E000E30B8536910580F020917D0520FF0CC033
:1010F0009F938F9382E292E09F938F930E94770356
:101100000F900F900F900F9085E692E00E943D0D9A
:101110009091A1018917B9F185E692E00E943D0DF9
:101120008093A10190917D0590FF0CC01F928F9339
:1011300081E192E09F938F930E9477030F900F902D
:101140000F900F908091A1018039E9F480917D0585
:1011500080FF15C08091AA01823019F08DE191E0E5
:1011600002C088E191E09F938F9386E092E09F9385
:101170008F930E9477030F900F900F900F900E9413
:1011800087220E94002481E0CF911F910F91FF9050
:10119000EF900895482F80E1489F90011124205E30
:1011A00031092830310538F49091DD02992319F086
:1011B000892F90E002C080E090E0EFEDF2E061E086
:1011C00070E02191243070F0322F32953F7043133C
:1011D00009C02F70DB0102C0AA0FBB1F2A95E2F7DE
:1011E0008A2B9B2BB2E0E53EFB0759F70895EF925F
:1011F000FF920F931F93CF93DF938FEE91E00E94A6
:10120000DE02C0E0D0E088EEE82E81E0F82E02EEAB
:1012100011E0DF93CF93FF92EF920E9477038C2F20
:101220000E94CA080E94962E9F938F931F930F933C
:101230000E94770380EE91E00E94DE0221968DB736
:101240009EB708960FB6F8949EBF0FBE8DBFC031F3
:10125000D105F9F6DF91CF911F910F91FF90EF909B
:101260000895CF92DF92EF92FF920F93CF93DF9387
:101270001F92CDB7DEB7898380916202882371F017
:10128000CE0101966C01EE24E394F12C00E022E003
:1012900040E060E08BE492E00E94F2158091480209
:1012A000882371F0CE0101966C01EE24E394F12CB9
:1012B00000E022E040E060E081E392E00E94F2156D
:1012C00080912E02882371F0CE0101966C01EE24EC
:1012D000E394F12C00E022E040E060E087E192E05E
:1012E0000E94F21580911402882371F0CE010196BC
:1012F0006C01EE24E394F12C00E022E040E060E099
:101300008DEF91E00E94F2150F90DF91CF910F9138
:10131000FF90EF90DF90CF9008950C9494070E9477
:10132000BD2E80918A05882331F00E94E62E882305
:1013300021F00C94F41D0C9494070895FC0175831E
:10134000648381E391E0918380838FE491E09383D0
:101350008283138A148A158A168A178A418F178204
:1013600088E080878CE381871286138684E08487F7
:1013700081E0828B118A17861686158661157105A4
:10138000B1F0DB01AA5ABF4F80E090E02D913D9172
:10139000232B49F48B96880F991FDB01A80FB91FE7
:1013A000ED93FC93089501968031910579F70895A6
:1013B0002E9A08952E988EBD0DB407FEFDCF1EBC4B
:1013C0000DB407FEFDCF0E94D8098EB508952E9862
:1013D00082608EBD0DB407FEFDCF6EBD0DB407FE5D
:1013E000FDCF0C94D80988EF0E94DA09807C803404
:1013F00011F118F4882371F10895803819F0803CB8
:1014000039F1089588ED0E94DA099091AA0181FDD1
:1014100008C0923029F161EC88ED0E94E70982E072
:1014200007C09330E9F063EC88ED0E94E70983E0A0
:101430008093AA01089588ED0E94DA099091AA018B
:1014400081FD03C0933079F70895923021F7089514
:1014500081E0EECF61ED88ED0E94E7091092AA01CC
:1014600008950F931F93CF93DF938C01269A0E94C8
:10147000D809219A229A2398209A80E58CBD81E090
:101480008DBD259868E188E80E94E70960E288E759
:101490000E94E70960E088E70E94E709C0E0D0E029
:1014A00088E60E94DA09219680FD06C0CF3F8FEFC3
:1014B000D807B1F78FEF1DC061EC88ED0E94E709F6
:1014C00060E280ED0E94E70964E088EE0E94E7098F
:1014D00088EE0E94DA0982FFFBCFC8010E94F3095F
:1014E00060E288EC0E94E70961E080E80E94E70979
:1014F00080E0DF91CF911F910F91089580917D053C
:10150000816080937D0585E692E00E94310A81EF3B
:1015100091E0909359028093580285EE91E0909368
:101520003F0280933E0289ED91E0909325028093E3
:1015300024028DEC91E090930B0280930A020895AF
:1015400085E692E00E940D0D40E065E672E08BE4D6
:1015500092E00E949E0940E065E672E081E392E03D
:101560000E949E0940E065E672E087E192E00E94F9
:101570009E0940E065E672E08DEF91E00E949E09D1
:1015800085E591E09093F2018093F1019093E6015B
:101590008093E5019093DA018093D9019093CE0175
:1015A0008093CD0165E672E08CEB91E00E94CD184E
:1015B00065E672E08BEA91E00C94CD18AF92BF9291
:1015C000CF92DF92EF92FF920F931F93CF93DF930F
:1015D0007C01CB01D22E20917D0520FF13C0DB01C1
:1015E000ED91FC910084F185E02D09951F928F9378
:1015F0008FE692E09F938F930E9477030F900F9056
:101600000F900F90E8015801AD0CB11C89E6C82E6F
:1016100082E0D82E80917D05CA15DB0579F080FF28
:101620000BC088811F928F93DF92CF920E94770325
:101630000F900F900F900F902196ECCF80FF04C079
:1016400086E692E00E94DE02F8018281813091F408
:1016500080917D0580FF1DC08CE492E0DF91CF91E9
:101660001F910F91FF90EF90DF90CF90BF90AF90C0
:101670000C94DE02D701129688E0F80101900D92D9
:101680008A95E1F70E94720BD7011B967C936E93AB
:101690001A97DF91CF911F910F91FF90EF90DF90FC
:1016A000CF90BF90AF90089580E090E008958FEFC5
:1016B0009FEF08950895862F0E946E1B81E090E0B1
:1016C0000895E5EEF2E01382128288EE93E0A0E046
:1016D000B0E084839583A683B7838BE591E0918303
:1016E000808308950C94D70B8F929F92AF92BF92F4
:1016F000CF92DF92EF92FF920E944C324B015C013D
:1017000020E030E04AE755E40E9403336B017C019E
:1017100020E030E040E85FE30E94113287FD24C002
:1017200020E03FEF4FE757E4C701B6010E94FE32C9
:101730001816ACF420E030E040E251E4C501B401F9
:101740000E9403330E941D3220E931E061157105CA
:1017500081F0C9010197F1F761507109F7CFC70115
:10176000B6010E941D3202C061E070E0CB0101971A
:10177000F1F7FF90EF90DF90CF90BF90AF909F90E8
:101780008F90089582E084BD93E095BD9AEF97BD58
:1017900080936E0008952FB7F8948091F302909192
:1017A000F402A091F502B091F6022FBF08952FB771
:1017B000F8946091F3027091F4028091F502909197
:1017C000F6022FBF0895CF92DF92EF92FF920F9310
:1017D0001F932FB7F8944091F3025091F402609157
:1017E000F5027091F6022FBF6A017B01EE24FF24FF
:1017F0008C0120E030E0C016D106E206F30610F4BA
:10180000415051099A01281B390BC9011F910F91B1
:10181000FF90EF90DF90CF9008951F920F920FB638
:101820000F9211248F939F93AF93BF938091F302F4
:101830009091F402A091F502B091F6020196A11DDB
:10184000B11D8093F3029093F402A093F502B0933C
:10185000F602BF91AF919F918F910F900FBE0F90A5
:101860001F901895CF93DF93FC01862F8078A9F401
:10187000283008F04DC0442321F09581973009F4B9
:1018800047C0EF01A1E0B0E09D85992341F011969A
:101890002596A031B105C1F73BC080E039C0611188
:1018A0001CC085E08A9FE0018B9FD00D1124CE0FD4
:1018B000DF1F442331F081E4888785818F5F858332
:1018C00002C081E0888725E02A9FC0012B9F900DF0
:1018D0001124E80FF91F80851BC06770660F660F23
:1018E000660F442341F0606485818F5F8583877034
:1018F000687F682B03C02770687B622B25E02A9FD6
:10190000C0012B9F900D1124E80FF91F6087862FCF
:10191000DF91CF910895611102C006960895FC01F0
:1019200021E03585631739F02F5F35962031C9F7EF
:1019300080E090E00895069635E0239F800D911D8C
:1019400011240895DF92EF92FF920F931F93CF938C
:10195000DF93EC01E62EF12C85E0689FB0011124A5
:10196000FE01E60FF71F8085182F177086FF17C03E
:1019700001E085E0D82EFE01D09EE00DF11D11247E
:10198000808586958695869587701817F9F00F5F84
:10199000003189F78D81811302C011501D8385E0CC
:1019A0008E9DF0018F9DF00D1124EC0FFD1F108610
:1019B00081E0818712862296D783C683DF91CF91FB
:1019C0001F910F91FF90EF90DF900895602FCE014F
:1019D0000E94A20CD0CFFC01613499F49C01255BDC
:1019E0003F4F61E0AC014E5F5F4F158666871786FB
:1019F000548743873596E217F307B9F7FC01158240
:101A0000089521E03585631729F02F5F3596203141
:101A1000C9F70895622F0C94A20CFC018DE691E0A9
:101A2000918380831582108681E081871286CF01A1
:101A3000029697838683128228E023832CE32483F3
:101A4000DF019F01255B3F4F41E01D961C921D97D2
:101A50001E964C931E971F961C921F971C969C9344
:101A60008E931B971596A217B30779F7EA58FF4F85
:101A7000108281E18093FB0208958091FB0208951A
:101A8000CF93C42F0E948B0C009789F0DC01ED915D
:101A9000FC911197309759F013969C9180E089172B
:101AA00031F020812C1731F033968F5FF8CF80E032
:101AB00090E001C0CF01CF9108950F931F93CF9372
:101AC000DF932115310571F0E901042F162F0E94D3
:101AD0008B0CFC01892B41F01283D183C0830383DB
:101AE00080E003C088ED01C086EDDF91CF911F91AA
:101AF0000F910895CF92DF92FF920F931F93CF9390
:101B0000DF93662381F1F62E8C016C0186E5C80E09
:101B1000D11CC0E0D0E0D6018D919D916D01009760
:101B2000F1F0DC01ED91FC910084F185E02D099547
:101B3000F81215C0AB96CC0FDD1FC00FD11F8881E6
:101B40009981DC01ED91FC910480F581E02DDF911C
:101B5000CF911F910F91FF90DF90CF900994219624
:101B6000C031D105C1F680E0DF91CF911F910F9177
:101B7000FF90DF90CF9008952E980895CF93C82FAF
:101B80000E94BC0DCEBD0DB407FEFDCF1EBC0DB432
:101B900007FEFDCF0E94D8098EB5CF910895CF934F
:101BA000DF93C82FD62F0E94BC0DC260CEBD0DB4EE
:101BB00007FEFDCFDEBD0DB407FEFDCFDF91CF9157
:101BC0000C94D8098F929F92AF92BF92CF92DF92DE
:101BD000EF92FF920F931F93CF93DF93EC01D62EDA
:101BE000C42E59010E948B0C7C01009709F445C05A
:101BF000FC0180819181892B09F441C04C2D6D2D10
:101C0000CE010E94400DF501918380830097C9F1B8
:101C1000FC0182818695869590E08031910514F0D3
:101C20008FE090E041E050E060E070E04A015B014D
:101C300004C0880C991CAA1CBB1C8A95D2F7D5013C
:101C4000C4010197F801918380836D2D80EE0E947D
:101C5000CF0D88ED0E94BE0DF7019481992331F0DC
:101C6000CA58DF4F68816260682B02C0682F697FA5
:101C700088ED0E94CF0D80E005C086ED03C087EDA2
:101C800001C08BEDDF91CF911F910F91FF90EF90ED
:101C9000DF90CF90BF90AF909F908F9008958F92DC
:101CA0009F92AF92BF92CF92DF92EF92FF920F93EB
:101CB0001F93CF93DF93862E942E59010E94720BAF
:101CC0006B017C0128E8C20E23E1D21EE11CF11C4D
:101CD00000E010E0D0E0C0E098280E94720BDC0128
:101CE000CB018C199D09AE09BF09B7FF2DC0692D25
:101CF00080EF0E94CF0D0E94720BDC01CB018C198A
:101D00009D09AE09BF09B7FF09C088EC0E94BE0D4E
:101D100087FFF1CF60E888EC0E94CF0D88EF0E942A
:101D2000BE0DC82FCF70C43019F0CE3051F00CC0AA
:101D30000F5F1F4FA114B10481F20A151B0569F64C
:101D400003C0DF5FD33049F68C2FDF91CF911F9115
:101D50000F91FF90EF90DF90CF90BF90AF909F904A
:101D60008F9008959F92AF92BF92CF92DF92EF92A1
:101D7000FF920F931F93CF93DF937C01D42F122FE9
:101D8000902E00E06C01C60ED11CC60ED11C86E55B
:101D9000C80ED11CA42EB12CABE2AA0EB11CAA0C09
:101DA000BB1CAE0CBF1CF60180819181DC01ED9162
:101DB000FC910280F381E02D292D412F6D2F099593
:101DC000803EC9F4D1110BC061E088EE0E94CF0DB6
:101DD00066E670E080E090E00E94740B14C0F501AC
:101DE00080819181DC01ED91FC910284F385E02DED
:101DF000612F099508C08D3021F4033008F03FC0F1
:101E000014C081113FC0F60180819181DC01ED9108
:101E1000FC910190F081E02D292D412F6D2F099526
:101E2000C82F8D3051F4033050F464E670E080E048
:101E300090E00E94740B0F5FB6CF882311F1D1118F
:101E40000BC061E088EE0E94CF0D66E670E080E096
:101E500090E00E94740B11C0ED2FF0E0BB96EE0FE6
:101E6000FF1FEE0DFF1D80819181DC01ED91FC9142
:101E70000284F385E02D612F09958C2F03C08DE03E
:101E800001C080E0DF91CF911F910F91FF90EF9003
:101E9000DF90CF90BF90AF909F9008950F931F93C6
:101EA000CF93DF93182F062FEA010E94BC0D12601A
:101EB0001EBDFE01802F882339F00DB407FEFDCF33
:101EC00091919EBD8150F7CFC00FD11D0DB407FE7B
:101ED000FDCF0E94D809CE01DF91CF911F910F91C4
:101EE00008952F923F924F925F926F927F928F92BE
:101EF0009F92AF92BF92CF92DF92EF92FF920F9399
:101F00001F93CF93DF9300D000D01F92CDB7DEB7E1
:101F10007D836C834A016901FB01F1808FEF8F0D96
:101F2000803408F074C00E94720B2B013C01F8E869
:101F30004F0EF3E15F1E611C711CEC81FD818281FB
:101F400080FD02C060E401C060E888EE0E94CF0D11
:101F5000312C8F2D90E09A838983C114D10409F428
:101F600048C0E980FA80CE14DF0408F47601EB82E1
:101F7000A8016E2D80E10E944E0F6E2D88E30E9415
:101F8000CF0DEC81FD816081606280EF0E94CF0DFA
:101F900088EC0E94BE0D87FFFBCF60E888EC0E94B2
:101FA000CF0D88EF0E94BE0D8F70382EA12CB12C62
:101FB000212C332009F46BC00E94720BDC01CB0191
:101FC00084199509A609B709B7FF61C0F6E03F1665
:101FD00001F12EE0321609F455C084E0381209C030
:101FE000FFEFAF1ABF0A8114910449F1A814B90494
:101FF00031F588EF0E94BE0D85FB882780F9EC81C2
:10200000FD81928180FB90F99283832D45C08AEDFA
:1020100043C088EF0E94BE0D85FB882780F991E0C0
:102020008927EC81FD81928180FB90F9928390FD5C
:1020300002C060E401C060E888EE0E94CF0D60E05D
:1020400088E30E94CF0DF801608180E10E94CF0DEE
:102050006B8188E30E94CF0DEC81FD81608160621D
:1020600080EF0E94CF0D88EC0E94BE0D87FFFBCF52
:1020700060E888EC0E94CF0D88EF0E94BE0D8F7043
:10208000382E97CF239423E02212D9CFB2CFCE1887
:10209000DF080E0D1F1D61CF0F900F900F900F9056
:1020A0000F90DF91CF911F910F91FF90EF90DF90F4
:1020B000CF90BF90AF909F908F907F906F905F90E8
:1020C0004F903F902F9008952F923F924F925F92A2
:1020D0006F927F928F929F92AF92BF92CF92DF9238
:1020E000EF92FF920F931F93CF93DF93CDB7DEB79D
:1020F0002A970FB6F894DEBF0FBECDBF1C016B014F
:102100005B834A835901D9016D907C901197FB0143
:10211000F181F9831D921C92DB0112968C9181FD55
:1021200002C060E101C060E288EE0E94CF0D8E2DFA
:1021300090E0A0E0B0E08C839D83AE83BF8368868F
:102140002A813B81D6014C9160E0C1010E944F0E73
:10215000F82EB6E08B1318C088EF0E94BE0D829552
:102160008170E1E08E27D60112969C91129780FB38
:1021700091F912969C9391FD02C060E101C060E26A
:1021800088EE0E94CF0DDCCF811167C088EC0E94E1
:10219000BE0D82FF60C080E30E94BE0D582E90E00D
:1021A0006816790608F45884F501808191819301BD
:1021B000281B390B3A87298737FF02C01A861986F0
:1021C000852C912C89859A858816990614F49A860F
:1021D000898649840E94BC0D98E09EBD0DB407FE1F
:1021E000FDCFF801442041F01EBC4A940DB407FE17
:1021F000FDCF8EB58193F6CFA985BA850A0F1B1F37
:102200000E94D80964E088EC0E94CF0DF50180811E
:102210009181880E991E91828082F9815F1618F053
:102220008614970470F088EF0E94BE0D829581702D
:10223000D60112969C91129780FB91F912969C936D
:102240000CC0EE2009F47CCF6C817D818E819F8152
:102250000E94740B75CF80EFF82E8F2D2A960FB643
:10226000F894DEBF0FBECDBFDF91CF911F910F91CC
:10227000FF90EF90DF90CF90BF90AF909F908F90A6
:102280007F906F905F904F903F902F9008952F9286
:102290003F924F925F926F927F928F929F92AF92F6
:1022A000BF92CF92DF92EF92FF920F931F93CF9343
:1022B000DF93CDB7DEB761970FB6F894DEBF0FBEE0
:1022C000CDBF3C01F42E322E202EC98A4EA05FA035
:1022D000C8A4D9A4188A1F861E861D868E01035F96
:1022E0001F4F9E01215F3F4F0E94E20D811196C05A
:1022F00039822A82EB8289898C83BE82AD8298865C
:102300008F82AE014F5F5F4F68E080E20E944E0F08
:102310002D853E854F2D60E1C3010E944F0EE82EB2
:10232000811178C0932D9078392EC114D10409F40D
:1023300062C0EF85F8898281992309F44DC08260DB
:102340008283540122242394A114B10409F458C0B7
:102350005C864B864D855E856F857889E12C86018C
:102360009E01255F3F4FC3010E946410E82EA6E046
:102370008A130FC00F85188988EF0E94BE0D85FB58
:10238000882780F98225F801928180FB91F9928358
:10239000DBCF81113FC08AA59BA50097A1F0DC018E
:1023A000ED91FC9111970190F081E02DC4018A1903
:1023B0009B099A8789876B857C859E01275F3F4FA4
:1023C000A601CD0109958B859C85A81AB90A8415AB
:1023D000950508F0B9CF0FC0816082834D855E8579
:1023E00086019201BF01C3010E94710F811116C0C5
:1023F0002D853E8511C02D853E85311005C00CC050
:10240000E11008C02D853E8560EA4F2DC3010E9472
:102410004F0E04C08E2D02C060E8F7CF61960FB654
:10242000F894DEBF0FBECDBFDF91CF911F910F910A
:10243000FF90EF90DF90CF90BF90AF909F908F90E4
:102440007F906F905F904F903F902F9008958F9264
:102450009F92AF92BF92CF92EF920F931F931F92D2
:102460001F921F930F933F932F934901A12CB12CDF
:10247000CC24C394E12C06E020E80E9447110F9081
:102480000F900F900F900F900F901F910F91EF9062
:10249000CF90BF90AF909F908F9008958F929F9212
:1024A000AF92BF92CF92EF92FF920F931F921F9223
:1024B000FF92EF923F932F934901A12CB12C22E080
:1024C000C22EE02E06E020E80E9447110F900F90E8
:1024D0000F900F900F900F900F91FF90EF90CF9073
:1024E000BF90AF909F908F9008954F925F926F92A0
:1024F0007F928F929F92AF92BF92CF92DF92EF9294
:10250000FF920F931F93CF93DF93CDB7DEB7C054E5
:10251000D1090FB6F894DEBF0FBECDBF3C01D62E59
:10252000542E422EC02ECE0101965C017C01022F5A
:1025300029E030E0C3010E944E1281111BC08B8044
:102540009C801F93CF92BF92AF921F9280E48F9393
:10255000A12CB12C82E0C82EE42C06E020E8452D09
:102560006D2DC3010E9447110F900F900F900F9097
:102570000F900F90C05CDF4F0FB6F894DEBF0FBE18
:10258000CDBFDF91CF911F910F91FF90EF90DF9022
:10259000CF90BF90AF909F908F907F906F905F9003
:1025A0004F9008958F929F92AF92BF92CF92EF92E9
:1025B0000F93CF931F921F921F921F921F921F92F1
:1025C000812C912CA12CB12CC12CE22E05E020E015
:1025D0000E944711C82F6CE271E080E090E00E94F9
:1025E000740B0F900F900F900F900F900F908C2FF7
:1025F000CF910F91EF90CF90BF90AF909F908F9021
:1026000008950F931F93CF93DF938A3F3FEF930774
:1026100011F486ED2DC0DC011696ED91FC91179713
:10262000EF2B09F1122F242FEC011A8740E00E94B2
:10263000320C082F8823C9F0682FCE010E948B0C22
:10264000009739F3FC011483202F40E060E0CE01B5
:102650000E94D212182F882351F0602FCE010E94C1
:10266000EB0C812F05C087ED03C084ED01C080E035
:10267000DF91CF911F910F9108952F923F924F922A
:102680005F926F927F928F929F92AF92BF92CF9202
:10269000DF92EF92FF920F931F93CF93DF93CDB70B
:1026A000DEB766970FB6F894DEBF0FBECDBF1B8AAC
:1026B00038E03C8B3CE33D8B8A3F3FEF930709F4C6
:1026C00064C0522E342E462E7C01DC011696CD902D
:1026D000DC901797CE01439617969C938E9316978E
:1026E0001A962C938E010F5F1F4F22E130E040E0DD
:1026F00060E0C7010E942712F701D782C6828111CC
:10270000A6C089849A846B847C84FD81FE8B2E8094
:10271000670136E5C30ED11C560110E0D5018D913D
:102720009C910097F1F1DC01ED91FC910084F18521
:10273000E02D0995811135C0F50180819181DC0181
:10274000ED91FC910088F189E02D622D0995882397
:1027500041F1F50180819181DC01ED91FC910484CE
:10276000F585E02DA301B4010995811110C0F50193
:1027700080819181DC01ED91FC910684F785E02D4B
:102780006E890995811103C00CC086ED60C0052DCE
:10279000232D442D612FC7010E94B20E813D09F007
:1027A00056C01F5FB2E0AB0EB11C103109F0B6CFBE
:1027B00010E0F601808191810097E1F1DC01ED915B
:1027C000FC910084F185E02D0995811133C0F6015B
:1027D00080819181DC01ED91FC910088F189E02DEF
:1027E000622D09958823D9F0F60180819181DC0161
:1027F000ED91FC910484F585E02DA301B4010995C8
:10280000811118C0F60180819181DC01ED91FC916C
:102810000684F785E02D6E89099581110BC0052D81
:10282000232D442D612FC7010E94B20E982F977F50
:10283000913D69F41F5FE2E0CE0ED11C103109F02A
:10284000B8CF252D432D642DC7010E940113669634
:102850000FB6F894DEBF0FBECDBFDF91CF911F91B1
:102860000F91FF90EF90DF90CF90BF90AF909F902F
:102870008F907F906F905F904F903F902F90089532
:102880008F929F92AF92BF92CF92EF920F931F922F
:102890001F921F921F921F921F92812C912CA12C8C
:1028A000B12CC12CE22E09E020E00E9447110F90CC
:1028B0000F900F900F900F900F900F91EF90CF907F
:1028C000BF90AF909F908F9008958F929F92AF92FC
:1028D000BF92CF92DF92EF920F931F93CF93DF932C
:1028E00000D000D0CDB7DEB76C01590148011C8281
:1028F0001B821A8219828E010F5F1F4F9E012D5F6E
:102900003F4F0E94E20D811109C049815A816B81BC
:102910007C8184019501C6010E9464100F900F9084
:102920000F900F90DF91CF911F910F91EF90DF905B
:10293000CF90BF90AF909F908F900895AF92BF922D
:10294000CF92DF92EF92FF920F931F93CF938C0160
:102950001D990EC088EC0E94BE0D85FF05C0C80100
:102960000E94F30960E201C060E088EC0E94CF0D94
:102970008091AA01813039F040F0823079F08330C3
:1029800079F5C1E00CC083E106C08091FB02807F35
:10299000803131F181E18093FB0222C0C0E080915F
:1029A000FB02807F8031E9F40E94720BDC01CB01D5
:1029B00088539F4FAF4FBF4F8093F7029093F80219
:1029C000A093F902B093FA0280E28093FB0280EDBB
:1029D0000E94BE0D682F6F7D80ED0E94CF0D01C05B
:1029E000C0E0780186E5E80EF11C6801A6E7CA0E92
:1029F000D11C5701F501819191915F01009739F048
:102A0000DC01ED91FC910680F781E02D0995AC1475
:102A1000BD0481F78091FB02803409F447C050F473
:102A2000803221F18033A1F1813109F08EC0F601AD
:102A300010820AC0813509F464C0803809F476C078
:102A4000803509F082C045C0D7018D919D917D01EF
:102A5000009739F0DC01ED91FC910480F581E02DC7
:102A60000995EC14FD0481F782E16DC00E94720BA0
:102A70000091F7021091F8022091F9023091FA02C8
:102A8000DC01CB01801B910BA20BB30BB7FD5DC02A
:102A900080ED0E94BE0D682F606280ED0E94CF0D18
:102AA00061E088EE0E94CF0D80E44DC088EE0E9468
:102AB000BE0D80FD4AC060E488EC0E94CF0D88ED19
:102AC0000E94BE0D682F686088ED0E94CF0D80E5E2
:102AD0003AC088EC0E94BE0D86FF37C081E5809326
:102AE000FB020E94720BDC01CB014496A11DB11DBB
:102AF0008093F7029093F802A093F902B093FA0240
:102B000024C00E94720BC090F702D090F802E090AF
:102B1000F902F090FA02DC01CB018C199D09AE0993
:102B2000BF09B7FD12C080E88093FB022C2F40E064
:102B300060E0C8010E943D13882321F0823D29F006
:102B400080EA01C080E98093FB02CF911F910F9131
:102B5000FF90EF90DF90CF90BF90AF9008958F924D
:102B60009F92AF92BF92CF92EF920F93CF93DF934A
:102B7000CDB7DEB7C054D1090FB6F894DEBF0FBE93
:102B8000CDBF5F934F939E012F5F3F4F3F932F9396
:102B90001F9220E42F9320E8822E912C5B0132E2D9
:102BA000C32EE12C06E021E840E0FC01668184812F
:102BB00095810E9447110F900F900F900F900F90EA
:102BC0000F90C05CDF4F0FB6F894DEBF0FBECDBFD5
:102BD000DF91CF910F91EF90CF90BF90AF909F90EA
:102BE0008F9008958F929F92AF92BF92CF92DF9273
:102BF000EF92FF920F93A42EB12C1F921F92DF929F
:102C0000CF92FF92EF924701C22EE02E09E021E21F
:102C1000462FFC016681848195810E9447110F90A7
:102C20000F900F900F900F900F900F91FF90EF90DB
:102C3000DF90CF90BF90AF909F908F9008958F922C
:102C40009F92AF92BF92CF92EF920F93A62EB12C8C
:102C50001F921F921F921F921F921F92812C912CE4
:102C6000C22EE42E0AE021E240E0FC01668184816C
:102C700095810E9447110F900F900F900F900F9029
:102C80000F900F91EF90CF90BF90AF909F908F904B
:102C900008958F929F92AF92BF92CF92EF920F932F
:102CA000A62EB12C1F921F921F921F921F921F924D
:102CB000812C912CC12CE42E0BE021E240E0FC01A0
:102CC0006681848195810E9447110F900F900F902B
:102CD0000F900F900F900F91EF90CF90BF90AF900B
:102CE0009F908F900895FC018285089581E069305E
:102CF00009F080E00895CF93DF93EC018A819B81F6
:102D0000DC01ED91FC910480F581E02D6A85099547
:102D10008A85813439F4EA81FB81EA58FF4F80814A
:102D2000846080831A861B861C861D861E861F86ED
:102D3000188A80E0DF91CF9108958F929F92AF9291
:102D4000BF92CF92EF920F93A42EB12CB22A1F9272
:102D50001F921F921F921F921F92812C912CC12CA7
:102D6000E62E01E023E240E0FC016285828193814E
:102D70000E9447110F900F900F900F900F900F909F
:102D80000F91EF90CF90BF90AF909F908F9008954C
:102D90008F929F92AF92BF92CF92EF920F93A62EF7
:102DA000B12C1F921F923F932F935F934F934A0131
:102DB000C12CE12C00E023EA40E0FC016285828125
:102DC00093810E9447110F900F900F900F900F90DA
:102DD0000F900F91EF90CF90BF90AF909F908F90FA
:102DE00008958F929F92AF92BF92CF92EF920F93DE
:102DF000A42EB12CB22A1F921F921F921F921F92D3
:102E00001F92812C912CC12CE62E03E023E240E09E
:102E1000FC016285828193810E9447110F900F907F
:102E20000F900F900F900F900F91EF90CF90BF9059
:102E3000AF909F908F9008952F923F924F925F9204
:102E40006F927F928F929F92AF92BF92CF92DF92BA
:102E5000EF92FF920F931F93CF93DF93CDB7DEB71F
:102E6000E8970FB6F894DEBF0FBECDBFDC011A960F
:102E70003C91311107C1122F242E362E3C01FC014A
:102E8000C280D380D601ED91FC910190F081E02DBC
:102E900060E0C60109957C01009709F4F5C0FC01CA
:102EA000A080B180A114B10409F4F0C04301F4E0A2
:102EB0008F0E911CDC0111969C928E9214961C939D
:102EC000FE0131962F018F0128E030E040E060E004
:102ED000D30112968D919C9113970E942712F701AE
:102EE00014828111D9C08D81893009F0D1C0098146
:102EF000D601ED91FC910280F381E02D222D41E07D
:102F0000632DC6010995F3018287882309F4C2C0A5
:102F100098859583282F40E060E0828193810E940C
:102F2000D212182F882389F0D701AD92BC92D60116
:102F3000ED91FC910480F581E02DD3011A966C91FE
:102F4000C6010995F3011286ABC0202F013208F0AB
:102F500020E2D701AD92BC9221110BC0940142E056
:102F6000F3016285828193810E945D0D811197C07A
:102F700010C030E0820140E0D3011A966C911A979C
:102F800012968D919C9113970E942712811187C0F0
:102F9000E5CF1F921F925F924F921F9288E08F930E
:102FA00088E0882E912CA12CB12C99E2C92EE12C1D
:102FB00006E020EA40E0F3016285828193810E946D
:102FC0004711182F0F900F900F900F900F900F90A8
:102FD000811166C08B81D3011B968C931B97720164
:102FE00000E028E030E040E01A966C911A971296C3
:102FF0008D919C9113970E944E12811150C02B818C
:103000003C8140E0F3016285828193810E944E12EF
:10301000811145C0298130E0CE0181967C0140E0DC
:10302000D3011A966C911A9712968D919C911397D1
:103030000E944E12811133C02E8140E0F30162855F
:10304000828193810E944014811129C001E0D30143
:103050001B968C91801740F020E0402F68E0C30160
:103060000E94F1160F5FF3CFD3011296ED91FC9100
:103070001397EA58FF4F80818460808381E05096E7
:103080008C930EC019ED0CC016ED0AC017ED08C0E8
:1030900011ED06C014ED04C0F701B182A082182F13
:1030A000812FE8960FB6F894DEBF0FBECDBFDF913B
:1030B000CF911F910F91FF90EF90DF90CF90BF9035
:1030C000AF909F908F907F906F905F904F903F90C8
:1030D0002F900895CF92DF92FF920F931F93CF937B
:1030E000DF9300D000D0CDB7DEB78C01F62E198269
:1030F0001A821B821C8220E0462F61E10E949D16ED
:1031000020E04F2D60E1C8010E949D1620E04F2D68
:1031100064E0C8010E94F11683E0C82ED12C9E0104
:103120002F5F3F4F44E050E06F2DC8010E94C8164A
:103130008823F1F020E04F2D64E1C8010E949D1624
:1031400020E04F2D60E1C8010E949D1664E170E00F
:1031500080E090E00E94740B0F900F900F900F9002
:10316000DF91CF911F910F91FF90DF90CF90089545
:1031700089819A81AB81BC819D7F83309140A04140
:10318000B105C1F264E670E080E090E00E94740B4B
:1031900081E0C81AD10819F6CDCFFC0187E791E08C
:1031A00091838083738362831286138614861586C7
:1031B00016861786108A148288E085839CE396839E
:1031C00091E09783808784E0818761157105B1F074
:1031D000DB01AA5ABF4F80E090E02D913D91232B57
:1031E00049F48B96880F991FDB01A80FB91FED9347
:1031F000FC93089501968031910579F70895EF9237
:10320000FF920F931F93CF938C01C62F7A01FA017F
:1032100080819181A281B3818130F3E09F07F1E049
:10322000AF07B105D1F060F48115E1E09E07AE076C
:10323000B10571F181309140A140B10571F064C0D8
:10324000833021E0920720E1A207B105E1F183304C
:103250009340A041B105B9F157C08091FC028111A2
:1032600053C020E04C2F61E1C8010E949D1620E070
:103270004C2F60E1C8010E949D1620E04C2F64E0B5
:10328000C8010E94F11681E08093FC0281EB3DC0F1
:1032900020E0462F61E1C8010E949D1620E04C2FDE
:1032A00060E1C8010E949D161092FC02F80162853F
:1032B0006770C770660F660F660F6C2B82819381F3
:1032C0000E947A0D21C020E04C2F64E1C8010E94C9
:1032D0009D1620E04C2F60E1C8010E949D1664E11C
:1032E00070E080E090E00E94740BF8016285F701C5
:1032F00021812695217067704C2FF801828193817E
:103300000E943D131092FC0280E0CF911F910F911B
:10331000FF90EF900895CF92DF92EF920F931F935B
:10332000CF93DF93CDB7DEB72E970FB6F894DEBFFD
:103330000FBECDBF6C0181E090E09E878D87E12CB0
:103340008E010F5F1F4F9E01235F3F4F41E0F6014B
:103350006285828193810E946514811151C002E0CF
:1033600011E089818023D1F019861A861B861C867C
:103370009E01275F3F4F44E050E0612FC6010E944D
:10338000C81681110BC0AE01475F5F4F612FC601A8
:103390000E94FF18813B99F1811132C0000F1F5F1D
:1033A0001830F9F611E0F6018385811740F119868E
:1033B0001A861B861C869E01275F3F4F44E050E023
:1033C000612FC6010E94C816811117C089859A8590
:1033D000877091708130914081F48B859C858160EC
:1033E0009C878B87AE01475F5F4F612FC6010E94AC
:1033F000FF18813B21F0811103C01F5FD4CF80E013
:103400002E960FB6F894DEBF0FBECDBFDF91CF91E1
:103410001F910F91EF90DF90CF9008950F931F931E
:10342000CF93DF93FC012089211102C080E020C0EE
:10343000EC010E94720B0C851D852E853F85DC01F9
:10344000CB01801B910BA20BB30BB7FDEFCFCE01CD
:103450000E948B19182F0E94720BDC01CB018C5932
:103460009F4FAF4FBF4F8C879D87AE87BF87812F00
:10347000DF91CF911F910F910895CF93DF93FC01BE
:10348000EB0180819181892B21F18281882319F1BF
:10349000DA012D913C91232BE1F0A881B9819C9117
:1034A000A381B0E0A81BB10920813181A20FB31F15
:1034B0009C93828181508283DA018D919C91119736
:1034C00001978D939C938881998101969983888334
:1034D000DCCF80E003C08381828381E0DF91CF91E4
:1034E0000895CF92DF92EF92FF920F931F93CF93A5
:1034F000DF936C01EB017B01E40EF51E00E010E0B0
:10350000CE15DF0561F06991D601ED91FC91019036
:10351000F081E02DC6010995080F191FF1CFC801F0
:10352000DF91CF911F910F91FF90EF90DF90CF909F
:103530000895809109040895CF93DF9300D01F92DE
:10354000CDB7DEB79C0180918C05843019F593E0EE
:1035500099833B832A839093E9008FEF9091E80051
:10356000815095FD06C095ED9A95F1F70000811107
:10357000F5CF8091E80085FF0DC040E050E063E0AA
:1035800070E0CE0101960E940A1E8091E8008E77BD
:103590008093E8000F900F900F90DF91CF910895E6
:1035A000CF93DF9300D01F92CDB7DEB720918C056B
:1035B000243031F522E02983805891099B838A8346
:1035C00083E08093E9008FEF9091E800815095FDB2
:1035D00006C095ED9A95F1F700008111F5CF809125
:1035E000E80085FF0DC040E050E063E070E0CE01F0
:1035F00001960E940A1E8091E8008E778093E80071
:103600000F900F900F90DF91CF91089520918C052E
:103610002430F1F422E02093E9002FEF3091E8000C
:10362000215035FD06C035ED3A95F1F70000211126
:10363000F5CF2091E80025FF0BC040E050E065E0A9
:1036400070E00E940A1E8091E8008E778093E80067
:103650000895CF93DF9320918C05243049F521E024
:103660002093E90021E8215059F03091E80035FD20
:1036700007C0EFE3F1E03197F1F700C00000F3CFAE
:103680002091E80025FF14C0EC0140E050E068E024
:1036900070E00E940A1E8091E8008E778093E80017
:1036A00088E0FE01A1E0B4E001900D928A95E1F777
:1036B000DF91CF910895CF93C091FF02C1110BC04C
:1036C0000E94D70B643C79408105910520F081E090
:1036D0008093FF02C1E08C2FCF910895CF93C82F24
:1036E0000E945B1B882309F448C00FB607FE45C043
:1036F00080918C05843009F040C08091E9008F7082
:103700002091EC00922F917020FD90E8892B94E09D
:103710009093E9009091EB0090FF2CC09091EE0007
:1037200097FF28C09091030120910201291709F405
:1037300047C02091E80025FF1DC0E0910001F091F5
:103740000101E90FF11D30819F5F20910401922357
:10375000909303013093F1009091E80095FDE2CF42
:103760009091E80090FFDECF9091E8009E779093D3
:10377000E800D8CF8F708093E9008091020190E03B
:10378000AC014F5F5F4F30910401232F30E02423C1
:1037900035234091030150E024173507D1F02091E3
:1037A000000130910101F901E80FF91FC0838091F8
:1037B00002018F5F9091040189238093020109C067
:1037C0009091E80095FFD6CFC093F1008F70809361
:1037D000E90080E0CF91089580918B05811109C0A7
:1037E0000E949B1F0E94F81F8091E20084608093DA
:1037F000E200089510928B0508950895089542E01F
:1038000061EC81E00E94141F42E061EC82E00E94C2
:10381000141F42E061EC83E00E94141F42E261EC5D
:1038200084E00C94141F80918E05833009F453C0FA
:1038300030F4813071F0823009F48CC008958A3000
:1038400009F478C08B3009F45EC0893009F09AC061
:1038500020C080918D05813A09F094C08091E800E4
:10386000877F8093E8008091910590919205892B44
:1038700021F468E081E094E003C060E080E090E043
:1038800070E00E94551E8091E8008B778093E800DD
:10389000089580918D05813209F074C08091910561
:1038A00090919205892B09F06DC08091E800877F87
:1038B0008093E8008091E80082FD05C080918C052E
:1038C0008111F8CF5FC08091F1008093090480914D
:1038D000E8008B7753C080918D05813A09F052C082
:1038E0008091910590919205892B09F04BC08091B0
:1038F000E800877F8093E8008091E80080FFFCCF9C
:1039000080910F0136C080918D058132D9F580916B
:10391000910590919205892BA9F58091E800877F08
:103920008093E8000E94491F80918F0580930F01CA
:103930000C94F82780918D05813221F58091E80063
:10394000877F8093E8000E94491F809190058093B3
:103950000A04089580918D05813AA1F48091E800D0
:10396000877F8093E8008091E80080FFFCCF809102
:103970000A048093F1008091E8008E778093E8003C
:103980000C94491F089580910904809300031092BC
:1039900009040E9402240C94F8270C94C31C0E9472
:1039A000FB2E809100038093090408950C94CF1C92
:1039B00008950C94D81C0C94D81CCF9384B7877F9F
:1039C00084BF0FB6F894A8958091600088618093B9
:1039D0006000109260000FBE90E080E80FB6F8948F
:1039E00080936100909361000FBE8EE69BE10E9480
:1039F0007F2E85E091E00E9482228DE992E00E9474
:103A0000DE020E94DB1C0E9441230E949B1F0E9439
:103A1000F81F8091E20084608093E20078940E9415
:103A2000432380918C05843019F00E948D09F9CFD1
:103A30008BE892E00E94DE020E94D91C89E792E0A6
:103A40000E94DE02C4E080918C05853019F40E944A
:103A50008F09F9CF0E9447232091E4003091E500BF
:103A60008091FD029091FE022817390761F3809141
:103A7000E4009091E5009093FE028093FD020E9485
:103A80005B1B882301F380918C058430E1F68091E3
:103A9000E9008F702091EC00922F917020FD90E84A
:103AA000892BC093E9009091EB0090FF43C0909167
:103AB000EE0097FF3FC0909103012091020129176A
:103AC00009F12091E80025FF1DC0E0910001F0916F
:103AD0000101E90FF11D30819F5F209104019223C4
:103AE000909303013093F1009091E80095FDE3CFAE
:103AF0009091E80090FFDFCF9091E8009E7790933F
:103B0000E800D9CF9091F3002091F20030E0392BFA
:103B1000232B81F09091E80090FF0CC09091E80079
:103B200095FF03C01092F100F9CF9091E8009E77C5
:103B30009093E8008F708093E90085CF292F332779
:103B400023303105C9F060F42130310581F0223095
:103B5000310509F041C084E790E026E033E040C041
:103B600021323105E1F02232310531F135C082E1F7
:103B700090E02AE733E034C099278130910549F07D
:103B800028F0029749F5E4EBF2E005C0E2E0F3E04B
:103B900002C0E2EFF2E0849190E09F0121C0643026
:103BA000D8F4E62FF0E0EE0FFF1FEB56FE4F20811A
:103BB000318189E090E014C0643070F470E0FB0162
:103BC000EE0FFF1FE357FE4F20813181FB01E757C6
:103BD000FE4F808190E004C080E090E020E030E083
:103BE000FA0131832083089580E189BD82E189BD96
:103BF00009B400FEFDCF8091D8008F7D8093D8005E
:103C00008091E00082608093E0008091E00081FD7F
:103C1000FCCF0895CF92DF92EF92FF920F931F9304
:103C2000CF93DF93EC018B017A010E94681F811111
:103C300033C0E114F10439F0F70180819181081B50
:103C4000190BC80FD91FC12CD12C0115110519F161
:103C50008091E80085FD16C08091E8008E77809302
:103C6000E800E114F10449F0F70180819181C80E68
:103C7000D91ED182C08285E00FC00E94681F8823B0
:103C800021F30AC089918093F10001501109FFEFDF
:103C9000CF1ADF0ADACF80E0DF91CF911F910F9129
:103CA000FF90EF90DF90CF90089520919305309191
:103CB00094052617370748F06115710539F42091EE
:103CC000E8002E772093E80001C0B901FC0120E054
:103CD0006115710579F180918C058823F1F18530AA
:103CE000F1F18091E80083FD3CC08091E80082FD05
:103CF0002EC08091E80080FFEBCF2091F3008091EF
:103D0000F20090E0922B6115710551F08830910519
:103D100038F421912093F100615071090196F3CF9D
:103D200021E0089709F020E08091E8008E778093E9
:103D3000E800CECF2111CFCF0AC080918C05882317
:103D400061F0853061F08091E80083FD0AC08091C8
:103D5000E80082FFF2CF80E0089582E0089583E0DA
:103D6000089581E0089520919305309194052617D8
:103D7000370748F06115710539F42091E8002E7776
:103D80002093E80001C0B901FC0120E06115710534
:103D900091F180918C05882309F440C0853009F4A5
:103DA0003FC08091E80083FD3DC08091E80082FD26
:103DB0002FC08091E80080FFE9CF2091F30080912F
:103DC000F20090E0922B6115710559F08830910551
:103DD00040F424912093F1003196615071090196CD
:103DE000F2CF21E0089709F020E08091E8008E777B
:103DF0008093E800CBCF2111CCCF0AC080918C05F5
:103E0000882361F0853061F08091E80083FD0AC06D
:103E10008091E80082FFF2CF80E0089582E008956B
:103E200083E0089581E00895982F973068F5909386
:103E3000E900981739F07091EC002091ED00509155
:103E4000F00003C0242F762F50E021FD02C09F5FB9
:103E5000ECCF3091EB003E7F3093EB003091ED00E2
:103E60003D7F3093ED003091EB0031603093EB00FB
:103E70007093EC002093ED005093F0002091EE0041
:103E800027FDE5CF80E008958F708093E90081E001
:103E9000089580918D0587FF11C08091E80082FD13
:103EA00005C080918C058111F8CF11C08091E80088
:103EB0008B770BC080918C05882349F08091E800B6
:103EC00080FFF8CF8091E8008E778093E800089516
:103ED0002091E4003091E50095E64091EC00842FBC
:103EE000817040FF23C08091E80080FD1DC080915B
:103EF0008C05882399F0853099F08091EB0085FD41
:103F000011C04091E4005091E5002417350729F3D2
:103F1000915011F09A01E1CF84E0089582E0089574
:103F200083E0089581E0089580E008954091E800DD
:103F300042FFDDCF08950E9409200E941120E0EE8B
:103F4000F0E0808181608083E8EDF0E080818F7710
:103F5000808319BCA7EDB0E08C918E7F8C9380811B
:103F60008F7E808310928B0508950F931F93CF93BC
:103F7000DF930E9409200E941120C8EDD0E08881C3
:103F80008F77888388818068888388818F7D888304
:103F900019BC10928C051092880510928A05109217
:103FA000890500EE10E0F80180818B7F8083888195
:103FB0008160888342E060E080E00E94141FE1EEAF
:103FC000F0E080818E7F8083E2EEF0E0808181608E
:103FD0008083808188608083F80180818E7F8083E8
:103FE000888180618883DF91CF911F910F9108951F
:103FF000E8EDF0E080818F7E8083E7EDF0E0808166
:104000008160808384E082BF81E080938B050C9483
:10401000B51FE8EDF0E080818E7F80831092E20092
:1040200008951092DA001092E10008951F920F9205
:104030000FB60F9211242F933F934F935F936F937B
:104040007F938F939F93AF93BF93EF93FF93809151
:10405000E10082FF0BC08091E20082FF07C08091E7
:10406000E1008B7F8093E1000E94FE1B8091DA00CB
:1040700080FF1FC08091D80080FF1BC08091DA00B4
:104080008E7F8093DA008091D90080FF0DC080E19F
:1040900089BD82E189BD09B400FEFDCF81E0809336
:1040A0008C050E94EC1B05C019BC10928C050E9467
:1040B000FA1B8091E10080FF19C08091E20080FF2F
:1040C00015C08091E2008E7F8093E2008091E20033
:1040D00080618093E2008091D80080628093D80054
:1040E00019BC85E080938C050E94CD1C8091E10075
:1040F00084FF30C08091E20084FF2CC080E189BD44
:1041000082E189BD09B400FEFDCF8091D8008F7D8A
:104110008093D8008091E1008F7E8093E1008091B0
:10412000E2008F7E8093E2008091E20081608093C4
:10413000E20080918805882311F084E007C0809117
:10414000E30087FD02C081E001C083E080938C051D
:104150000E94D61C8091E10083FF29C08091E2007B
:1041600083FF25C08091E100877F8093E10082E09A
:1041700080938C05109288058091E1008E7F80935A
:10418000E1008091E2008E7F8093E2008091E20066
:1041900080618093E20042E060E080E00E94141FB2
:1041A0008091F00088608093F0000E94FD1BFF91D9
:1041B000EF91BF91AF919F918F917F916F915F919F
:1041C0004F913F912F910F900FBE0F901F90189518
:1041D0001F920F920FB60F9211242F933F934F937C
:1041E0005F936F937F938F939F93AF93BF93CF937F
:1041F000DF93EF93FF93C091E900CF708091EC00C3
:10420000D82FD17080FDD0E81092E9008091F000A5
:10421000877F8093F00078940E942C211092E9000F
:104220008091F00088608093F000CD2BCF70C09318
:10423000E900FF91EF91DF91CF91BF91AF919F91F5
:104240008F917F916F915F914F913F912F910F903F
:104250000FBE0F901F9018951F93CF93DF93CDB78C
:10426000DEB7AA970FB6F894DEBF0FBECDBFEDE85C
:10427000F5E08091F100819325E0E539F207C9F777
:104280000E94131C8091E80083FF24C180918D055A
:1042900090918E05492F50E04A30510508F01AC11F
:1042A000FA01EA5AFF4F0C948433803881F0823847
:1042B00009F010C1809191058F708093E900809181
:1042C000EB0085FB882780F91092E90006C08091F9
:1042D000890590918A05911182609091E800977FFD
:1042E0009093E8008093F1001092F100C8C0282F4D
:1042F0002D7F09F0EFC0882319F0823061F0EAC009
:1043000080918F05813009F0E5C0933009F080E09D
:1043100080938A052BC080918F05811127C08091E1
:1043200091058F7009F4D6C08093E9002091EB00CD
:1043300020FF1CC0933021F48091EB00806214C0F8
:104340009091EB0090619093EB0021E030E0A901A7
:1043500002C0440F551F8A95E2F74093EA0010927D
:10436000EA008091EB0088608093EB001092E900F6
:104370008091E800877F86C08111ACC010918F05C5
:104380001F778091E3008078812B8093E3008091F8
:10439000E800877F8093E8000E94491F8091E80031
:1043A00080FFFCCF8091E30080688093E3001111CF
:1043B00002C082E001C083E080938C058BC08058EE
:1043C000823008F087C080918F05909190058C3DD8
:1043D00053E0950779F583E08A838AE289834FB7B2
:1043E000F894DE01139620E03EE051E2E32FF0E086
:1043F00050935700E49120FF03C0E295EF703F5FB8
:10440000EF708E2F90E0EA3010F0C79601C0C09692
:104410008D939D932F5F243149F74FBF8091E80022
:10442000877F8093E8006AE270E0CE0101960E94E7
:10443000551E14C0AE014F5F5F4F609191050E9401
:104440009E1DBC01892B09F445C09091E800977F1F
:104450009093E80089819A810E94B31E8091E800C0
:104460008B778093E80036C08038A1F58091E80012
:10447000877F8093E800809188058093F100809188
:10448000E8008E778093E8000E94491F23C08111C5
:1044900021C080918F059091900599270297D4F4BF
:1044A0008091E800877F8093E80080918F0580935A
:1044B00088050E94491F80918805811106C080915E
:1044C000E30087FD02C081E001C084E080938C0599
:1044D0000E94FF1B8091E80083FF0AC08091E800E2
:1044E000877F8093E8008091EB0080628093EB00EF
:1044F000AA960FB6F894DEBF0FBECDBFDF91CF9165
:104500001F9108959093100480930F040895E091F3
:104510000F04F0911004309721F00190F081E02D0C
:10452000099480E00895EF92FF920F931F93CF9329
:10453000DF93E0910F04F09110043097B1F18C01FA
:104540000280F381E02D099580917D0582FF2DC0C9
:1045500080FF04C087E994E00E94DE02E80118E0D1
:1045600081E9E82E84E0F82E80917D0580FF0BC064
:1045700088811F928F93FF92EF920E9477030F9092
:104580000F900F900F90115021961111EDCF809147
:104590007D0580FF0AC08FE894E0DF91CF911F91E5
:1045A0000F91FF90EF900C94DE02DF91CF911F915D
:1045B0000F91FF90EF900895E0910F04F091100497
:1045C000309721F00480F581E02D09940895CF9370
:1045D000DF9320910D0430910E042817390709F15B
:1045E00090930E0480930D04E0910F04F091100459
:1045F0003097B9F0EC010680F781E02D09958091A4
:104600007D0582FF0EC080FF0CC0DF93CF9381E851
:1046100094E09F938F930E9477030F900F900F90D9
:104620000F90DF91CF910895CF93DF9320910B04EA
:1046300030910C042817390709F190930C048093EA
:104640000B04E0910F04F09110043097B9F0EC01E5
:104650000084F185E02D099580917D0582FF0EC0D3
:1046600080FF0CC0DF93CF9381E794E09F938F93FB
:104670000E9477030F900F900F900F90DF91CF91D2
:1046800008950C9403240E94C20B0C947E0A8F920E
:104690009F92AF92BF92CF92DF92EF92FF920F93D1
:1046A0001F93CF93DF9300D000D01F92CDB7DEB71A
:1046B0000E94940702E114E0F12C8F2D0E94CA0899
:1046C0004C01F801A080B180A826B926A114B1043C
:1046D00039F4F3940E5F1F4FF0E1FF12EECF39C0B3
:1046E00080917D0581FD0E94F708E12CCC24C394C4
:1046F000D12CC5018C219D21892B21F1E982FA82DF
:1047000021E0C4018C219D21892B09F420E02B8319
:104710000E94CB0B8160782F9D838C8349815A81C5
:104720006B818D810E94062449815A816B817C8135
:104730008D810E94AA2EF801808191818C259D2572
:1047400091838083E394CC0CDD1CF0E1EF12D1CF98
:10475000C0CF8FEF89838A831B820E94CB0B81603D
:10476000782F9D838C8349815A816B818D810E9432
:1047700006240E94A92E0E9460310E9487229091F7
:104780001104891759F10E94872280931104909196
:104790007D0592FF0EC090FF0CC01F928F9382EA9E
:1047A00094E09F938F930E9477030F900F900F9048
:1047B0000F90809111040F900F900F900F900F9019
:1047C000DF91CF911F910F91FF90EF90DF90CF90ED
:1047D000BF90AF909F908F900C94BB2E0F900F9036
:1047E0000F900F900F90DF91CF911F910F91FF903D
:1047F000EF90DF90CF90BF90AF909F908F900895F3
:104800000C9431090895089508950895CF93DF9386
:10481000CDB7DEB72B970FB6F894DEBF0FBECDBF76
:10482000942F4F83252F588769877A878B874A85EE
:104830005B85452B31F02F3F31F481E09F3F19F428
:1048400003C081E001C080E080FD07C04F81588532
:1048500069857A858B850E94AA2EDE01119686E0F5
:10486000FD0111928A95E9F785E0FE0137960190E6
:104870000D928A95E1F749815A816B817C818D8106
:104880009E810E94032B2B960FB6F894DEBF0FBEBD
:10489000CDBFDF91CF910895882309F45CC09CEFD0
:1048A000980F913A20F090E5980F9E3218F40E94EC
:1048B000E12D0DC090E2980F983058F4877091E088
:1048C00001C0990F8A95EAF7892F0E941F2E0C9438
:1048D000592E9BE5980F933070F4853A29F0863A6B
:1048E00031F083E890E005C081E890E002C082E802
:1048F00090E00C94E72298E5980F953160F5883A9E
:1049000089F0893A91F08A3A99F08B3AA1F08C3A81
:10491000A9F08D3AB1F08E3AB9F08F3AC1F080E04B
:1049200090E017C082EE90E014C089EE90E011C0D4
:104930008AEE90E00EC085EB90E00BC086EB90E035
:1049400008C083EB90E005C084EB90E002C087EBE9
:1049500090E00C9414230895882349F19CEF980F5C
:10496000913A20F090E5980F9E3218F40E94FE2DA7
:104970000DC090E2980F983058F4877091E001C014
:10498000990F8A95EAF7892F0E94252E0C94592EAB
:104990009BE5980F933020F480E090E00C94E722A0
:1049A000885A853120F480E090E00C941423089517
:1049B000882321F00E941F2E0C94592E08958823DD
:1049C00021F00E94252E0C94592E0895CF92DF924B
:1049D000EF92FF920F931F93CF93DF9300D000D0FD
:1049E0001F92CDB7DEB76C010E9480038111E0C237
:1049F00085E0F601DE01119601900D928A95E1F7AE
:104A0000F60140815181238134812115310531F036
:104A10005F3F31F481E04F3F19F403C081E001C0F2
:104A200080E080FDC5C2F601F280E580E2948FE06F
:104A3000E822722F3D832C836F2D8D810E945D2D86
:104A40008C010E945C2D0E94562CE12FE295EF70A4
:104A50008E2F90E0FC01E05AFF4F0C948433812F9D
:104A6000807F1F70882311F01295107FFF2049F07E
:104A7000112309F452C2812F0E94322E0E94592E16
:104A80004CC2802F0E94AC24112309F491C2812FC3
:104A90000E94382E0F900F900F900F900F90DF9183
:104AA000CF911F910F91FF90EF90DF90CF900C94DA
:104AB000592E812F807F1F70803211F01295107F48
:104AC000002319F0013009F12BC0FF20A9F0EE20DE
:104AD00059F1F1E0812FEF1228C00F900F900F9045
:104AE0000F900F90DF91CF911F910F91FF90EF905A
:104AF000DF90CF900C94422EEE2021F081E0E8165A
:104B000009F456C20E94452E2DC0FF20E9F0E5E0D1
:104B1000EE1508F44DC20E941C2E812329F022C0FC
:104B2000FF20F1F0E11015C0812F0F900F900F9032
:104B30000F900F90DF91CF911F910F91FF90EF9009
:104B4000DF90CF900C94D824F4E0FE1508F430C226
:104B500009C0F601858180FFE0C18F708583E4CFB5
:104B6000E110EEC1812F61C1812F869586958370FA
:104B700019F08130B9F01CC2FF2019F0C801937000
:104B800002C080E090E00F900F900F900F900F9078
:104B9000DF91CF911F910F91FF90EF90DF90CF9019
:104BA0000C94E722FF2019F0C801937002C080E046
:104BB00090E00F900F900F900F900F90DF91CF919A
:104BC0001F910F91FF90EF90DF90CF900C941423E2
:104BD000802FFF2019F00E94E62F02C00E944E3065
:104BE0000F900F900F900F900F90DF91CF911F912A
:104BF0000F91FF90EF90DF90CF900C94D330812FE6
:104C0000837009F070C0F110D3C1202F2295269532
:104C10002770220F220F602F6F70862F90E0A0E088
:104C2000B0E06C017D01022E04C0CC0CDD1CEE1C3A
:104C3000FF1C0A94D2F704FF12C08FE090E0A0E0BE
:104C4000B0E004C0880F991FAA1FBB1F2A95D2F796
:104C5000BC01CD01609570958095909503C060E092
:104C600070E0CB011695169513701230B1F040F537
:104C70006C297D298E299F29113031F10F900F90D9
:104C80000F900F900F90DF91CF911F910F91FF9098
:104C9000EF90DF90CF900C94712C6C297D298E2998
:104CA0009F290F900F900F900F900F90DF91CF9151
:104CB0001F910F91FF90EF90DF90CF900C948B2C71
:104CC0000E94712CC701B6010F900F900F900F90AA
:104CD0000F90DF91CF911F910F91FF90EF90DF9098
:104CE000CF900C94572CFF2019F0812F817001C0B8
:104CF0008695882309F45CC1202F2295269527707C
:104D0000220F220F602F6F70862F90E0A0E0B0E09E
:104D10006C017D01022E04C0CC0CDD1CEE1CFF1CBE
:104D20000A94D2F704FF12C08FE090E0A0E0B0E058
:104D300004C0880F991FAA1FBB1F2A95D2F7BC0178
:104D4000CD01609570958095909503C060E070E00E
:104D5000CB011695169513701230B1F040F56C2901
:104D60007D298E299F29113031F10F900F900F90DE
:104D70000F900F90DF91CF911F910F91FF90EF90C7
:104D8000DF90CF900C94382D6C297D298E299F2996
:104D90000F900F900F900F900F90DF91CF911F9178
:104DA0000F91FF90EF90DF90CF900C944A2D0E94CE
:104DB000382DC701B6010F900F900F900F900F90F4
:104DC000DF91CF911F910F91FF90EF90DF90CF90E7
:104DD0000C94262D003FC1F128F480E4800F80322E
:104DE00050F096C0023F09F45EC008F449C0033F8A
:104DF00009F46CC08DC0F02FF071EF2E812F8F71F0
:104E0000FF2051F00E94BF2C802FEE2019F08295D8
:104E1000807F8BCE8F7089CE0E94E02C802FEE2079
:104E200019F08295807F01C08F700F900F900F90C6
:104E30000F900F90DF91CF911F910F91FF90EF9006
:104E4000DF90CF900C94DF24FF20A9F084E08E1532
:104E500008F4AEC0812F8F710F900F900F900F90BC
:104E60000F90DF91CF911F910F91FF90EF90DF9006
:104E7000CF900C94052DE5E0EE1508F499C0EACF2B
:104E8000FF2099F0812F8F710F900F900F900F904E
:104E90000F90DF91CF911F910F91FF90EF90DF90D6
:104EA000CF900C94BF2CFF2069F3812F8F710F904E
:104EB0000F900F900F900F90DF91CF911F910F9156
:104EC000FF90EF90DF90CF900C94E02CFF2089F0C2
:104ED000812F8F710F900F900F900F900F90DF9197
:104EE000CF911F910F91FF90EF90DF90CF900C9496
:104EF000AA2C0F900F900F900F900F90DF91CF91F1
:104F00001F910F91FF90EF90DF90CF900C94A52C04
:104F1000FF2099F0EE2009F4B5CF802F0F900F906D
:104F20000F900F900F90DF91CF911F910F91FF90F5
:104F3000EF90DF90CF900C944C24EE2009F4B5CF85
:104F4000802F0F900F900F900F900F90DF91CF91C7
:104F50001F910F91FF90EF90DF90CF900C94AC24B5
:104F6000412F4F70602FC6010E94602F0F900F904D
:104F70000F900F900F90DF91CF911F910F91FF90A5
:104F8000EF90DF90CF900C94B12B412F4F70602F9A
:104F9000C6010F900F900F900F900F90DF91CF915F
:104FA0001F910F91FF90EF90DF90CF900C94632FA3
:104FB0000F900F900F900F900F90DF91CF911F9156
:104FC0000F91FF90EF90DF90CF9008950E943F2EB9
:104FD0000E940E2E0E94592E0E9405320E94D3304C
:104FE00080E090E00E94E72280E090E00C9414239F
:104FF0000E942F2E0C94E6271F93CF93DF9300D0AF
:1050000000D01F92CDB7DEB7942F4983252F5A8346
:105010006B837C838D834C815D81452B31F02F3FE9
:1050200031F481E09F3F19F403C081E001C080E0CA
:10503000182F117080FD31C049815A816B817C81AC
:105040008D810E945D2D292F22952F702C3030F4F8
:105050002A30A0F42250223030F022C02C30C9F087
:105060002F30B9F01DC0853A28F48430C0F4823066
:1050700028F415C090E2980F983088F0883E30F4FC
:10508000803E68F48450813A58F409C0803F41F46E
:1050900006C093FB112710F903C010E001C011E016
:1050A000812F0F900F900F900F900F90DF91CF9165
:1050B0001F910895CF93DF9300D000D01F92CDB7FA
:1050C000DEB70F900F900F900F900F90DF91CF9160
:1050D0000895CF93DF9300D000D000D0CDB7DEB7D6
:1050E00026960FB6F894DEBF0FBECDBFDF91CF91ED
:1050F00008951F93CF93DF93C091320416E08091FF
:105100003304C81799F0D0E01C9FF0011D9FF00DEB
:105110001124EC5CFB4F4081518162817381848159
:1051200095810E9469282196C770E9CFDF91CF91C0
:105130001F91089540916404509165046091660444
:105140007091670480916804909169040C946928B7
:10515000CF938091690482958F7009F05FC0809130
:105160006604882309F45AC080913204B091330454
:1051700070916404A09165044091670450916804A3
:1051800091E07F3F09F090E0692FC6E08B1709F4AA
:1051900045C04115510521F0AF3F21F020E003C08B
:1051A00021E001C0262F90E020FD35C0C89FF0010E
:1051B000C99FF00D1124EC5CFB4F21812A132BC0F9
:1051C0002081271328C02281211125C02381348109
:1051D0002417350710F421503109241B350B283CC6
:1051E0003105C8F4209169042F702061209369046F
:1051F00026E0289FF001299FF00D1124E75CFB4F6A
:1052000080818F708061808384E694E00E94E62430
:10521000CF910C94792801968770B8CFCF910895DB
:10522000AF92BF92CF92DF92EF92FF920F931F93B4
:10523000CF93DF93CDB7DEB761970FB6F894DEBF9B
:105240000FBECDBF7C0185E0F701DE011D96019008
:105250000D928A95E1F7D7014C9111965C911197C7
:105260001296DC90129713960D911C911497309121
:1052700064046091650480916704909168040097CC
:1052800031F06F3F31F421E03F3F19F403C021E0DA
:1052900001C020E0B22FB170BB2E20FD6EC1A090E6
:1052A0006604AA2009F4CCC02091690408171907E4
:1052B00028F0F801E81BF90BCF0104C08095909508
:1052C000800F911FCC24C394883C910580F0C12CA1
:1052D000207F09F0A1C0702F198B088B6D2D898953
:1052E0000E945A2884E694E00E94E624BDC0822FE2
:1052F000807F09F056C0561315C0431313C0CD2C40
:10530000D11010C02F702061209369040E949A2848
:1053100084E694E00E94E62480916904D701159602
:105320008C935FC10115110531F05F3F31F481E0CD
:105330004F3F19F403C081E001C080E080FD03C04D
:1053400081E08D2502C080E090E0B82FB170CB2EB7
:1053500080FF1CC0809132042091330436E0821714
:1053600009F41CC190E0389FF001399FF00D112421
:10537000EC5CFB4F6181561306C06081461303C08D
:105380006281D61203C001968770E9CFCD2CDD2053
:1053900009F427C180916904816080936904C12C5C
:1053A00020C1561308C0431306C0D11004C0809119
:1053B0006904D701B6C04D875E87DF86702F198BD1
:1053C000088B6D2D89890E94FC27882399F1DD20A7
:1053D00089F120916904822F82958F7090E0029765
:1053E00074F0809164049091650498878F83198686
:1053F0001B870A872C87CE0107960E94E62486E049
:10540000F701A4E6B4E001900D928A95E1F70E94BD
:10541000A8280E949A2811C0561781F14D875E87EF
:10542000DF86702F198B088B6D2D89890E94FC27D0
:10543000811138C0C7010E94E624CC24C394D1C096
:105440000817190708F446C0F801E81BF90BCF014B
:10545000883C910508F443C0C12C702F198B088B30
:105460006D2D89890E945A28E4E6F4E086E0DF0188
:105470001D928A95E9F70E949A28B3C04313CECFB4
:10548000D110CCCF80916904F7018583C7010E94B8
:10549000E62486E0E4E6F4E0DF011D928A95E9F770
:1054A000CA2C9FC0DD2031F220916904822F8295A1
:1054B0008F7090E002970CF4A2CF809164049091D9
:1054C00065049A8389831B821D830C832E83CE01FE
:1054D000019693CF80959095800F911FB9CFCD2CD9
:1054E000DD2009F4A7CF561333C0431331C02091F8
:1054F000690420FD24C0822F82958F70482F50E0D0
:1055000041155105E1F0D70115962C9315974F30B1
:10551000510549F08F5F982F9295907F822F8F7061
:10552000892B15968C93C7010E94E62486E0F7012B
:10553000A4E6B4E001900D928A95E1F79CCF86E055
:10554000F701A4E6B4E001900D928A95E1F749C015
:105550004D875E87DF86702F198B088B6D2D8989AB
:105560000E94FC2781114BCF809169048160809358
:105570006904C7010E94E62434C0DD2009F45ACF33
:105580004D875E87DF86702F198B088B6D2D89897B
:105590000E94FC27882309F44DCF31CF702F198B3F
:1055A000088B6D2D89890E945D2D292F22952F70E2
:1055B000223028F49F7039F0811105C00BC02430CF
:1055C00028F49F7049F4805E883020F0C7010E9463
:1055D000E624BC2CCB2C05C0F7019581907F99F770
:1055E000F9CF8C2D61960FB6F894DEBF0FBECDBFFC
:1055F000DF91CF911F910F91FF90EF90DF90CF90AF
:10560000BF90AF9008951F93CF93DF93CDB7DEB7D0
:105610002C970FB6F894DEBF0FBECDBF4F835887CF
:1056200069877A878B879C87CE0107960E9410290D
:105630008823D1F09F8188852A853B85232B31F0F3
:105640008F3F31F481E09F3F19F403C081E001C036
:1056500080E080FD47C04F81588569857A858B85BC
:105660009C850E9469283EC086E0FE013796DE01D7
:10567000119601900D928A95E1F7FF81E8856A8580
:105680007B856115710531F0EF3F31F481E0FF3F1B
:1056900019F403C081E001C080E080FD23C02091A7
:1056A000330430E0C9010196877099274091320494
:1056B00050E084179507F1F1F983EA837D836C83C9
:1056C00096E0929FD001939FB00D1124AC5CBB4F2C
:1056D000FE01319601900D929A95E1F78093330483
:1056E0000E94792816E08091320490913304891742
:1056F00071F1189FC00111248C5C9B4F0E941029EE
:10570000882329F1E09132041E9FF0011124EC5C02
:10571000FB4F4081518162817381848195810E9418
:1057200069288091320490E00196877099278093D0
:105730003204D9CF0E94F827109233041092320419
:10574000E4E6F4E086E0DF011D928A95E9F72C9605
:105750000FB6F894DEBF0FBECDBFDF91CF911F9182
:105760000895DF92EF92FF920F931F93CF93DF93F1
:10577000FC01892B09F488C0E12CF12CDD24D394A1
:10578000EF0121968491853709F460C058F484377D
:1057900008F04EC0843008F068C08130D1F082300B
:1057A00071F172C0883709F45BC050F4863709F490
:1057B00053C0873709F068C08E2D0E942C2E52C02E
:1057C0009CE7980F903708F05FC08F770E94AC2459
:1057D0004EC08F010E5F1F4FFE01849190E2980F23
:1057E000983050F48770FD2D01C0FF0F8A95EAF7BD
:1057F0008F2F0E94322E15C00E944C2414C08F019E
:105800000E5F1F4FFE01849190E2980F983068F46C
:105810008770FD2D01C0FF0F8A95EAF78F2F0E9438
:10582000382E0E94592EE80122C00E94AC24FBCFE2
:10583000CF010296FE01C491CC2361F0EFE9FFE0B5
:105840003197F1F700C00000C150F6CFCF010296AA
:10585000FE01F490EC010BC00E941C2EE82E07C044
:105860000E942F2E0E94592E02C00E944C248F2D80
:10587000882341F0EFE9FFE03197F1F700C0000025
:105880008150F6CFFE017CCFDF91CF911F910F9118
:10589000FF90EF90DF90089560936A0570936B0519
:1058A00080936C0590936D050C94BA2E08950F9318
:1058B0001F9300916E0510916F0520917005309136
:1058C0007105602B712B822B932B60936E05709367
:1058D0006F0580937005909371051F910F910C9443
:1058E000B92E0F931F9300916E0510916F052091B3
:1058F0007005309171056023712382239323609397
:105900006E0570936F0580937005909371051F91DC
:105910000F910C94B92E0F931F9300916E05109167
:105920006F052091700530917105602771278227DE
:10593000932760936E0570936F0580937005909325
:1059400071051F910F910C94B92E60E070E0CB01AE
:105950000C944C2C0F931F9341E050E060E070E0FA
:105960008A019B0104C0000F111F221F331F8A955B
:10597000D2F7C901B8011F910F910C944C2C0F93D1
:105980001F9341E050E060E070E004C0440F551FF9
:10599000661F771F8A95D2F780916A0590916B05F3
:1059A000A0916C05B0916D058A019B01082B192B04
:1059B0002A2B3B2BC901B8011F910F910C944C2C41
:1059C0000F931F9341E050E060E070E004C0440F8B
:1059D000551F661F771F8A95D2F7409550956095A1
:1059E000709580916A0590916B05A0916C05B091BE
:1059F0006D058A019B01082319232A233B23C90132
:105A0000B8011F910F910C944C2C0F931F9341E000
:105A100050E060E070E004C0440F551F661F771F20
:105A20008A95D2F780916A0590916B05A0916C05DB
:105A3000B0916D058A019B01082719272A273B276A
:105A4000C901B8011F910F910C944C2C0F931F9317
:105A500000916A0510916B0520916C0530916D05E0
:105A6000602B712B822B932B1F910F910C944C2C3C
:105A70000F931F9300916A0510916B0520916C059F
:105A800030916D0560237123822393231F910F9121
:105A90000C944C2C0F931F9300916A0510916B0589
:105AA00020916C0530916D0560277127822793271F
:105AB0001F910F910C944C2C08958F929F92AF924E
:105AC000BF92DF92EF92FF920F931F93CF93DF93DA
:105AD00000D000D01F92CDB7DEB76B837C838D835F
